:100000000C94A2060C94BF060C94BF060C942234E8
:100010000C94BF060C94BF060C94BF060C94BF064C
:100020000C94BF060C94BF060C94E11A0C949D1A14
:100030000C944D2B0C94BF060C94BF060C94BF0679
:100040000C94BF060C94BF060C94BF060C94BF061C
:100050000C94BF060C94BA1B0C94BF060C94BF06FC
:100060000C94BF060C94BF060C94BF060C94BF06FC
:100070000C94BF060C94BF060C94BF060C94BF06EC
:100080000C94BF060C94BF060C94BF060C94BF06DC
:100090000C94BF060C94BF060C94BF060C94BF06CC
:1000A0000C94BF060C94BF060C94BF060501098092
:1000B000A101850319012AB700150126B700950192
:1000C00075108100C0050C0901A101850419012AE0
:1000D000A002150126A002950175108100C00660DE
:1000E000FF0961A1010962150026FF00952075082E
:1000F00081020963150026FF00952075089102C052
:1001000005010906A101050719E029E715002501E8
:10011000950875018102950175088101050719008F
:1001200029FF150026FF00950675088100050819AE
:10013000012905950575019102950175039101C08D
:10014000010000050105020503050405050500067B
:10015000010602060306040605060007010702075A
:10016000030704070507000801080208030804083C
:10017000050800090109020903090409050900002D
:10018000010002000300040005000001010102015A
:10019000030104010501000201020202030204023C
:1001A0000502000301030203030304030503000423
:1001B000010402040304040405040000000000001C
:1001C000000000000000000000000000000000002F
:1001D00000000000000000000000000000007E0F92
:1001E00000D4FFFFFFC700000078000000000000FF
:1001F00000002A2B28000000000000000000000082
:10020000000000000029000000002C1E34202122E4
:1002100024342627252E362D3738271E1F2021224D
:10022000232425263333362E37381F0405060708C6
:10023000090A0B0C0D0E0F101112131415161718B6
:10024000191A1B1C1D2F3130232D350405060708F4
:10025000090A0B0C0D0E0F10111213141516171896
:10026000191A1B1C1D2F3130354C00DA02815AD966
:10027000F1DB20A4A62EAF00A0C0D30000A1C8D3FC
:100280000000AED580A81F408D1420007F3F1F6462
:100290003214643214783C1E1E140A050001010158
:1002A0000101010101010202020202020202020333
:1002B0000303030303030304040404040404050503
:1002C00005050506060606060707070707080808C6
:1002D00008090909090A0A0A0B0B0B0C0C0C0D0D75
:1002E0000D0E0E0E0F0F0F1010111111121213130D
:1002F0001414151516161717181819191A1A1B1B86
:100300001C1D1D1E1E1F20202122222324242526E1
:1003100026272829292A2B2C2D2D2E2F3031323219
:10032000333435363738393A3B3C3D3E3F40414225
:10033000434445464748494A4C4D4E4F505153540B
:10034000555658595A5B5D5E5F61626465666869BF
:100350006B6C6D6F7072737577787A7B7D7E80823F
:10036000838587888A8C8E8F91939596989A9C9E88
:10037000A0A2A3A5A7A9ABADAFB1B3B5B7BABCBE98
:10038000C0C2C4C6C9CBCDCFD1D4D6D8DBDDDFE265
:10039000E4E7E9EBEEF0F3F5F8FAFDFF222325267A
:1003A00028292A2C2D2F3032333536383A3B3D3E22
:1003B0004042434547494A4C4E5051535557595A6C
:1003C0005C5E6062646668696B6D6F717375777986
:1003D0007B7D7F81838587898A8C8E909294969885
:1003E0009A9C9E9FA1A3A5A7A8AAACAEAFB1B3B497
:1003F000B6B8B9BBBCBEBFC1C2C3C5C6C7C9CACBEC
:10040000CCCDCED0D1D2D2D3D4D5D6D7D7D8D9D9B6
:10041000DADADBDBDBDCDCDCDCDCDDDDDDDDDCDC1F
:10042000DCDCDCDBDBDBDADAD9D9D8D7D7D6D5D43C
:10043000D3D2D2D1D0CECDCCCBCAC9C7C6C5C3C208
:10044000C1BFBEBCBBB9B8B6B4B3B1AFAEACAAA85D
:10045000A7A5A3A19F9E9C9A98969492908E8C8A11
:1004600089878583817F7D7B79777573716F6D6BEC
:100470006968666462605E5C5A5957555351504EC4
:100480004C4A4947454342403E3D3B3A3836353376
:1004900032302F2D2C2A29282625232207087F08D1
:1004A00007003E5B4F5B3E003E6B4F6B3E001C3EC9
:1004B0007C3E1C00183C7E3C18001C577D571C00DD
:1004C0001C5E7F5E1C0000183C180000FFE7C3E7BD
:1004D000FF00001824180000FFE7DBE7FF003048AA
:1004E0003A060E00262979292600407F05050700D7
:1004F000407F05253F005A3CE73C5A007F3E1C1CCC
:100500000800081C1C3E7F0014227F2214005F5F3D
:10051000005F5F0006097F017F00006689956A0021
:1005200060606060600094A2FFA2940008047E04F2
:10053000080010207E20100008082A1C0800081C53
:100540002A0808001E10101010000C1E0C1E0C00B3
:1005500030383E383000060E3E0E06000000000027
:10056000000000005F000000000700070000147F8B
:10057000147F1400242A7F2A1200231308646200C7
:10058000364956205000000807030000001C224195
:1005900000000041221C00002A1C7F1C2A000808C1
:1005A0003E080800008070300000080808080800B5
:1005B0000000606000002010080402003E51494520
:1005C0003E0000427F4000007249494946002141F7
:1005D000494D33001814127F100027454545390056
:1005E0003C4A49493100412111090700364949492E
:1005F0003600464949291E00000014000000004052
:1006000034000000000814224100141414141400D3
:100610000041221408000201590906003E415D59BB
:100620004E007C1211127C007F49494936003E4140
:10063000414122007F4141413E007F4949494100FB
:100640007F09090901003E41415173007F080808F4
:100650007F0000417F4100002040413F01007F08B2
:10066000142241007F40404040007F021C027F0076
:100670007F0408107F003E4141413E007F09090987
:1006800006003E4151215E007F0919294600264996
:100690004949320003017F0103003F4040403F00D1
:1006A0001F2040201F003F4038403F0063140814C3
:1006B00063000304780403006159494D4300007F3F
:1006C00041414100020408102000004141417F00E7
:1006D00004020102040040404040400000030708BB
:1006E00000002054547840007F28444438003844A7
:1006F00044442800384444287F0038545454180097
:1007000000087E09020018A4A49C78007F08040455
:10071000780000447D4000002040403D00007F10F4
:100720002844000000417F4000007C0478047800E9
:100730007C0804047800384444443800FC1824241D
:10074000180018242418FC007C08040408004854ED
:100750005454240004043F4424003C4040207C00C6
:100760001C2040201C003C4030403C004428102805
:1007700044004C9090907C004464544C4400000829
:1007800036410000000077000000004136080000FC
:100790000201020402003C2623263C000000000067
:1007A0000000404040F0F8F8FF38FFF8F83FF8F854
:1007B000FF38FFF8F8F040404000000000000080E3
:1007C000C0C0C0800000C0C08000000080C0C00069
:1007D000C0C0000080C0C00000000000C0C0C0C099
:1007E000C000C0C0000000000000000000000000C9
:1007F00000000000000000000000000000000000F9
:1008000000000000000000000000000000000000E8
:100810000000000000000000000000C0F0F8FC3EF6
:100820001E06010000007F4141417F007F414141A0
:100830007F000080C0E07E5B4F5BFEC00000C00018
:10084000DCD7DEDEDED7DC00C000000000000000E8
:100850000000000000000000000000000000000098
:100860000000494949FFFFFFFFE0DFBFBF00BFBFF6
:10087000DFE0FFFFFFFF49494900000000001F3F84
:100880006060E0BF1F007F7F071E381E077F7F006C
:100890007F7F0E1F3B716000000000007F7F0C0C0B
:1008A0000C007E7E007F7E0303007F7E03037E7E3E
:1008B00003037F7E000F3E703C063C703E0F00320B
:1008C0007B49493F7E007F7E0303001E3F69696FBD
:1008D0002600000000000000000000030F1F3F3C46
:1008E0007870600000007F4141417F007F414141BD
:1008F0007F00307B7F7830202030787F3B00030002
:100900000F7F0F0F0F7F0F0003000000000000009B
:1009100000000000000000000000000000000000D7
:100920000000010101070F0F7F0F7F0F0F7E0F0FD8
:100930007F0F7F0F0F070101010000000000000082
:1009400000000001010000000000000000000000A5
:100950000000000000000000000000000000000097
:100960000000000000000000000000000000000087
:100970000000000000000000000000000000000077
:100980000000000000000000000000000000000067
:100990000000000000000000000000000000000057
:1009A0000000000000000000000000000000000047
:1009B0000000000000000000000000000000000037
:1009C0000000000000000000000000000000000027
:1009D00000000000000000000000000000AF00AEBA
:1009E0004350534C4B000A0A00556E646566005232
:1009F00061697365004C6F77657200426173650AC7
:100A0000004C41594552000A0A004D6F6400436C86
:100A10006D6B0A00517772740A000A0A0000000028
:100A2000804020101808040406020202020202029A
:100A30000206040408181020C08000000080FC0F8B
:100A40000FFFFFFFFF0F0F0FFFFFFEFEFC00FCFE7E
:100A5000FEFF0F0F0F3E3E3F3F0F07FC00013FE040
:100A600080FFFFFFFFE0E0E0FFFFFFFF7F007FFF71
:100A7000FFFFF0E0E0F8F8F8F8E0E03F00000000E9
:100A8000010305091131216141414040404040408E
:100A90004041612131110905030100000057504D0B
:100AA0003A2000534F464C450035001E001F0020E1
:100AB0000021002200290014001A00080015001768
:100AC000002B0004001600070009000A00E1001DC9
:100AD000001B00060019000500E300E200E0002210
:100AE000522800A8003500270026002500240023F6
:100AF000002A00130012000C0018001C0034003300
:100B0000000F000E000D000B00E500380037003626
:100B10000010001100E700E600E40023522C000062
:100B20000035001E001F00200021002200290014B3
:100B3000001A00090013000A002B0004001500161B
:100B40000017000700E1001D001B0006001900054A
:100B500000E300E200E00001002800A800350027C3
:100B60000026002500240023002A0033001C001862
:100B7000000F000D00340012000C00080011000BE3
:100B800000E50038003700360010000E00E700E6F0
:100B900000E40001002C00000001003A003B003C92
:100BA000003D003E0035001E001F002000210022F5
:100BB0000001001E021F0220022102220201002E5B
:100BC000002D002E022F0230020100010001000161
:100BD0000001000100440043004200410040003F8A
:100BE00000450027002600250024002300310227AD
:100BF00002260225022402230201003100330233BF
:100C00000030002F0001000100010001000100017F
:100C10000001000100010001000100010001004984
:100C20000046006500000000000100E200E000E175
:100C3000000000390001007A007B007C007D00008C
:100C4000000100010001000100010001000100019C
:100C50000001000100010001002A00010001005212
:100C60000001004B002A004C004F00510050004E84
:100C7000000100000001000000010000000100016F
:100C8000000100010001000100A900AA004B004E74
:100C90000001000100010001002378247825782656
:100CA00078277828782178227809025B00030100F0
:100CB000A0FA09040000010301010009211101004B
:100CC0000122400007058103080001090401000218
:100CD0000300000009211101000122220007058202
:100CE000032000010705030320000109040200019D
:100CF00003000000092111010001223200070584D0
:100D000003200001120100020000000832FC8702EB
:100D10000100010200010C0353006F0066006C002B
:100D2000650000001A034A006F007300650066004A
:100D30004100640061006D00630069006B00000009
:100D40000403090411241FBECFEFDAE0DEBFCDBFDC
:100D500011E0A0E0B1E0E6EAFEE602C005900D92E7
:100D6000AC3DB107D9F725E0ACEDB1E001C01D9273
:100D7000AB3CB207E1F70E94742B0C94E1360C9463
:100D800000009091CA05899FC0011124811522E0BD
:100D9000920714F090E080E086539C4F9093C90333
:100DA0008093C8030895482F2091C40390918B032A
:100DB00057E0291302C080E0089530E0529FF0010F
:100DC000539FF00D1124E457FC4F8181681306C036
:100DD0008081481303C085818111EECF2F5F3F4F83
:100DE0002770E7CFE8EDF0E080818E7F808310925E
:100DF000E2001092DA001092E100A0EEB0E08C91D7
:100E000081608C9380818F77808319BCA7EDB0E0DF
:100E10008C918E7F8C9380818F7E8083109274035F
:100E200008952091E4003091E50095E6A901209114
:100E3000EC00822F817020FF06C08091E80080FFC7
:100E400006C080E008952091E80022FD1AC080913C
:100E50008103882389F0853089F08091EB0085FD3E
:100E60000FC02091E4003091E50042175307F9F2DA
:100E70009150E1F684E0089582E0089583E00895BA
:100E800081E008958091830387FF13C08091E8007B
:100E900082FF06C08091E8008B778093E80004C051
:100EA000809181038111F2CF08958091810388237D
:100EB000D9F38091E80080FFF8CF8091E8008E7729
:100EC000ECCF982F9093E900242F762F50E08917CC
:100ED00031F07091EC002091ED005091F00021FD77
:100EE00007C09F5F973071F78093E90081E0089514
:100EF0003091EB003E7F3093EB003091ED003D7F71
:100F00003093ED003091EB0031603093EB00709343
:100F1000EC002093ED005093F0002091EE0027FDAF
:100F2000E0CF80E00895B0E0A0E0E9E9F7E00C94BC
:100F30005C35C8EDD0E088818F7E8883E7EDF0E0F6
:100F400080818160808384E082BF81E0809374032C
:100F500088818E7F888302EE10E0F8011082109263
:100F6000DA0081EEC82ED12CF601108288818F77AD
:100F7000888388818068888388818F7D888319BC75
:100F800010928103109282031092800310927F03CB
:100F900090EEE92EF12CF70180818B7F8083888190
:100FA0008160888342E060E080E00E946107F60192
:100FB00080818E7F8083F801808181608083808141
:100FC00088608083F70180818E7F80838881806143
:100FD0008883CDB7DEB7E8E00C947835FC018091CA
:100FE000890390918A0386179707A0F06115710510
:100FF00029F49091E8009E779093E80090E06115C5
:10100000710551F4911108C08091E80082FF34C04D
:1010100080E00895BC01F2CF809181038823C1F163
:101020008530C1F18091E80083FD30C08091E800F7
:1010300082FDEACF8091E80080FFE1CF8091F3004C
:101040002091F200382F6115710519F02830310513
:1010500058F091E02830310509F090E02091E80047
:101060002E772093E800CBCF81918093F1006150DF
:1010700071092F5F3F4FE7CF80918103882341F0B3
:10108000853041F08091E80083FFBECF81E0089574
:1010900082E0089583E0089508950895809176038D
:1010A000089587E797E7909301088093000888E107
:1010B0009AE00FB6F894A895809360000FBE9093C5
:1010C0006000FFCF2FB7F8946091700370917103A7
:1010D00080917203909173032FBF08959C01FC01CE
:1010E00032969FEF80E04191461751F09F3F19F4EF
:1010F000411101C0982F8F5F8630A9F79F3F09F4F7
:101100000895290F311D97FD3A95F90162830895DD
:10111000A3E0B0E0EEE8F8E00C94623520916D03B6
:1011200030916E0328173907A1F090936E038093D6
:101130006D03E0916B03F0916C03309751F024E064
:1011400029839B838A830680F781E02DCE01019657
:1011500009952396E2E00C947E35A3E0B0E0E3EB42
:10116000F8E00C9462352091690330916A032817E6
:101170003907A1F090936A0380936903E0916B03B0
:10118000F0916C03309751F023E029839B838A838D
:101190000680F781E02DCE01019609952396E2E0C5
:1011A0000C947E35FC01680F791F8FEF91E321913C
:1011B000822728E030E087FF09C0880F8927215067
:1011C0003109C9F7E617F70791F70895880FF7CFA8
:1011D000FA01811101C0FB0109950895EAEDF2E0E1
:1011E0001182828184608283089580912703982FE1
:1011F0009E7F61F4817082608093270380912A032F
:10120000893718F088E780932A0308958233B0F372
:1012100081708063F1CFAF92BF92DF92EF92FF9225
:101220000F931F93CF93DF93082F162FE901E42F1D
:10123000F0E0E456FD4F611110C0E4915E2F4E2F97
:101240004983E8835A83DF91CF911F910F91FF90DB
:10125000EF90DF90BF90AF900895E62EF12C44916F
:10126000D42EE42FF0E026E0829FC00111242FEF5E
:1012700030E0B9010E943E35802F90E0880F991F21
:1012800055E5569FD001579FB00D11248A1B9B0B2B
:10129000982F990F890F5901AE18BF08AE9ED00143
:1012A000AF9EB00DBE9EB00D11245B2F189F800124
:1012B0001124012F11275901A01AB10AAE9E8001F5
:1012C000AF9E100DBE9E100D11245901A81AB10831
:1012D000AE9CC001AF9C900DBE9C900D1124892F37
:1012E0009927281B390B2E9FC0012F9F900D3E9FE1
:1012F000900D1124E92F62307105A1F050F46115B1
:10130000710509F49DCF6130710581F0EB2F512FEC
:1013100097CF6430710569F080F06630710509F48B
:101320008FCFF4CFE42F4B2F592F8ACFE42F412FAB
:1013300087CFEB2F542F492F83CF4B2F5D2DE12FDC
:101340007FCF80E00895F894E82FE295EF70F0E009
:1013500031A1282F2F7081E090E001C0880F2A95DD
:10136000EAF7982F9095932391A392A1892B82A3BA
:10137000789408959091730292FF06C0282F2871E7
:101380002830F9F4877F846093FF06C0282F2871E6
:101390002831F1F4877E84612091740220FF06C019
:1013A000382F38713830D9F4877F816021FF06C02B
:1013B000282F28712831D1F4877E816194FD877EA2
:1013C0000895282F24712430F9F68B7F8860DCCFB4
:1013D000282F2471243101F78B7E8861DDCF382FCF
:1013E0003171313019F78E7F8860E0CF282F21715D
:1013F000213121F78E7E8861E1CF82389105B9F1E4
:10140000B0F48133910509F47DC048F48932910527
:1014100009F46DC08A32910509F47BC008958533C3
:10142000910509F45FC08933910509F10895833E60
:101430009105D9F138F4803E910529F1823E91055C
:1014400079F10895863E9105D9F1873E910509F419
:101450003EC0843E910541F52091740221FF24C0D5
:101460008091730284FD19C087EE90E00895209169
:101470007302237009F05AC02091740223FF14C034
:1014800089E290E008952091730220FD38C03091E8
:10149000740230FF09C024FF43C090E080E008954B
:1014A0002091730222FDF7CF08952091730222FD4F
:1014B0003AC03091740230FD39C024FFF5CFEDCF32
:1014C0002091730223FFF0CF24FDE7CFCDCF2091F1
:1014D000730223FD2EC03091740231FFEECF84EEF3
:1014E00090E008952091730225FFDECFC9CF2091AF
:1014F000730225FD21C02091740223FFD5CF89E31B
:1015000090E0D2CF2091730226FFCECF8AE290E006
:1015100008952091730226FFC7CF81E390E00895DC
:1015200083EE90E0089582EE90E0089580EE90E0E2
:10153000089586EE90E0089585E390E008950F9376
:101540001F93CF93DF930E94FD09EC01C11582E543
:10155000D80708F055C0C11590E5D90708F001C1BA
:10156000C03ED10520F5CD3CD10508F092C0C83A67
:10157000D10578F4C53AD10508F083C0C130D10552
:1015800011F1209701F1C430D105E8F4D0E0C0E0BA
:101590001AC0C33CD105D0F7C85AD0E0CC0FDD1F2C
:1015A000C85ADE4F0990D881C02DD4640CC0C11533
:1015B00080E2D80770F4C11591E0D90708F06BC03C
:1015C000C83ED10518F7CE01DF91CF911F910F9141
:1015D00008958E011127C11580E4D80708F06CC06A
:1015E0008D2F8F710E94BA09C82FC8010E94FD0972
:1015F000D0E0DC2FCC27CC27DF71C82BD92B2CC017
:10160000C03892E5D907B0F4C03682E5D80708F0B3
:1016100085C0C03492E5D90708F06BC0C03282E5BE
:10162000D80708F452C0CF71D0E0DC2FCC27C16FAF
:10163000D06AC9CFC03C92E5D90780F48C2F8F7156
:10164000C03AD24508F47FC00E94BA09C82FD0E042
:10165000DC2FCC27CC27DF71D062B5CFC03E82E52E
:10166000D80708F477C0CE0196558F3F910511F049
:1016700008F08CCFCE0199270E94FD09EC01D066BD
:10168000A2CFC55AD0E0CB5ADE4FC881D0E0D0649B
:101690009ACFD06598CF8D2F0E94BA09182FCE010E
:1016A00099270E94FD09C12FD0E0DC2FCC27CC2741
:1016B000DF71C82BD92B87CFC8010E94FD09CC2729
:1016C000DF70C82BD92BD06A7ECF2C2F269526957C
:1016D00090E2299F900111248C2F8370C1E0D0E00B
:1016E00002C0CC0FDD1F8A95E2F7C22BD32BDD6839
:1016F0006ACF2C2F26952695277080E2289F90018F
:1017000011248C2F8370C1E0D0E002C0CC0FDD1F0C
:101710008A95E2F7C22BD32BDC6855CF2C2F269568
:101720002695277090E2299F900111248C2F8370B9
:10173000C1E0D0E002C0CC0FDD1F8A95E2F7C22BDA
:10174000D32BDA6840CFC82FD0E0DC2FCC27C46F72
:10175000D06A39CFDC2FCC27CC27DF71C06FD06A9D
:1017600032CF8C2F8F710E94BA0955E0D695C7955C
:101770005A95E1F7CF70D0E0DC2FCC27282F30E04E
:1017800084FF05C044E0220F331F4A95E1F7C22BC6
:10179000D32BD06918CF80959091210298239093F4
:1017A000210208958091C40390918B03981301C086
:1017B00008958F5F8770FACFA82FA77023E09695C2
:1017C00087952A95E1F7FC01EE0FFF1FE80FF91F3F
:1017D000E60FF71F50E040E080E0219130E00A2E54
:1017E00002C0369527950A94E2F721703327042E1C
:1017F00001C0220F0A94EAF7822B4F5F5F4F4330FC
:10180000510559F70895292F9A3068F4863090F4DD
:1018100090E065EF71E036E0239F800D911D11246B
:101820000E94DC0B08952C5F223020F462EF71E0FF
:1018300090E0F6CF80E00895262F277091E001C058
:10184000990F2A95EAF723E0769567952A95E1F7AF
:10185000FB01EE0FFF1FE60FF71FE40FF51F50E02F
:1018600040E0682F70E08191DF0111979B01042E09
:1018700002C0369527950A94E2F721702195282712
:10188000292328272C934F5F5F4F4330510559F789
:101890000895282F862F9A3070F4263058F4622F3E
:1018A00070E026E0929F600D711D112445EF51E01C
:1018B0000E941C0C08959C5F9230E0F7622F70E04C
:1018C00042EF51E0F5CF80933503089590913503B1
:1018D00021E030E0F90101C0EE0F8A95EAF7D90165
:1018E00002C0AA0FBB1F6A95E2F7EA2B01C0220FC4
:1018F0004A95EAF7892F8E23E81305C0292B822FFA
:101900000E94630C089520952923F9CF21E030E04F
:1019100001C0220F8A95EAF7209580913503822332
:101920000E94630C089590911602809589238093FC
:101930001602282F277069F4891759F090917402C4
:1019400092FF07C08695869586950E94860C109218
:101950001602089521E030E001C0220F8A95EAF7CF
:1019600080913503822B0E94630C08958093360387
:101970000895982F92959F7011F0892F94E0282F49
:101980002695269511F09E5F822F869509F09F5F20
:10199000892F08950F931F93CF93DF938B01EA0153
:1019A00090918103943061F58093E9008FEF9091DD
:1019B000E800815095FD06C095ED9A95F1F700007D
:1019C0008111F5CF8091E80085FF1AC00E941107B0
:1019D000811111C08091E80085FD06C08091E8006A
:1019E0008E778093E800F2CFF80181918F01809388
:1019F000F100219779F78091E8008E778093E800D5
:101A0000DF91CF911F910F91089543E050E0BC0109
:101A100084E00E94CA0C0895CF93DF93EC0148E064
:101A200050E0BC0181E00E94CA0C88E0FE01A7E7FB
:101A3000B3E001900D928A95E1F7DF91CF9108957F
:101A4000609148018091270380FF20C08091470169
:101A500043E0849FC001112481529D4F539A2BB1C2
:101A6000277F3BB138605FB7F894FC01649FE00DBD
:101A7000F11D1124BF0168177907D1F45FBF8FE50D
:101A800094E00197F1F700C00000089580914901AA
:101A900090914A0123E0829FF0011124E152FD4F11
:101AA0008917A0F61182108212828F5F3396F8CFC9
:101AB000FC014191CF01E8E03BB9000000C047FFC5
:101AC0002BB9440F000000C000C000C02BB900C0FB
:101AD000EA9591F7D0CF0F931F93CF93DF93EC014B
:101AE00010E000E090914B019017110609F06CF4A2
:101AF0000E94200D8C8190E00196817099278C8343
:101B0000DF91CF911F910F91089520914901A80174
:101B1000420F511D9A01220F331F240F351F2152EE
:101B20003D4F4C8160912903809128039695901731
:101B3000110669F064F0442361F040912A034937AB
:101B400008F048E70E940B090F5F1F4FCBCF4423DB
:101B5000A1F340E0F7CFEF92FF920F931F93CF9343
:101B6000DF93EC018C81811109C081E08C8310929C
:101B7000DE0292E0909346018093450180914901F5
:101B800090914A0123E0829FF0011124E152FD4F20
:101B9000891758F110E003E060914B01161758F1D6
:101BA0000E94200D809145012091DE02280F209394
:101BB000DE0290914601980F90934601191654F455
:101BC000022E000C330B40914B014150550B241752
:101BD000350734F0819580934501813009F41C82EA
:101BE000CDB7DEB7E6E00C947A351182108212820E
:101BF0008F5F3396CDCFE12EF12C70E0C7010E94AC
:101C0000A33520914901820F482F50E02091DE0238
:101C1000022E000C330BE216F306D4F0209146019D
:101C2000022E000C330B2E153F0594F0809F90017F
:101C3000112421523D4F40912A03493708F048E7CB
:101C400060912903809128030E940B091F5FA4CF94
:101C5000FA01EE0FFF1FE40FF51FE152FD4F118255
:101C600010821282F3CFB0E0A0E0E9E3FEE00C9432
:101C70005835EC018A81BB24BA9480FD02C0BB2494
:101C8000B394A0904B018C81811109C081E0B812FE
:101C900020C08FEF8A0D8093DD0281E08C83F12CD0
:101CA000E12C48E1842EEA14B8F00E94200D8091C6
:101CB000DD0291E0B9125AC0811153C080914B01ED
:101CC00081508093DD021C82CDB7DEB7ECE00C942E
:101CD00074351092DD02E1CF009149010E0D1F2DE8
:101CE000111DC801880F991F080F191F01521D4FA0
:101CF000F80111821082128234E0C32ED12C912C73
:101D00008091DD02890D893144F1682D0E9495355D
:101D1000892F082E000C990B8E159F05A9F4809130
:101D20002A038C9DA0018D9D500D1124559547953A
:101D300055954795493708F048E798016091290380
:101D4000809128030E940B099B0CF1E0CF1AD10867
:101D5000B9F68FEFE81AF80AA6CF87FFDACF8A0D17
:101D6000D8CF81508093DD02BC82AECF90E0019647
:101D700060914B0170E00E94A3358093DD028C835B
:101D8000A3CFEF92FF921F93CF93DF93EC0110E06C
:101D9000EE24EA94F12C60914B01161770F00E942A
:101DA000200D9A818C8190FF2AC08F5F8C83DF91F8
:101DB000CF911F91FF90EF90089520914901422FFC
:101DC000410F5527551FCA019A01220F331F280FB3
:101DD000391F21523D4F40912A03493708F048E707
:101DE00070E0C7010E94A335962F8C816091290372
:101DF000199F800D11240E940B091F5FCCCF8150C9
:101E0000D5CF9091270390FF0EC09091490120916A
:101E10004A0133E0939FF0011124E152FD4F9217E4
:101E200018F00E94200D08958183608342839F5F94
:101E30003396F5CFA3E0B0E0E0E2FFE00C9462352A
:101E40009091270390FF0DC0493708F048E79E01A5
:101E50002F5F3F4F0E940B094B8169818A810E944D
:101E6000010F2396E2E00C947E35CF93DF93EC01D3
:101E7000E7E2F3E0438162818C810E941A0F8C813A
:101E80008F5F8C83DF91CF910895CF93DF93EC0127
:101E9000EC81F0E0E456FC4F4491E7E2F3E062812C
:101EA00081810E941A0F8C818F5F8C83DF91CF918B
:101EB0000895E7E2F3E080818E7F80830E94EE0840
:101EC000EAEDF2E08281816082830E94200D089514
:101ED000B0E0A0E0EEE6FFE00C945A357C015B0137
:101EE0006A018091600201E010E08A3010F40AE09B
:101EF00010E0C1E0D0E0B501C701F60109958111FC
:101F000004C021960C171D072CF4CDB7DEB7EAE00C
:101F10000C947635CC9F9001CD9F300D300D11245F
:101F200090E080E045E34A95F1F7000001968217C2
:101F30009307C1F7E0CF80912E02811119C088EC80
:101F400090E02091E30027FD10C0EFE3FCE931971A
:101F5000F1F700C000000197A1F782E080932E0204
:101F60000E94F2061092810303C081E080932E024A
:101F700081E090912E02913011F080E00895089553
:101F80000E949B0F882359F0E0916B03F0916C0342
:101F9000309729F00190F081E02D0995089580E0B7
:101FA00008950F931F930E949B0F882329F00E948E
:101FB00062081F910F9108950E94620800916102CA
:101FC000109162022091630230916402600F711FD0
:101FD000821F931FEECF0E94D10F0895CF93DF93FE
:101FE000C9E2D2E060E0CE010E94AD362196C11573
:101FF00084E0D807B9F7DF91CF9108950F931F932D
:10200000CF93DF93142F022F843020F5623010F528
:1020100098E0899FE001112484E0689FB0011124B9
:10202000C60FD71FC75FDD4F82E090E0442311F059
:1020300090E080E0632F8C0F9D1F0E94AD3683E0FF
:1020400090E0112311F081E090E0602F8C0F9D1F34
:102050000E94AD36DF91CF911F910F9108951F938C
:10206000CF93DF93122F8430E0F46A30D0F44630FF
:10207000C0F4C42FD0E0CC0FDD1F9CE0699FC00DE1
:10208000D11D112498E7899FC00DD11D1124632F04
:10209000CE0189960E94AD36612FCE018A960E94AC
:1020A000AD36DF91CF911F910895B0E0A0E0EBE550
:1020B000F0E10C94583589E8E82E8CE0F82E09EA16
:1020C0001AE0C0E05801D0E015C0F4012591349128
:1020D0004D2D6D2F8C2F0E942F1082E0880E911CA9
:1020E000D39486E0D812F1CF8CE0A80EB11CDF5F4C
:1020F000DA3019F04501D12CE8CF6701D0E0F601C4
:102100002591349141E06D2F8C2F0E94FE0FF60136
:1021100032962591349140E06D2F8C2F0E94FE0F56
:1021200084E0C80ED11CD13071F488E0E80EF11CB7
:10213000CF5F08581F4FC43009F0C4CFCDB7DEB70A
:10214000ECE00C947435D1E0DACFCF93C82F6FEF69
:10215000811163E285E290E00E94AD366FEFC1111C
:1021600068E086E290E00E94AD366FEFC11167E152
:1021700087E290E00E94AD36CF91089580E00E9402
:10218000A51060E088E290E00E94AD360E945510F4
:102190000E94EE0F81E00E94A5100895FF920F9318
:1021A0001F93CF93DF93F42E843070F5623060F587
:1021B00028E0829F8001112434E0639FB001112444
:1021C000060F171F075F1D4F82E090E0442311F0B8
:1021D00090E080E0800F911F0E948936C82FD0E0E8
:1021E000DC2FCC2783E090E0FF2011F081E090E02D
:1021F000800F911F0E9489369E01282BC901CDB7FF
:10220000DEB7E5E00C947B3590E080E0F8CF0F93EB
:102210001F93CF93DF93843030F56A3020F546303A
:1022200010F5C42FD0E0CC0FDD1F2CE0629FC00D55
:10223000D11D112438E7839FC00DD11D1124CE017B
:1022400089960E948936082F10E0102F0027CE01B2
:102250008A960E9489369801282BC901DF91CF9177
:102260001F910F91089590E080E0F8CF7A3048F404
:10227000663070F4843060F4462F672F0E94071197
:1022800008957D3F41F4623018F441E0843050F00D
:1022900090E080E008957C3FD9F76230C8F7843041
:1022A000B8F740E00E94CE100895CF92DF92FF92DF
:1022B0000F931F93CF93DF936C01009135038091AF
:1022C0003603082BC3E0D0E010E0FC2EC8010C2E32
:1022D00002C0959587950A94E2F780FD0CC021977E
:1022E000A0F7F12C8F2DDF91CF911F910F91FF90CF
:1022F000DF90CF900895B6018C2F0E9436110E9476
:102300009F0A019761F3EECFCF93DF93EC010E9418
:102310005511BE010E9436110E949F0ADF91CF9194
:102320000895FC0124812223C1F0808191810E94C3
:10233000841192959F70963091F058F4925F9F703F
:10234000923058F4803F19F030F4883E30F481E048
:1023500008959A5FF4CF843FD1F380E00895883EDA
:10236000B0F3813FD1F7F3CFA6E0B0E0EAEBF1E1C3
:102370000C94613549835A8349815A819923A1F08C
:10238000222391F0CA010E945511182F682F8981CC
:102390009A810E94490C69817A81812F0E943611AD
:1023A0002696E3E00C947D35CA010E94030C182F99
:1023B000F2CF85E290E00E948936833289F486E28A
:1023C00090E00E948936883059F487E290E00E94BC
:1023D000893691E0873109F090E0892F8170089566
:1023E00080E0FCCF8091210290912002892B809384
:1023F000DE0190911F02992391F0892B8093DE01D9
:1024000020E080EE91E0FC013191CF0131112F5F8E
:10241000F1E0863E9F07B9F7211110921F0248E0B4
:1024200050E067E172E08EED91E00E947336892BF7
:10243000A9F088E0EEEDF1E0A7E1B2E001900D92A5
:102440008A95E1F7E0916B03F0916C03309731F0DE
:102450000280F381E02D8EED91E0099508951092B0
:102460002102E0EEF1E086E0DF011D928A95E9F7B6
:1024700090E080E00E94AD0890E080E00E94880833
:10248000109220020E94F2110895AAE2B0E0EBE45B
:10249000F2E10C94613583E893E02091F100DC01D6
:1024A0002D93CD01B3E08B389B07B9F7809184035E
:1024B000833009F472C0B8F4813009F449C0823025
:1024C00009F4B3C08091E80083FF8BC2809183033D
:1024D000909184039A3008F084C2E92FF0E0ED5126
:1024E000F94C0C94F8358A3009F48EC08B3009F41D
:1024F00071C0893039F780918303813219F7809157
:10250000870390918803009711F00297D9F6809184
:10251000E800877F8093E8008091E80082FF38C060
:102520009091F3008091F200029731F48091F100D4
:10253000813011F0863021F48091F1008093760390
:102540008091E8008B778093E8000E944207BACF21
:1025500080918303813A09F0B5CF8091E800877FAD
:102560008093E8008091870390918803892B61F420
:1025700068E087E793E070E00E94EE078091E80052
:102580008B778093E8009ECF60E090E080E0F3CF0F
:10259000809181038111C0CF95CF80918303813ACF
:1025A00009F090CF8091870390918803892B09F0DF
:1025B00089CF8091E800877F8093E8008091E800D0
:1025C00080FFFCCF809154018093F1008091E8005E
:1025D0008E77B9CF80918303813209F073CF8091D8
:1025E000870390918803892B09F06CCF8091E800D4
:1025F000877F8093E8000E94420780918503809343
:1026000054010E942F125ECF80918303813209F022
:1026100059CF8091E800877F8093E8000E944207AD
:1026200080918603809375034DCF80918303813A17
:1026300009F048CF8091E800877F8093E80080917F
:10264000E80080FFFCCF80917503BECF803899F001
:10265000823809F0C6C1809187038F70873008F0F7
:10266000C0C18093E9008091EB0085FB882780F949
:102670001092E90006C080917F0390918003911130
:1026800082609091E800977F9093E8008093F1003A
:102690001092F1008091E8008E779FC1882309F4A1
:1026A0008DC1823009F09DC180918503811190C157
:1026B000809187038F702FEF280F263008F091C18B
:1026C0008093E9002091EB0020FF82C1933031F428
:1026D0008091EB0080628093EB007AC19091EB00D7
:1026E00090619093EB0021E030E001C0220F8A95C9
:1026F000EAF72093EA001092EA008091EB008860EC
:10270000EACF81116EC1109185031F778091E3009C
:102710008078812B8093E3008091E800877F80930D
:10272000E8000E9442078091E80080FFFCCF809182
:10273000E30080688093E30082E0111183E08093DE
:1027400081034FC18058823008F04BC1209185032E
:10275000309186032C3DE3E03E07A1F583E08A83B8
:102760008AE289834FB7F894DE01139620E03EE0B9
:1027700051E2E32FF0E050935700E49120FF03C0B3
:10278000E295EF703F5FEF708E2F90E0EA30C0F07F
:10279000C7968D939D932F5F243159F74FBF80913A
:1027A000E800877F8093E8006AE270E0CE0101963E
:1027B0000E94EE078091E8008B778093E80011C1BA
:1027C000C096E7CF8091870390918803432F5527C8
:1027D0004330510509F44AC078F54130510509F4F8
:1027E0007AC08BE590E0E9EAFCE04230510509F05F
:1027F000F8C02091E800277F2093E800209189030A
:1028000030918A038217930708F49C0140E0211558
:10281000310509F065C0411163C08091E80082FD77
:10282000C9CF80918103882329F2853019F28091E4
:10283000E80083FFF2CFBECF4132510509F43CC01E
:102840004232510509F0CDC08330910508F0C9C06E
:10285000FC01EE0FFF1FE153FE4F0190F081E02DD0
:1028600084539E4FDC018C9190E01AC033272130B5
:102870003105D1F02115310561F02230310509F023
:10288000B0C0E6E1FDE0E4918E2F90E0E6E1FDE0EE
:1028900007C0E0E4FDE0E4918E2F90E0E0E4FDE08D
:1028A000009709F49EC0A5CFE4E2FDE0E4918E2FED
:1028B00090E0E4E2FDE0F4CF8330910508F091C0B0
:1028C000880F991FFC01EB52FE4F0190F081E02D23
:1028D00089E090E08ECF82E190E0E4E0FDE089CFF6
:1028E00080918103882309F465CF853009F462CF94
:1028F0008091E80083FD5ECF8091E80082FD8DCF5E
:102900008091E80080FF83CF9091F3008091F200E6
:102910002115310519F08830910550F041E00897F4
:1029200009F040E08091E8008E778093E8006FCF57
:1029300044914093F1003196215031090196E8CF3E
:10294000803809F04EC08091E800877F8093E800CE
:10295000809182038093F1009DCE811142C010913D
:1029600085031230F0F58091E800877F8093E800BE
:10297000109382030E944207112311F084E005C0E6
:102980008091E30087FDFACF81E08093810342E0EC
:1029900061EC81E00E94610742E261EC84E00E9408
:1029A000610742E261EC82E00E94610742E260EC72
:1029B00083E00E9461078091810313C080918503A9
:1029C000813079F481E0933009F080E080938003D6
:1029D0001092E9008091E800877F8093E8000E94D0
:1029E00042078091E80083FF0AC08091E800877F5A
:1029F0008093E8008091EB0080628093EB00AA96C0
:102A0000E3E00C947D350E942F122FEF84E39CE0CD
:102A1000215080409040E1F700C0000088E19AE03A
:102A20000FB6F894A895809360000FBE9093600055
:102A3000FFCF882321F00E94CB0B0E94F211089552
:102A4000882339F090912102982B909321020E94C3
:102A5000F2110895882391F19CEF980F913A80F438
:102A6000E0EEF1E026EE31E09191891303C0DF0141
:102A700011971C922E173F07B9F70E94F211089583
:102A800090E2980F983050F4877091E001C0990F50
:102A90008A95EAF7892F0E94CB0BEFCF9BE5980F21
:102AA000933028F490E080E00E94AD080895885AA1
:102AB0008B3120F490E080E00E9488080895CF9345
:102AC000C82F8823B1F08CEF8C0F813A00F5E0EE2F
:102AD000F1E086EE91E0DF012D91C21761F08A17D7
:102AE0009B07D1F76C2F8EED91E00E946E080E943B
:102AF000F211CF9108952191C21303C0DF01119704
:102B00001C928E179F07B9F70E94F211EBCF80E25B
:102B10008C0F883068F4C77021E030E001C0220FCC
:102B2000CA95EAF780912102822B80932102DFCFA0
:102B3000EBE5EC0FE33040F4F0E0EB5AFE4F808120
:102B400090E00E94AD08D5CFC85ACB3190F6EC2F5B
:102B5000F0E0EE0FFF1FE85AFE4F808191810E9446
:102B60008808C7CF1F93CF93DF93182FCAE0D0E018
:102B7000893311F4C0E5D0E0812F0E945F158FE901
:102B80009FE00197F1F700C000002197C1F7812F66
:102B90000E942A15DF91CF911F9108951F93CF9323
:102BA000DF93162F8A3039F481E00E947116DF918D
:102BB000CF911F9108958D3011F480E0F6CFC09130
:102BC000C803D091C90396E0FE01AFE2B3E00190E3
:102BD0000D929A95E1F7803E90F186E0FE01119208
:102BE0008A95E9F7C091C803D091C903111133C088
:102BF00046E050E0BE018FE293E00E9473369E01F2
:102C00002A5C3340892B91F52A5F3F4F4091CA05DA
:102C1000642F70E0C9010E943E35481B463010F415
:102C2000240F311D211572E0370710F030E020E04D
:102C300026533C4F3093C9032093C803B8CFF6E026
:102C40008F9FB001112464567B4F46E050E0CE01C7
:102C50000E945D36C7CF9E012A5F3F4FFE012E17AF
:102C60003F0731F2808180958193F9CFC90145E01A
:102C7000969587954A95E1F741E050E0BA0102C088
:102C8000660F771F8A95E2F7CB0160915F03709121
:102C90006003862B972BB9016B5F7F4FE5E076953C
:102CA0006795EA95E1F702C0440F551F6A95E2F770
:102CB000842B952B9093600380935F03A5CF1F9384
:102CC000CF93DF93EC01162FFE018491811104C094
:102CD000DF91CF911F910895612F0E94CE1521960B
:102CE000F3CFCF93382FE091C803F091C903EA5C8A
:102CF000F3402091CA05622F70E0CF010E943E355B
:102D0000281B822F332369F066E00E948935C82F83
:102D1000C15010F4CF91089560E080E20E94CE157A
:102D2000F7CF9F01280F311D2115324018F080E0A8
:102D3000F0E0E0E08E0F9F2F911D86539C4F909303
:102D4000C9038093C803E6CF0E945F1681E00E940A
:102D500071160895B0E0A0E0E0EBF6E10C945C356C
:102D60006C017B0164E670E088E70E949C328C0174
:102D7000E601EC0CFD1C17FD0BC0FE01849164E61E
:102D800070E00E9408338C012196CE15DF0599F77B
:102D90000E947E3381E00115110509F080E0CDB776
:102DA000DEB7E8E00C947835809165039091680374
:102DB000911103C091E089270895882369F062E0AA
:102DC00070E08EED99E00E94AA16811103C08091F7
:102DD000650308951092650380916503EBCFCF934F
:102DE000C0916503809168038823D1F00E94620836
:102DF00060527C468B4F9F4F6093610370936203D8
:102E00008093630390936403C11108C062E070E093
:102E10008CED99E00E94AA16811105C0C09165034E
:102E20008C2FCF91089581E080936503F7CFB0E0B8
:102E3000A0E0EDE1F7E10C94583549015A016B012E
:102E40007C010E94F5088401A4016A2D7B2D88E095
:102E500090E00E94BF3694014A2D5B2DB601C70158
:102E600000E20E943336622F84E290E00E94AD3689
:102E7000CDB7DEB7ECE00C947435A3E0B0E0E3E44A
:102E8000F7E10C945E35082FF62E142FE22E809178
:102E9000270380FF43C020912803201308C090918E
:102EA0002903961304C090912A03941729F0909156
:102EB000DC0292609093DC02E82FE695F0E0E555A5
:102EC000FE4F90819093DA028E7F823059F5412F28
:102ED000193708F048E79E012F5F3F4F6F2D802F75
:102EE0000E940B094B8169818A810E94010F009326
:102EF0002803F092290310932A03EE2079F0209101
:102F0000270360912B0370912C03302F4F2D512FED
:102F100080912D0390912E030E9417172396E6E0CF
:102F20000C947A35923019F410912A03E0CF963040
:102F300011F09930E1F6022FDACFE7E2F3E04381B6
:102F400021E1421B08F440E021E0628181810E947E
:102F50003D170895E7E2F3E0438121E1420F08F4D1
:102F60004FEF21E0628181810E943D170895E7E2E1
:102F7000F3E0628121E1621B08F460E021E043811B
:102F800081810E943D170895E7E2F3E0628121E12B
:102F9000620F08F46FEF21E0438181810E943D17A9
:102FA0000895E7E2F3E0818121E0438162818A5064
:102FB0000E943D170895E7E2F3E0818121E043811B
:102FC0006281865F0E943D17089580912B038823BC
:102FD00019F0815080932B0320912703309128030F
:102FE0004091290350912A0360912B0370912C0387
:102FF00080912D0390912E030E94171708958091C0
:103000002B03833018F48F5F80932B0320912703C9
:10301000309128034091290350912A0360912B039A
:1030200070912C0380912D0390912E030E9417170D
:103030000895E7E2F3E083E0808311828FEF8283DB
:1030400088E783831482AAEDB2E012968C911297DE
:10305000836012968C93758123E030E04FEF58E740
:1030600060E0868197810E941717089590917402FD
:1030700092FB222720F9281779F080FB92F9909390
:103080007402609173027091740284E090E00E9477
:10309000CB3682E00E94930C089590E080E00E947D
:1030A0009736863E9E4F19F40E94D911089580E00C
:1030B0000895A4E0B0E0EFE5F8E10C9461354091AB
:1030C00054025091550260915602709157022FB7E9
:1030D000F8948091700390917103A0917203B09164
:1030E00073032FBF841B950BA60BB70B11E084361F
:1030F0009105A105B10570F10E94D10F6E5F7F4F60
:103100008F4F9F4F69837A838B839C8380912101AA
:1031100090912201845C9D4F4091200150E0453008
:10312000510510F044E050E0BE016F5F7F4F0E94F8
:10313000803684E090E00E94C834182F882351F034
:103140000E94620860935402709355028093560265
:1031500090935702812F2496E3E00C947D354F9293
:103160005F926F927F928F929F92AF92BF92EF92F7
:10317000FF920F931F93CF93DF937B01FB0140805E
:103180005180628073809FB7F89480907003909014
:103190007103A0907203B09073039FBF84189508C9
:1031A000A608B708F4E68F169104A104B10418F438
:1031B000C1E0442329F1C82F880FDD0BFE0183E015
:1031C000EE0FFF1F8A95E1F7E050FF4F818192815A
:1031D000845C9D4F408150E00417150708F4A80156
:1031E000B9010E948036CE010E94C834C82F8823BE
:1031F00039F00E946208F7016083718382839383B0
:103200008C2FDF91CF911F910F91FF90EF90BF9086
:10321000AF909F908F907F906F905F904F900895A8
:10322000A1E0B0E0E6E1F9E10C946035809137036C
:10323000898341E090915302981301C040E001E07E
:1032400010E09E012F5F3F4F6CE572E086E00E9428
:10325000AF182196E4E00C947C35ABE0B0E0E3E3FA
:10326000F9E10C94603588E0E7E2F3E0DE011196C5
:1032700001900D928A95E1F78091DA029091DB023C
:10328000A091DC0289879A87AB8741E08B85811109
:1032900001C040E00BE010E09E012F5F3F4F68E56A
:1032A00072E085E00E94AF1881111092DC022B962B
:1032B000E4E00C947C354F925F927F928F929F92C4
:1032C000AF92BF92CF92DF92EF92FF920F931F9334
:1032D000CF93DF930F92CDB7DEB7C62E4A015901C7
:1032E000482E880F5508C2010E94C834782E8823C2
:1032F00009F480C0C20133E0880F991F3A95E1F7C5
:10330000FC01E050FF4F438150E04115510511F0A1
:1033100041E050E080509F4FFC0164817581645C06
:103320007D4FCE0101960E948036F401408151818B
:10333000628173812FB7F89480917003909171032B
:10334000A0917203B09173032FBF841B950BA60B42
:10335000B70B84369105A105B10540F4B701C8014A
:103360000E94D2089981891709F444C00C2C000CE2
:10337000DD08C6010E94C834782E811113C0712C5B
:10338000872D0F90DF91CF911F910F91FF90EF90BC
:10339000DF90CF90BF90AF909F908F907F905F9085
:1033A0004F900895C60123E0880F991F2A95E1F7F1
:1033B000FC01E050FF4F438150E0E416F50608F4AD
:1033C000A70180509F4FFC0164817581645C7D4F33
:1033D000C5010E948036B701C8010E94D2089981B8
:1033E0008913CDCF0E946208F401608371838283C8
:1033F0009383C6CFA701B801C5010E948036C0CF14
:10340000A5E0B0E0E6E0FAE10C945C356B0185E004
:10341000E82EF12C0DE312E09E012F5F3F4F44E3B5
:1034200052E061E080E00E945B19882349F095E05A
:10343000FE013196AFE2B2E001900D929A95E1F76C
:1034400095E0EFE2F2E0D60101900D929A95E1F756
:103450002596E8E00C947835A8E0B0E0E2E3FAE1E4
:103460000C94623566EE7EEF90E080E00E94CB36F1
:1034700060E082E090E00E94AD3660E083E090E0A2
:103480000E94AD361092360360E074E184E090E073
:103490000E94CB3660E086E090E00E94AD366FEF90
:1034A00087E090E00E94AD3640E050E0BA0188E04D
:1034B00090E00E94BF3660E084E290E00E94AD366A
:1034C00060E087E190E00E94AD3660E08CE090E043
:1034D0000E94AD3660E08DE090E00E94AD3619822A
:1034E0001A821B821C821D821E821F82188648E05F
:1034F00050E068E170E0CE0101960E949D3640E008
:1035000050E0BA0180E290E00E94BF3680E00E9465
:10351000A5100E94BE1040E050E0BA018FE090E09C
:103520000E94BF3640E050E0BA0183E190E00E9483
:10353000BF362896E2E00C947E351F920F920FB6AC
:103540000F9211242F933F934F935F936F937F9329
:103550008F939F93AF93BF93CF93DF93EF93FF939B
:10356000D091E900DF708091EC00C82FC17080FD20
:10357000C0E81092E9008091F000877F8093F0000E
:1035800078940E9445121092E9008091F0008860C2
:103590008093F000CD2BCF70C093E900FF91EF91A5
:1035A000DF91CF91BF91AF919F918F917F916F915B
:1035B0005F914F913F912F910F900FBE0F901F90F1
:1035C00018951F920F920FB60F9211242F933F93CD
:1035D0004F935F936F937F938F939F93AF93BF931B
:1035E000EF93FF938091E10082FF09C08091E20098
:1035F00082FF05C08091E1008B7F8093E100809184
:10360000DA0080FF24C08091D80080FF20C0809124
:10361000DA008E7F8093DA008091D90080FF9DC010
:1036200080E189BD82E189BD09B400FEFDCF81E062
:103630008093810380917403811109C00E94F20676
:103640000E9493078091E20084608093E200809161
:10365000E10080FF17C08091E20080FF13C08091DD
:10366000E2008E7F8093E2008091E200806180938F
:10367000E2008091D80080628093D80019BC85E078
:10368000809381038091E10084FF2BC08091E20050
:1036900084FF27C080E189BD82E189BD89B5982F6B
:1036A000917080FFFBCF8091D8008F7D8093D800F0
:1036B0008091E1008F7E8093E1008091E2008F7E17
:1036C0008093E2008091E20081608093E20080912B
:1036D0008203882309F447C084E0809381038091AA
:1036E00081038091E10083FF27C08091E20083FF86
:1036F00023C08091E100877F8093E10082E0809386
:103700008103109282038091E1008E7F8093E1001B
:103710008091E2008E7F8093E2008091E2008061E0
:103720008093E20042E060E080E00E9461078091C7
:10373000F00088608093F000FF91EF91BF91AF910E
:103740009F918F917F916F915F914F913F912F91B9
:103750000F900FBE0F901F90189519BC1092810307
:103760001092740374CF8091E30087FD93E09093EF
:103770008103B5CF78941F921FB61F9211248F93A7
:103780009F93AF93BF938091700390917103A09129
:103790007203B09173030196A11DB11D8093700354
:1037A00090937103A0937203B0937303BF91AF9191
:1037B0009F918F911F901FBE1F9018959C014FB72E
:1037C000F8948091700390917103A0917203B0916D
:1037D00073034FBF821B930B08952FB7F89480910A
:1037E000700390917103A0917203B09173032FBF86
:1037F00008950F931F93CF93DF93C62FD42F022FDB
:10380000FC0185818823A9F06093C7030E94ED1B0A
:103810009093C6038093C503C77081E001C0880FF1
:10382000CA95EAF70E942015DF91CF911F910F9161
:1038300008958091C703681332C08091C5039091A9
:10384000C6030E94DE1B8436910548F510E21D0F69
:10385000CD17B9F080E28C0F883040F4C77081E05A
:1038600001C0880FCA95EAF70E941915183048F46C
:1038700081E09D2F977001C0880F9A95EAF70E940A
:103880002015802F0E94B215183070F6D77081E095
:1038900001C0880FDA95EAF70E941915C5CFC770E5
:1038A00081E001C0880FCA95EAF7F6CF2F923F92C8
:1038B0005F926F927F928F929F92AF92BF92CF92C0
:1038C000DF92EF92FF920F931F93CF93DF9380913C
:1038D0006803882309F481C080916603909167038F
:1038E0000E94DE1BC29708F458C00E94ED1B909303
:1038F00067038093660380E00E94C1060E949B0FCD
:10390000882309F484C060E08AE19AE00E945F168F
:10391000809136030E94B90C882341F0813031F147
:1039200060E08AE09AE00E945F1605C060E084E1F2
:103930009AE00E94A41660E087E09AE00E945F1679
:1039400060E081E09AE00E94A416809135030E9415
:10395000B90C823009F453C068F0833009F453C0C5
:1039600060E089EE99E00E94A41609C060E08EE054
:103970009AE0DFCF60E08BEF99E00E945F1660E095
:1039800086EE99E00E945F160E94C00F81FB6627B9
:1039900060F980EE99E00E94A41680915F039091F7
:1039A0006003892B09F0EEC0809165038823A9F09C
:1039B0000E946208009161031091620320916303E9
:1039C00030916403601B710B820B930B6F3F7F4F31
:1039D0008F4F9F4710F40E94D416DF91CF911F9113
:1039E0000F91FF90EF90DF90CF90BF90AF909F909E
:1039F0008F907F906F905F903F902F90089560E040
:103A000085EF99E0BACF60E08FEE99E0B6CF83E022
:103A10000E94C10660E083EA9AE00E94A41687E053
:103A20000E94C1068091C8039091C9038A5C9340AB
:103A30009C0120583F4F2130324008F486C020E0DE
:103A400032E0281B390B40915F0350916003EDE198
:103A5000FAE0280F391FC1E0D0E08217930708F47D
:103A600077C05093600340935F038DE00E94C106CE
:103A700060E08DE99AE00E945F16C0903703809164
:103A80004C018C1105C080913C03803209F44AC07E
:103A9000C0924C0180E280933C03D12CF12CE12CAC
:103AA00010923B03C701B6012AE030E040E050E04D
:103AB0000E94B735605D603331F0C114D104E10478
:103AC000F10409F460E260933A0360E2BAE0CB16D5
:103AD000D104E104F10490F05AE0852E912CA12C40
:103AE000B12CC701B601A50194010E94B735CA01E6
:103AF000B901A50194010E94B735605D6093390357
:103B000020E2C4E6CC16D104E104F10448F0C70178
:103B1000B60124E630E040E050E00E94B735205D79
:103B200020933803C8E3D3E009900020E9F72197F8
:103B300008E313E00C171D0708F02FCF60E0F80131
:103B400081918F010E94CE15F5CF20E830E07BCF28
:103B50006491DC01A653BC4F7C91671781F06C9394
:103B6000BC01A5E076956795AA95E1F7DE0102C054
:103B7000AA0FBB1F6A95E2F7BD014A2B572B01968E
:103B800031966BCF80916803882309F40DCF809123
:103B90005E03811109CF0E94EF1620915F033091DF
:103BA00060032115310509F4FFCE80E041E050E0CB
:103BB000082F10E01A01082E02C0220C331C0A94B0
:103BC000E2F7B10162237323672B11F48F5FF0CF0B
:103BD00090915D0390FF95C0880F880F880F8093A8
:103BE0004F0110925201895F8093500183E08093CE
:103BF000530124E630E047E050E06DE471E088E7EF
:103C00000E943633892B09F0CFCEA80125E0440F5E
:103C1000551F2A95E1F780915D0380FF84C0EDE395
:103C2000F3E080E2DF011D928A95E9F7A8ECB1E0AC
:103C300004EC11E08CECC82E81E0D82E97E0592ED0
:103C4000772473948D91E80129918E01240F352FEB
:103C5000311D26533C4FE82FF0E0E35CFC4F90E031
:103C600080E0652C681A872C082E01C0880C0A9405
:103C7000EAF77901A12CE701B9907E01B820662D01
:103C80006A196770962E062E000C770BDB2D01C08B
:103C9000DD0F9A94EAF7719561957109677077273E
:103CA00001C0B6946A95EAF7BD2A6081962E9B28DA
:103CB0009082A39468E0A612DECF019631968830F8
:103CC000910579F6CA16DB0609F0BCCF04E610E0D0
:103CD00020E230E04DE353E060E488E70E94573390
:103CE000892B09F061CEE101C095D09580915F03E9
:103CF00090916003C823D923D0936003C0935F03DE
:103D000053CE8295880F807680934F019801369527
:103D100027953695279520935201815E8093500117
:103D20002093530166CF46535C4F04E610E020E237
:103D300030E0D2CF0E949B0F882319F00E94ED1B28
:103D400008950E94D10FCB010895609127036695D5
:103D500070E041E050E084E491E00E946636892BF7
:103D600019F481E08093DB020E949A1E9093D502A1
:103D70008093D4028091DC0284608093DC020895F9
:103D80009091270390FF39C09170811137C09260E4
:103D9000909327038091DC0281608093DC0266238C
:103DA00091F02091270330912803409129035091ED
:103DB0002A0360912B0370912C0380912D03909125
:103DC0002E030E94171760912703669570E041E06B
:103DD00050E084E491E00E946636892BB1F00E94A5
:103DE000EE0881E08093D70220E040912A036091A1
:103DF0002903809128030E943D170895893110F00E
:103E00009063C6CF880F982BC3CF0E94A51EE9CF21
:103E1000809127038695815009F488E161E00E9432
:103E2000C01E08958091270386958F5F893108F021
:103E300081E061E00E94C01E08959091270390FFE9
:103E400008C09695981728F0961718F40E94121F2C
:103E5000089561E00E94C01E0895A8E0B0E0E3E389
:103E6000FFE10C9454358C01DC0114968C9114976D
:103E7000882309F4F4C021E04C9111965C911197CC
:103E800012966C91129713967C91139715969C91AC
:103E90000E94B4117C01F8012581222309F47DC11F
:103EA0009A9581159F4408F089C0C7019927AC01F4
:103EB000445051094432510518F08B970E9780F405
:103EC000E0918702F0E0EE0FFF1FE457FD4F808185
:103ED00091818F3FAFE79A0719F001969183808314
:103EE000C70197578038910508F047C6BFE0BE1557
:103EF00008F4A5C08FEF93E00E94893681119FC01E
:103F000069E2A62E62E0B62EE11062C0FE01339691
:103F100086E0DF011D928A95E9F75AE0452E75018A
:103F2000BFEFEB1AFB0AC5010E94893689831A820A
:103F3000882309F484C0813009F095C06501E2E06E
:103F4000CE0ED11CC7010E9489368A83882309F4CA
:103F500076C09FEF980F933008F048C0F3E0AF0EA3
:103F6000B11CC6010E9489368B83882309F467C07F
:103F70001C82DE0111967D01F7012081222379F256
:103F8000213009F0B3C08181813009F06EC0670132
:103F9000F2E0CF0ED11CD70112968C910E94B2157F
:103FA0007601EFEFEE1AFE0A8BE0815029F3AFE9BC
:103FB000BFE01197F1F700C00000F7CF90E080E07C
:103FC0003FEFE316F10411F008F071CFC7016FCF96
:103FD000A114E4E0BE0699F1C5010E948936811161
:103FE00001C0EA94FFEFAF1ABF0A8ECF56018430AA
:103FF00009F0BFCF42E0E42EF12C56012FEFA21AB8
:10400000B20AC6010E948936E1E0F0E0EC0FFD1F24
:10401000EE0DFF1D8083882391F08C3741F4E2E0A0
:10402000F0E0EC0FFD1FEE0DFF1D1082A2CF3FEF61
:10403000E31AF30A650187E0E816F104F1F68091CE
:104040001602877061F0D80115968C91882339F09B
:104050008091740282FF03C082E00E94930C289634
:10406000E0E10C947035570184CF823041F4670150
:10407000B2E0CB0ED11C82810E945F1591CF8330BC
:1040800051F46701F2E0CF0ED11CD70112968C914A
:104090000E942A1585CF843021F0BFEFEB1AFB0A6E
:1040A00080CF2281C70102967C0190E080E0A701C9
:1040B0004F5F5F4F2053330B2A30310550F001978B
:1040C00008F46FCFEFE9FFE03197F1F700C000008F
:1040D000F6CF489EB001499E700D1124C901860F8C
:1040E000971FD70111962C917A01E1CFE22FF0E0D2
:1040F000E651FE4F5490822F86958695869590E0E6
:10410000FC01E652FE4F64902770712C022E02C013
:10411000759467940A94E2F731E063227724FC01F6
:10412000E653FE4F8490912C022E02C09594879402
:104130000A94E2F7A1E08A229924FC01E654FE4F9A
:10414000C490D12C02C0D594C7942A95E2F7B1E06F
:10415000CB22DD246114710419F081EE0E945F15F9
:104160008114910419F086EE0E945F15852D0E943E
:10417000B2158114910419F086EE0E942A1561147B
:10418000710419F081EE0E942A15C114D10409F4BA
:1041900008CF8CE20E94B21504CFFC01E851FC4725
:1041A000E730F10508F0D0C4E351F94C0C94F83530
:1041B00026E241EE61EEC8010E94F91B40CF27E2E2
:1041C00045EE65EEF8CF26E241EE60EEF4CF27E251
:1041D00045EE64EEF0CF26E241EE62EEECCF27E250
:1041E00045EE66EEE8CF28E241E0EBCF8091730226
:1041F00081608093730295C080917402886080937F
:1042000074028FC0809173028260F3CF8091730239
:104210008460EFCF809173028860EBCF809174024D
:104220008160EDCF809174028260E9CF809173024A
:104230008061DFCF809173028062DBCF8091730257
:104240008064D7CF0E942F12809173028068D1CFF3
:10425000809173028C60CDCF809174028360CFCF48
:10426000809173028E7FC5CF80917402877FC7CF04
:10427000809173028D7FBDCF809173028B7FB9CF08
:1042800080917302877FB5CF809174028E7FB7CF04
:10429000809174028D7FB3CF809173028F7EA9CFFE
:1042A000809173028F7DA5CF809173028F7BA1CF08
:1042B0000E942F12809173028F779BCF809173029F
:1042C000837F97CF809174028C7F99CF8091730206
:1042D00082FB992790F921E0922790FB82F990FBCD
:1042E00083F987CF80917402982F909591708E7F7B
:1042F000892B90FB81F983CF90917302892F8F7B5B
:1043000096FF806476CF0E942F1290917302892FBE
:1043100097FB87F980586DCF61E08EE090E00E94B6
:10432000AD36609173027091740284E090E00E9457
:10433000CB360E942F1283CE60E0EFCF90917302B4
:10434000892F8F7E94FF806154CF90917302892FC3
:104350008E7F90FF81604DCF90917402892F877F6F
:1043600093FF88604CCF85E3FAC32111B3C38091DA
:1043700021028272F701E052F847E531F10508F0B9
:1043800076C0EC50F94C0C94F8358091270380FFEF
:104390001EC0282F2E7F20932703309128034091A1
:1043A000290350912A0360912B0370912C03809173
:1043B0002D0390912E030E9417170E94EE08809102
:1043C000DC0281608093DC020E94200D38CE816087
:1043D0008093270361E086950E94C01E30CE48E09E
:1043E0005FE162E17FE10E94E80829CE42E15FE1FE
:1043F00068E07FE1F8CF41ED57E16BED77E1F3CF76
:104400004BED57E161ED77E1EECF47EB57E164EC1F
:1044100077E1E9CF44EC57E167EB77E1E4CF4DE991
:1044200057E16AEA77E1DFCF4AEA57E16DE977E1E0
:10443000DACF45EE57E16FEF77E1D5CF4FEF57E198
:1044400065EE77E1D0CF61E081E0C6CF65E082E044
:104450000E941D1FF4CD68E086E0FACF6EE089E08F
:10446000F7CF64E18FE0F4CF67E185E1F1CFB7E703
:10447000EB16BCE7FB0609F466C0E8E7EE16ECE7CE
:10448000FE0609F464C0F8018581E080F18088238C
:1044900009F491C0C7010E945511D82E682FC70199
:1044A0000E94490CB7018D2D0E9436110E949F0A6F
:1044B000F82ED92EA82ED8011596EC9015971696A1
:1044C000BC90B2943FE0B32280911602877019F13C
:1044D0009E2CEE2009F1892F807F803479F09F2D6A
:1044E00020E22F0D2830B8F0B11004C02D2D207E11
:1044F000203289F0803611F4963F69F08091740281
:1045000082FF09C082E00E94930C8091160287709E
:10451000992493948111912C8D2C82942FE08222E6
:10452000BBE0B81508F4B0C0E82DF0E0E75FF84C48
:104530000C94F83581E00E94AA0C43E062E081E02F
:104540000E94660C7CCD81E00E94860CF6CF82E052
:10455000FBCF9BE5E9169CE7F90659F1ACE5EA16B5
:10456000ACE7FA06E1F0BAE5EB16BCE7FB0609F0AA
:104570008ACF81E01BC00E942F12EFEFF4E32CE002
:10458000E150F0402040E1F700C000000E945108D7
:104590006FEF7FEF90E080E00E94CB36BBC280914E
:1045A000740282FB882780F991E089270E943618DF
:1045B0006ACF80E0FBCFC7010E94030CD82E72CFD8
:1045C000ED2DEF70CE2E8D2D807F19F0C29490EFDF
:1045D000C922EE20B9F0CC2069F080E28F0D88303E
:1045E00010F0A11009C080912102C82AC0922102B6
:1045F0000E94F2118F2D46C080912002C82AC092DD
:104600002002F6CF8F2D0E942A15CC20E9F180E2FE
:104610008F0D883010F0A11004C08C2D0E94CB0BA0
:1046200006C0C09480912002C822C09220020E943D
:10463000F2112AC0FD2DFF70CF2E8D2D807F80328C
:1046400019F0C29480EFC822AA2059F021E0A216E6
:1046500009F48DC0EE2009F499C0BB2009F45BC0B9
:10466000C9CF8091740282FD52C0EE2009F448C087
:10467000CC2039F080912102C82AC09221020E94E8
:10468000F21180E00E945F15282D2850330B243052
:10469000310510F40E94C00FEE2079F08D2D807F3F
:1046A000803619F436EFA31641F08091F101823083
:1046B00009F008C283E08093F1019920B1F0809164
:1046C000160280FD12C0D80115961C92869586951B
:1046D00086950E94AA0CC8010E942D1F8091160287
:1046E0008695869586950E94860C20E0F80140818B
:1046F000518162817381848195810E94B411AFCC14
:1047000080E00E942A15CC2009F4BECF86CFEE208F
:10471000A1F0B11004C08C2D0E942015B5CF31E05E
:10472000B312B2CF80911F029C2D9823C91609F4B1
:10473000ABCFC82AC0921F02A7CFB110A5CF8C2D36
:104740000E94191590911F028C2D892329F08C2D20
:104750008095892380931F028091F0019C2D9823DE
:1047600009F492CFC094C822C092F0018DCFEE2000
:1047700029F085E08B1508F487CFCDCF94E09B1509
:1047800008F482CF8C2D0E9419157ECFBB20D1F367
:10479000A9E3AA1220C1BFEFE7EEF3E0B150E04079
:1047A000F040E1F700C000008F2D0E942A156CCF69
:1047B0008D2D86958695837069F0813009F064CFE0
:1047C0008F2D9D2D9370E11002C080E090E00E943B
:1047D00088085ACF8F2D9D2D9370E11002C080E084
:1047E00090E00E94AD0850CF8D2D837091F5E110BF
:1047F0004BCF4F2D429546954770440F440F8F2D58
:104800008F70042E01C0880F0A94EAF72F2D2071B3
:10481000F4FE07C02FE030E001C0220F4A95EAF70E
:1048200020953D2D369536953370323069F050F431
:1048300040913603313029F0822B84230E94B60C3C
:1048400023CF842B822BFACF282B8091360382270B
:10485000F5CF8695EE2011F08D2D8170882309F417
:1048600013CF4F2D429546954770440F440F8F2D1F
:104870008F70042E01C0880F0A94EAF72F2D207143
:10488000F4FE07C02FE030E001C0220F4A95EAF79E
:1048900020953D2D369536953370323069F050F4C1
:1048A00040913503313029F0822B84230E94630C20
:1048B000EBCE842B822BFACF282B809135038227D5
:1048C000F5CF9D2D9F70C92EEE2029F0892F0E94D3
:1048D000AA0C8F2D21CF8F2D0E9419158C2D0E948F
:1048E000860CD2CE8F2DA2EFAA16B1F1AA1570F0C8
:1048F000B0EFAB16D1F0E1EFAE1691F0EE2009F477
:104900005EC0B11077CE8D2D8F712AC0F3EFAF1638
:1049100051F124EFA212F2CF8091740282FD2FC0D8
:104920008D2D8F71EE20D9F21BC0EE2081F034E086
:104930003B1508F4A9CE2D2D2F7181E090E001C028
:10494000880F2A95EAF7909135038927AFCF85E044
:104950008B1508F499CEEFCF8D2D8F71E110BFCF5D
:104960000E94AA0C91CE80E0EE2009F49FCF81E056
:104970009D2D9F7101C0880F9A95EAF797CFEE2081
:1049800099F09D2D9F71F92E892F0E94AA0C80917C
:10499000740282FF07C0A8E0FA9EC0011124836060
:1049A000809316028F2DDCCF81E00E94930CB1E042
:1049B000BB1508F069CE82E00E94930C65CEBB2047
:1049C00079F0893341F4EFEFF7EE23E0E150F04066
:1049D0002040E1F7E7CE8FE39CE90197F1F7E2CEC3
:1049E0008D2D8F717CCFE0E1EF0DE73008F03FC0F7
:1049F000F0E0EB5EF84C0C94F835EE2009F444CE70
:104A000080910E0291E0892780930E023DCEE092C4
:104A10000E023ACE81E08E25F7CFE11035CE81E04F
:104A2000F3CFE11031CE10920E022ECEEE2021F007
:104A300082E08093F101F3CF8091F101823021F483
:104A400081E08093F10120CE833009F01DCE1092D9
:104A5000F101E9CFEE2039F080910D02882381F237
:104A600010920D0211CE94E09B1550F60DCE809160
:104A70000D02BB20D9F0882341F080910E0291E015
:104A8000892780930E0210920D02E110B3CDAFE39F
:104A9000BCE91197F1F700C000008F2D0E942A1584
:104AA00087E0F80111928A95E9F7EECD882309F4A1
:104AB000EBCDE110E9CD80910E0291E08927809342
:104AC0000E02CECF813009F0F8CD1092F101109294
:104AD0000E02F3CDF7E7EF16FCE7FF0609F42ACD47
:104AE00082E028E7E2162CE7F20609F424CDF3E091
:104AF000EF16FCE7FF0609F44BCD08F02ACDE114D0
:104B00003CE7F30609F437CD81E0E8168CE7F806B8
:104B100009F0B9CC0E94031536E1E3163CE7F30631
:104B200009F023CC809121028A7A91E009F490E087
:104B30009093EF0169E2811165E38EED91E00E94AF
:104B40006E080E94F2117BCA86E1E8168CE7F8062F
:104B500009F00DCC8091EF01811105CC89E2E0EEE6
:104B6000F1E026EE31E09191891303C0DF01119746
:104B70001C922E173F07B9F7E4CFF701E851FC4725
:104B8000E730F10508F410CB1092C703C701905726
:104B9000839708F0C1CF84E090E00E94973690930D
:104BA000740280937302F701E150F047E232F1059D
:104BB00008F01CCBE45EF84C0C94F835CF93DF93EF
:104BC00080911502807F09F04DC0809114028823E6
:104BD00009F448C0E091C40350918B03C0911002C6
:104BE000D0910F02609111027091120247E05E179E
:104BF000C9F18E2F90E0E49FF0011124E457FC4F9F
:104C00002481222391F1489FF001499FF00D112446
:104C1000DF01A457BC4F11962C9111972C1325C07E
:104C20002C912D1322C015962C91159721111DC082
:104C300012962D913C91261B370B24363105A8F492
:104C4000809115028F70806180931502EE56FC4FA3
:104C500080818F70806180838FE092E00E942D1FA1
:104C60000E94D20BDF91CF910895FC013196E7703D
:104C7000BECFA4E1B0E0EFE3F6E20C9458358C012E
:104C800086E0F801DE011F9601900D928A95E1F70A
:104C9000F8018481E5809FE0A92E92E0B92E9091E1
:104CA0001302911135C0882381F1EE2059F1C8011A
:104CB0000E949111F82E882329F187E0F801D5018F
:104CC00001900D928A95E1F710911302113099F439
:104CD00080910F02909110020E94841192959F7012
:104CE000963049F4863F39F080910E0281278093F7
:104CF0000E0210930D020E94DE258F2D6496ECE0CB
:104D00000C947435C8010E942D1FFF24F394F5CF35
:104D1000D080C18082809380F09014022091110293
:104D200030911202A401421B530BFF2009F4D9C099
:104D30004436510508F092C08823F9F29091100290
:104D400080911502282F207F09F056C0C91214C087
:104D500090910F02D91210C0E11048C08F7080618D
:104D6000809315028FE092E00E942D1F8091150222
:104D7000F8018683F12CC1CFE11038C06C2D8D2D48
:104D80000E94D3066C2D8D2D0E94D306E82E811132
:104D9000F1CFDF86C88A8F8598890E948411292FD8
:104DA00022952F70243058F49F70223088F0992378
:104DB00099F0F8019681907F79F4FE2C9ECF2A5FBE
:104DC0002F70223068F0C8010E942D1FEF2CF5CF04
:104DD000992311F0882389F3805E883070F3F3CF34
:104DE000803F58F3815F833070F7E7CF80911502E1
:104DF000816080931502BECFC91207C090910F0247
:104E0000D91203C0EE2009F48DC0C8010E9491118F
:104E1000882309F477CFEE2009F474CF809115022E
:104E2000803288F020910F02309110023987288754
:104E30009B868A86909113029C871D868E87CE0161
:104E400008960E942D1F87E0F801AFE0B2E00190C4
:104E50000D928A95E1F70E94DE2557CF90911502B9
:104E6000292F207F51F48FE092E00E942D1F87E0D0
:104E7000F50111928A95E9F77DCF882309F43DCF9A
:104E8000809110028C1110C080910F02D8120CC0BA
:104E9000E1100AC09683C8010E942D1F87E0F5012A
:104EA00011928A95E9F729CFC8010E9491118823B0
:104EB00009F428CFEE2009F425CF80911502803225
:104EC00010F220910F02309110023A8329839C82C4
:104ED0008B82909113029D831E828F83CE01019657
:104EE000B0CF44365105D0F6882309F40ECFFE2CFE
:104EF000EE2009F407CF809110028C1120C0809120
:104F00000F02D8121CC08091150280FD0FC0982F8F
:104F1000907F61F08683903F31F0982F907F905F73
:104F20008F70892B8683C8010E942D1F87E0F801AE
:104F3000AFE0B2E001900D928A95E1F7DECEC801B4
:104F40000E94911181117FCF809115028160809321
:104F50001502C8010E942D1FD0CEABE1B0E0E3EBFB
:104F6000F7E20C945E35688F798F8A8F9B8F8A0168
:104F7000F82EE92E911110922002FF20B1F141E0AC
:104F8000F41273C01A3088F5063078F5E02FF0E09F
:104F900056E0159FE00DF11D11249F012770332766
:104FA00081E090E001C0880F2A95EAF7DF0143E035
:104FB000B695A7954A95E1F7A951BE4F2C9130912E
:104FC0000E02E11002C0322F3823332309F478C0D7
:104FD000AF01440F551FFA01ED5BFE4F1491FA012A
:104FE000EE5BFE4F0491822B8C931D8A0E8B1F8BE0
:104FF00086E0FE017696DE011F9601900D928A955D
:10500000E1F7FF2041F021E0A80169897A898F2D1D
:105010009E2D0E94B4110F87188BFB8AEC8A87E0C3
:10502000FE013F96DE01189601900D928A95E1F7F8
:10503000CE0108960E94392681110CC087E0FE013E
:105040003896DE01119601900D928A95E1F78C85D4
:10505000811139C017E08091C40390918B038913AB
:105060005FC06B96E6E00C947A358EEF8F0D823040
:1050700008F0BBCF84E0810F823008F0B6CFE02F7C
:10508000F0E0902F977021E030E0D90102C0AA0F24
:10509000BB1F9A95E2F7CD01DF0193E0B695A79586
:1050A0009A95E1F7AA51BE4F2C9130910E02E11072
:1050B00002C0322F3823332319F0E05CFE4F92CF29
:1050C0008095822391CF20918B0330E0C901019616
:1050D000877099274091C4034817190699F097E003
:1050E000929FD001939FB00D1124A457BC4FFE0195
:1050F000319601900D929A95E1F780938B030E946F
:10510000D20BA8CF0E942F1210928B031092C403CF
:1051100087E0EFE0F2E0DF011D928A95E9F79ACF90
:10512000819FC001112484579C4F0E9439268823F7
:1051300009F497CF8091C40390E001968770992776
:105140008093C40388CFACE0B0E0E9EAF8E20C94C5
:105150006035182F062F6623B9F10E94ED1B1F83BF
:105160002DEF28879A87898782E08B8781E08C875B
:105170004F81588569857A858B859C850E94AD27EE
:105180008FE39CE90197F1F700C00000002329F1AB
:105190000E94ED1B19832DEF2A839C838B8382E071
:1051A0008D831E8249815A816B817C818D819E8194
:1051B0000E94AD278FE39CE90197F1F700C0000042
:1051C0002C96E4E00C947C350E94ED1B1F832CEFA1
:1051D00028879A87898783E0C8CF0E94ED1B1983AF
:1051E0002CEF2A839C838B8383E0DACFA1E0B0E0AD
:1051F000ECEFF8E20C945B35EE24E394F12C03E43D
:1052000012E09E012F5F3F4F48E352E063E082E0EF
:105210000E945B19C82E882339F100E080E01DC090
:10522000D0906602D00E2D2D30E0A9014F535D4F76
:105230007A01E1E0F0E0EC0FFD1FE00FF11D1081BD
:10524000FA019081191BB12E1B149CF0912F17FDB0
:1052500090E0191B111118C00F5F9091650209179A
:10526000F8F281110E94EB0F8C2D2196E9E00C944D
:105270007735BA94F70180818F5F808360E08D2D50
:105280000E94A3288C2DE0CF1F5FF7018081815001
:10529000808361E08D2D0E94A3288C2DDBCFA5E1BA
:1052A000B0E0E5E5F9E20C9457358E01045F1F4F3D
:1052B0008AE0D8011D928A95E9F780E9C82E81E03D
:1052C000D82EF12CE12CAA24A394B12C2BE9822E08
:1052D00021E0922EF60181916F018F3F09F442C0C7
:1052E000F894E82FE295EF70F0E021A18F70A5010E
:1052F00002C0440F551F8A95E2F7CA01922F982BDE
:1053000091A392A18095892382A3789400C0E5E9B6
:10531000F1E0712C31E021912F3F09F46BC0A22FF5
:10532000A295AF70B0E090968C9190E02F7002C083
:10533000959587952A95E2F780FD5CC0832F782AA2
:10534000330F8E169F0639F7F601319780818F3F14
:1053500011F00E94A30950EA5A95F1F7F801EE0DF9
:10536000FF1D70828FEFE81AF80A95E0E916F10444
:1053700009F0B0CF4AE050E0B80187E692E00E9421
:105380007336009741F02AE0F801A7E6B2E00190F9
:105390000D922A95E1F700917202892B69F181E063
:1053A000809326020E94ED1B909325028093240295
:1053B00080912402909125020E94DE1B059700F146
:1053C00010E006531D4F45E050E067E672E0C8016B
:1053D0000E947336D12C892B51F085E0E7E6F2E08C
:1053E000D80101900D928A95E1F7DD24D3941092B3
:1053F000260207C080E0A3CF809126028111D8CF7A
:10540000D12C0E949B0FC82EE0917202DE011196F2
:105410007D01882309F483C085E01D928A95E9F710
:105420000E2F10E006531D4F809160028A3008F065
:1054300044C040E05AE1B701C8010E94680F8823C8
:1054400009F45CC046EF58E2B701C8010E94680F3A
:10545000882309F453C049E558E1B701C8010E9407
:10546000680F882309F44AC04DE259E1B701C80129
:105470000E94680F882309F441C040E159E1B70157
:10548000C8010E94680F8823C9F1109260028091C0
:10549000710290E045E050E0B70186539D4F0E94B5
:1054A000733621E020932D02892BE1F4C12C8C2D41
:1054B0008D296596EDE00C947335809127029091CB
:1054C00028020E94DE1B843F914008F0B2CF8091F9
:1054D0002D02882359F385E0F70111928A95E9F7A7
:1054E00010922D02A0917102B0E0A653BD4F85E04D
:1054F000F70101900D928A95E1F7D9CF8091600272
:105500008F3F31F08F5F809360028A3008F4BFCF05
:105510000E94ED1B9093280280932702D8CFF0E0E1
:10552000E653FD4F85E0ADE3B2E001900D928A9520
:10553000E1F765E070E08DE392E00E94D20880938D
:105540003C024091C60250E06091C50270E06F538A
:105550007D4FC7010E94803689818093430261E0BC
:1055600070E0C7010E94D2088093420280904402FA
:1055700090904502A0904602B09047028091290287
:1055800090912A02A0912B02B0912C0288169906C4
:10559000AA06BB06D1F08092290290922A02A0921C
:1055A0002B02B0922C020E949B0F81110EC00E9410
:1055B0006208861A970AA80AB90A80926102909234
:1055C0006202A0926302B09264028BE0E8E4F2E02F
:1055D000D70101900D928A95E1F780914802869556
:1055E000F0904902E0904A02B0904B0200915102C3
:1055F0001091520210925202112301F110FF0BC0C0
:10560000998190FF20C09091270391609093270388
:1056100060E00E94C01E11FF06C020E04B2D6E2DE1
:105620008F2D0E943D1712FF04C0002379F00E94C5
:10563000A51E13FF03C081E08093D702809153021F
:105640008093370334CF0E94590FE5CF0E94EE08B4
:10565000F0CFA6E0B0E0EFE2FBE20C9460350E94F0
:10566000ED1B8C01809122029091230280179107FB
:1056700081F019821A820E94ED1B682F49815A819C
:10568000792F80E090E00E94AD27109323020093D1
:1056900022022696E4E00C947C351F921FB61F92DE
:1056A00011248F939F93AF93BF9380916F038111C8
:1056B00013C08091700390917103A0917203B09117
:1056C00073034196A11DB11D8093700390937103E4
:1056D000A0937203B0937303BF91AF919F918F9189
:1056E0001F901FBE1F901895CDB7DEB7A7970FB6B6
:1056F000F894DEBF0FBECDBF85B7806885BF85B784
:10570000806885BF84B7877F84BF0FB6F894A8955B
:1057100080916000886180936000109260000FBEED
:1057200080E890E00FB6F894809361009093610058
:105730000FBE81EA99E09093DD018093DC010E9425
:10574000F2060E9493078091E20084608093E20059
:105750007894809181038823A1F01091E9001F7053
:105760009091EC00892F817090FD80E8182B1092A9
:10577000E9008091E80083FD0E9445121F7010939C
:10578000E90082E084BD93E095BD9AEF97BD8093D8
:105790006E001092610210926202109263021092E7
:1057A00064020E94D911811102C00E94BE100E94A1
:1057B0009B0F8093380180913801882309F464C0DD
:1057C000109247018CE0809348010E949B0F811149
:1057D0000E94DC339091380181E098279093C502B4
:1057E000282F291B20936602909138018093C602CE
:1057F000909138018093650280913801811106C033
:1058000084EF8093430185EF8093420180914301AF
:10581000E82FE295EF70F0E061A18F7021E030E0B9
:10582000A90101C0440F8A95EAF7942F9095962319
:1058300091A382A1842B82A390914201E92FE2954A
:10584000EF70F0E041A19F70B90102C0660F771FB1
:105850009A95E2F7CB01962F9095942391A392A16C
:10586000892B82A38FE891E00197F1F700C0000037
:105870001091C60267EC72E043E451E082E4E82E46
:1058800081E0F82EFB012CC08CE0809347019BCF78
:10589000DA012D91AD01822F82958F7090E0DC01AD
:1058A00090968C9190E02F7002C0959587952A95DF
:1058B000E2F78170D7019D917D01292F22952F70EC
:1058C00030E0D90190962C9130E09F7002C0359560
:1058D00027959A95E2F790E020FD92E0892B81933D
:1058E0008E2F861B8117A0F280913801809138019C
:1058F00095E0811190E09093720285E0891B80937E
:10590000710200E911E045E9E42E41E0F42EF801CE
:1059100081918F018F3F11F00E94A309E016F106DB
:10592000B1F705E911E03BE9E32E31E0F32ED801B0
:105930008D918D018F3F11F00E94A309E016F106B1
:10594000B1F78AE0EAECF2E0DF01282F1D922A95F8
:10595000E9F7E7E6F2E0DF011D928A95E9F70E9498
:105960004D18811102C00E942C1A82E090E00E9422
:1059700089368093760284E090E00E949736909377
:105980007402809373020E944F29BFEFE6E7F1E0B3
:10599000B150E040F040E1F700C000000E944F2904
:1059A0008091CA0280FF08C06FEF7FEF90E080E037
:1059B0000E94CB360E94510883E090E00E94893615
:1059C0000E94B60C83E080935D0380E28093CA0559
:1059D0000E9496326BE070E081E892E00E94AA1685
:1059E0008823E9F180915D0365E070E081FD1EC1CF
:1059F0008CE792E00E94AA16882389F16DE070E09E
:105A00008AE692E00E94AA16882349F10E94620861
:105A100060527C468B4F9F4F60936103709362038B
:105A20008093630390936403EAECF3E080E092E0F8
:105A3000DF019C011D9221503040E1F7F093C90332
:105A4000E093C8038FEF9FEF9093600380935F0311
:105A500081E0809368038093650310925E038091D8
:105A60007502811178C00E944D18811104C00E94F6
:105A70002C1A0E94191888E090E00E9491364B0180
:105A80005C0184E290E00E948936282F30E040E0FB
:105A900050E060E070E080E090E000E20E941836A4
:105AA000282939294A295B29209327033093280381
:105AB0004093290350932A0360932B0370932C0384
:105AC00080932D0390932E038091DC02836080935A
:105AD000DC022E7F89F50E94191888E090E00E9470
