:100000000C94A8060C94C5060C94C5060C944734B1
:100010000C94C5060C94C5060C94C5060C94C50634
:100020000C94C5060C94C5060C9487310C945F3271
:100030000C94491B0C94C5060C94C5060C94C5067B
:100040000C94C5060C94C5060C94C5060C94C50604
:100050000C94C5060C9463310C94C5060C94C5062B
:100060000C94C5060C94C5060C94C5060C94C506E4
:100070000C94C5060C94C5060C94C5060C94C506D4
:100080000C94C5060C94C5060C94C5060C94C506C4
:100090000C94C5060C94C5060C94C5060C94C506B4
:1000A0000C94C5060C94C5060C94C5060501098080
:1000B000A101850319012AB700150126B700950192
:1000C00075108100C0050C0901A101850419012AE0
:1000D000A002150126A002950175108100C00660DE
:1000E000FF0961A1010962150026FF00952075082E
:1000F00081020963150026FF00952075089102C052
:1001000005010906A101050719E029E715002501E8
:10011000950875018102950175088101050719008F
:1001200029FF150026FF00950675088100050819AE
:1001300001290515002501950575019102950175A7
:10014000039101C000AF00AE09025B00030100A0F3
:10015000FA09040000010301010009211101000155
:10016000224400070581030800010904010002037D
:10017000000000092111010001222200070582036D
:100180002000010705030320000109040200010308
:10019000000000092111010001223200070584033B
:1001A000200001120100020000000832FC87020159
:1001B00000010200010C0353006F0066006C006533
:1001C0000000001A034A006F0073006500660041DA
:1001D00000640061006D00630069006B00000004B2
:1001E00003090435001E001F002000210022002901
:1001F0000014001A000800150017002B0004001658
:1002000000070009000A00E1001D001B000600199C
:10021000000500E300E200E00022522800A80035BB
:1002200000270026002500240023002A00130012C6
:10023000000C0018001C00340033000F000E000DED
:10024000000B00E50038003700360010001100E711
:1002500000E600E40023522C00000035001E001FC1
:1002600000200021002200290014001A00090013B8
:10027000000A002B0004001500160017000700E11B
:10028000001D001B00060019000500E300E200E06D
:100290000001002800A800350027002600250024C2
:1002A0000023002A0033001C0018000F000D00344A
:1002B0000012000C00080011000B00E500380037A8
:1002C00000360010000E00E700E600E40001002CFC
:1002D00000000001003A003B003C003D003E0035BC
:1002E000001E001F0020002100220001001E021F2E
:1002F0000220022102220201002E002D002E022FD8
:10030000023002010001000100010001000100446F
:100310000043004200410040003F00450027002606
:100320000025002400230031022702260225022492
:10033000022302010031003302330030002F00019C
:1003400000010001000100010001000100010001A5
:1003500000010001000100010049004600650000A5
:100360000000000100E200E000E1000000390001AF
:10037000007A007B007C007D00000001000100018C
:100380000001000100010001000100010001000165
:100390000001002A0001000100520001004B002A68
:1003A000004C004F00510050004E000100000001C1
:1003B0000000000100000001000100010001000137
:1003C000000100A900AA004B004E0001000100013D
:1003D000000100237824782578267827782878214A
:1003E000782278000080C0E0F0F8FCFCFEFEFEFF02
:1003F0007F3F3F3F3F7FFFFEFEFEFC9C3870E0C02A
:10040000800000F0FEFFFFFFFFFFFFFFFFFFFFFF89
:10041000FCF8F0F0F8FCFFFF7F3F1F030000000333
:100420001FFEF00F7FFFFFFFFFFFFFFFFF0F070320
:10043000C3E1F1F1E1C1000000000000000000C0D4
:10044000F87F0F00000103070F1F3F3F7F7C70E024
:10045000E0C3C3C3C3C0E060607030381C0E070344
:100460000100004350534C4B000A0A00556E64656E
:1004700066005261697365004C6F77657200426176
:1004800073650A004C41594552000A0A004D6F64D9
:1004900000436C6D6B0A00517772740A000A0A00FF
:1004A00057504D3A2000534F464C450007087F08EF
:1004B00007003E5B4F5B3E003E6B4F6B3E001C3EB9
:1004C0007C3E1C00183C7E3C18001C577D571C00CD
:1004D0001C5E7F5E1C0000183C180000FFE7C3E7AD
:1004E000FF00001824180000FFE7DBE7FF0030489A
:1004F0003A060E00262979292600407F05050700C7
:10050000407F05253F005A3CE73C5A007F3E1C1CBB
:100510000800081C1C3E7F0014227F2214005F5F2D
:10052000005F5F0006097F017F00006689956A0011
:1005300060606060600094A2FFA2940008047E04E2
:10054000080010207E20100008082A1C0800081C43
:100550002A0808001E10101010000C1E0C1E0C00A3
:1005600030383E383000060E3E0E06000000000017
:10057000000000005F000000000700070000147F7B
:10058000147F1400242A7F2A1200231308646200B7
:10059000364956205000000807030000001C224185
:1005A00000000041221C00002A1C7F1C2A000808B1
:1005B0003E080800008070300000080808080800A5
:1005C0000000606000002010080402003E51494510
:1005D0003E0000427F4000007249494946002141E7
:1005E000494D33001814127F100027454545390046
:1005F0003C4A49493100412111090700364949491E
:100600003600464949291E00000014000000004041
:1006100034000000000814224100141414141400C3
:100620000041221408000201590906003E415D59AB
:100630004E007C1211127C007F49494936003E4130
:10064000414122007F4141413E007F4949494100EB
:100650007F09090901003E41415173007F080808E4
:100660007F0000417F4100002040413F01007F08A2
:10067000142241007F40404040007F021C027F0066
:100680007F0408107F003E4141413E007F09090977
:1006900006003E4151215E007F0919294600264986
:1006A0004949320003017F0103003F4040403F00C1
:1006B0001F2040201F003F4038403F0063140814B3
:1006C00063000304780403006159494D4300007F2F
:1006D00041414100020408102000004141417F00D7
:1006E00004020102040040404040400000030708AB
:1006F00000002054547840007F2844443800384497
:1007000044442800384444287F0038545454180086
:1007100000087E09020018A4A49C78007F08040445
:10072000780000447D4000002040403D00007F10E4
:100730002844000000417F4000007C0478047800D9
:100740007C0804047800384444443800FC1824240D
:10075000180018242418FC007C08040408004854DD
:100760005454240004043F4424003C4040207C00B6
:100770001C2040201C003C4030403C0044281028F5
:1007800044004C9090907C004464544C4400000819
:1007900036410000000077000000004136080000EC
:1007A0000201020402003C2623263C000000000057
:1007B0000000404040F0F8F8FF38FFF8F83FF8F844
:1007C000FF38FFF8F8F040404000000000000080D3
:1007D000C0C0C0800000C0C08000000080C0C00059
:1007E000C0C0000080C0C00000000000C0C0C0C089
:1007F000C000C0C0000000000000000000000000B9
:1008000000000000000000000000000000000000E8
:1008100000000000000000000000000000000000D8
:100820000000000000000000000000C0F0F8FC3EE6
:100830001E06010000007F4141417F007F41414190
:100840007F000080C0E07E5B4F5BFEC00000C00008
:10085000DCD7DEDEDED7DC00C000000000000000D8
:100860000000000000000000000000000000000088
:100870000000494949FFFFFFFFE0DFBFBF00BFBFE6
:10088000DFE0FFFFFFFF49494900000000001F3F74
:100890006060E0BF1F007F7F071E381E077F7F005C
:1008A0007F7F0E1F3B716000000000007F7F0C0CFB
:1008B0000C007E7E007F7E0303007F7E03037E7E2E
:1008C00003037F7E000F3E703C063C703E0F0032FB
:1008D0007B49493F7E007F7E0303001E3F69696FAD
:1008E0002600000000000000000000030F1F3F3C36
:1008F0007870600000007F4141417F007F414141AD
:100900007F00307B7F7830202030787F3B000300F1
:100910000F7F0F0F0F7F0F0003000000000000008B
:1009200000000000000000000000000000000000C7
:100930000000010101070F0F7F0F7F0F0F7E0F0FC8
:100940007F0F7F0F0F070101010000000000000072
:100950000000000101000000000000000000000095
:100960000000000000000000000000000000000087
:100970000000000000000000000000000000000077
:100980000000000000000000000000000000000067
:100990000000000000000000000000000000000057
:1009A0000000000000000000000000000000000047
:1009B0000000000000000000000000000000000037
:1009C0000000000000000000000000000000000027
:1009D0000000000000000000000000000000000017
:1009E0000000000000000000000000002223252677
:1009F00028292A2C2D2F3032333536383A3B3D3ECC
:100A00004042434547494A4C4E5051535557595A15
:100A10005C5E6062646668696B6D6F71737577792F
:100A20007B7D7F81838587898A8C8E90929496982E
:100A30009A9C9E9FA1A3A5A7A8AAACAEAFB1B3B440
:100A4000B6B8B9BBBCBEBFC1C2C3C5C6C7C9CACB95
:100A5000CCCDCED0D1D2D2D3D4D5D6D7D7D8D9D960
:100A6000DADADBDBDBDCDCDCDCDCDDDDDDDDDCDCC9
:100A7000DCDCDCDBDBDBDADAD9D9D8D7D7D6D5D4E6
:100A8000D3D2D2D1D0CECDCCCBCAC9C7C6C5C3C2B2
:100A9000C1BFBEBCBBB9B8B6B4B3B1AFAEACAAA807
:100AA000A7A5A3A19F9E9C9A98969492908E8C8ABB
:100AB00089878583817F7D7B79777573716F6D6B96
:100AC0006968666462605E5C5A5957555351504E6E
:100AD0004C4A4947454342403E3D3B3A3836353320
:100AE00032302F2D2C2A292826252322FFAA7F5594
:100AF00040000101010101010101010202020202A3
:100B000002020202030303030303030304040404B5
:100B1000040404050505050506060606060707077D
:100B2000070708080808090909090A0A0A0B0B0B34
:100B30000C0C0C0D0D0D0E0E0E0F0F0F10101111D1
:100B40001112121313141415151616171718181955
:100B5000191A1A1B1B1C1D1D1E1E1F2020212222BC
:100B6000232424252626272829292A2B2C2D2D2EFF
:100B70002F30313232333435363738393A3B3C3D19
:100B80003E3F404142434445464748494A4C4D4E0A
:100B90004F50515354555658595A5B5D5E5F6162D0
:100BA00064656668696B6C6D6F7072737577787A5F
:100BB0007B7D7E8082838587888A8C8E8F919395BA
:100BC00096989A9C9EA0A2A3A5A7A9ABADAFB1B3DE
:100BD000B5B7BABCBEC0C2C4C6C9CBCDCFD1D4D6BE
:100BE000D8DBDDDFE2E4E7E9EBEEF0F3F5F8FAFD60
:100BF000FF00DA02815AD9F1DB20A4A62EAF00A0B3
:100C0000C0D30000A1C8D30000AED580A81F408D7E
:100C100014200000047F3F1F643214643214783CB7
:100C20001E1E140A05000000000000000000000065
:100C300000000000000000000000000000000000B4
:100C40000000000000000000007E0F00D4FFFFFF46
:100C5000C70000007800000000000000002A2B28D8
:100C60000000000000000000000000000000000084
:100C700029000000002C1E342021222434262725A0
:100C80002E362D3738271E1F2021222324252633D8
:100C900033362E37381F0405060708090A0B0C0DDA
:100CA0000E0F101112131415161718191A1B1C1DEC
:100CB0002F3130232D350405060708090A0B0C0DCA
:100CC0000E0F101112131415161718191A1B1C1DCC
:100CD0002F3130354C0100000501050205030504E4
:100CE00005050500060106020603060406050600C2
:100CF00007010702070307040705070008010802A8
:100D00000803080408050800090109020903090489
:100D100009050900000100020003000400050000AD
:100D200001010102010301040105010002010202A7
:100D30000203020402050200030103020303030489
:100D40000305030004010402040304040405040071
:100D500011241FBECFEFDAE0DEBFCDBF11E0A0E06F
:100D6000B1E0EEEFFEE602C005900D92A23FB107A2
:100D7000D9F725E0A2EFB1E001C01D92AF3DB20767
:100D8000E1F70E940F2A0C9414370C940000982F5E
:100D900082958F70882311F0982F84E0292F269553
:100DA0002695222311F08E5F922F969591118F5FD9
:100DB000089580939005089580939105089521E00A
:100DC00030E001C0220F8A95EAF780919105822BCD
:100DD0000E94DC06089521E030E0A90102C0440F22
:100DE000551F8A95E2F7CA01809590919105892354
:100DF0000E94DC0608959B01677091E001C0990F85
:100E00006A95EAF763E0369527956A95E1F7B901A7
:100E1000660F771F260F371FFA01E20FF31F40E01E
:100E200050E0682F70E08191DF0111979B01042E43
:100E300002C0369527950A94E2F72170219528275C
:100E4000292328272C934F5F5F4F4330510559F7D3
:100E500008959C01A82FA77083E0369527958A9561
:100E6000E1F7C901880F991F820F931FFB01E80F5B
:100E7000F91F40E050E080E0219130E00A2E02C0EE
:100E8000369527950A94E2F721703327042E01C086
:100E9000220F0A94EAF7822B4F5F5F4F43305105D0
:100EA00059F70895282F862F9A3070F4263058F479
:100EB000622F70E026E0929F600D711D112445E3C2
:100EC00055E00E94FB0608959C5F9230E0F7622F88
:100ED00070E042E355E0F5CF292F9A3068F4863070
:100EE00090F490E065E375E036E0239F800D911D5E
:100EF00011240E94290708952C5F223020F462E318
:100F000075E090E0F6CF80E008959091910521E0A2
:100F100030E0F90101C0EE0F8A95EAF7D90102C06D
:100F2000AA0FBB1F6A95E2F7EA2B01C0220F4A9570
:100F3000EAF7892F8E23E81305C0892F822B0E94A0
:100F4000DC0608952095822F8923F9CF80919F0593
:100F500090919E05981301C008958F5F8770FACF16
:100F6000803E9105D1F1C8F48133910509F47FC029
:100F700048F48932910509F46FC08A32910509F469
:100F80007DC0089589339105E1F082389105C9F05B
:100F90008533910509F45BC00895843E9105D1F134
:100FA00048F4823E910531F1833E910541F181EE95
:100FB00090E00895863E9105C1F1873E9105E1F1EB
:100FC0000895209181052370211165C0209182052B
:100FD00023FF14C089E290E008952091810520FD4F
:100FE00043C03091820530FF09C024FF4EC080E02D
:100FF00090E008952091810522FDF7CF089520917A
:10100000810522FD45C03091820530FD44C024FF9A
:10101000F5CFEDCF2091820521FFF0CF80918105A2
:1010200084FDE5CF87EE90E008952091810523FFB0
:10103000E5CF24FDDCCFF6CF2091810523FD2EC026
:101040003091820531FFE3CF84EE90E00895209146
:10105000810525FFD3CFBECF2091810525FD21C07D
:101060002091820523FFCACF89E390E00895209163
:10107000810526FFC3CF8AE290E008952091810583
:1010800026FFBCCF81E390E0089583EE90E00895C1
:1010900082EE90E0089580EE90E0089586EE90E074
:1010A000089585E390E0AACF9091810592FF10C04A
:1010B00041E0282F2471243009F040E031E0282F4E
:1010C0002871283009F030E0431711F02CE0822716
:1010D00093FF10C041E0282F2471243109F040E033
:1010E00031E0282F2871283109F030E0431711F042
:1010F0002CE082273091820530FF10C051E0282F6C
:101100002171213009F050E041E0282F287128306A
:1011100009F040E0541711F029E0822731FF10C098
:1011200041E0282F2171213109F040E031E0282FE2
:101130002871283109F030E0431711F029E08227A7
:1011400094FD877E08951F93CF93DF930E94B0078D
:10115000EC01811522E5920708F053C0811540E5A6
:10116000940708F0E5C0803E9105F8F48D3C9105A8
:1011700008F0B9C0883A910580F4853A910508F0E5
:10118000A4C08130910521F00497813A910550F473
:10119000CE01DF91CF911F910895885A91094B9705
:1011A00008F496C0C0E0D0E0F3CF811550E4950775
:1011B000F8F4C11580E2D80708F0D3C0C83ED105C5
:1011C00038F3CE019A9581159F4160F78D2F0E94CB
:1011D0005408182FCE0199270E94B007212F30E024
:1011E000322F2227E901CC27DF71C82BD92BD0CF92
:1011F00099270E94B007CC27DF70C82BD92BD06A63
:10120000C7CF803842E59407C8F5803652E5950788
:1012100008F072C0C03482E5D807B0F08C2F8695F4
:101220008695877020E2829FC0011124C37021E05F
:1012300030E0A90102C0440F551FCA95E2F7EA0148
:10124000C82BD92BDC68A4CFC03252E5D50708F0F3
:101250004CC08C2F8695869520E2829FC001112478
:10126000C37021E030E0A90102C0440F551FCA95A8
:10127000E2F7EA01C82BD92BDD688ACF803E52E520
:101280009507B0F4C03C82E5D80708F04AC0CE010B
:10129000805A9245809708F085CF8C2F8F710E94DD
:1012A0005408C82FD0E0DC2FCC27CC27DF7170CFBB
:1012B00096558F3F910511F008F074CFCE01992714
:1012C0000E94B007EC01D06663CFA497D06460CFD2
:1012D000C85AD0E0CC0FDD1FC554DE4F0990D8812D
:1012E000C02DD46455CFD06553CFCF71D0E0DC2F63
:1012F000CC27C16FD06A4CCF86958695877020E247
:10130000829FC0011124C37021E030E0A90102C016
:10131000440F551FCA95E2F7EA01C82BD92BDA68AA
:1013200037CFDC2FCC27CC27DF71C06FD06A30CF0E
:101330008F710E94540865E0D695C7956A95E1F7CC
:10134000CF70D0E0DC2FCC27282F30E084FF05C001
:1013500054E0220F331F5A95E1F7C22BD32BD069EB
:1013600017CF8D2F8F710E945408182FCE01992707
:101370000E94B007212F30E0322F222722273F7111
:10138000282B392BE901D06203CF80E00895F8942F
:10139000E82FE295EF70F0E041A18F7021E030E09E
:1013A000B90102C0660F771F8A95E2F7CB01962F2D
:1013B0009095942391A392A1892B82A37894089568
:1013C0000895A0E0B0E0E7EEF9E00C947E35E90185
:1013D000E42FF0E0EF50F54F61110BC0E4919E2F28
:1013E0008E2F8983E8839A83CDB7DEB7EAE00C9429
:1013F0009A35282F30E0062F10E0F491EF2F86E089
:10140000829F6001839FD00C1124EE24EA94F12C7A
:10141000C601B7010E946235220F331F45E5469F82
:10142000C001479F900D1124281B390B822F880F74
:10143000280FC701801B910BF89FA001F99F500D49
:101440001124952F209F5001219FB00C1124AB2C0B
:10145000BB24D701AA19BB095D01FA9DD001FB9DF0
:10146000B00D11248B2F5701A21AB1089501209FAE
:101470005001219FB00C309FB00C1124AB2CBB2429
:10148000EA18FB08FE9D9001FF9D300D112463308A
:101490007105C9F01CEFC11613E0D10650F461309C
:1014A000710509F49ECF6230710589F08E2FE32F0C
:1014B00098CF6430710571F066307105B9F3E52F8E
:1014C0009B2F8F2F8ECFEB2F852F9F2F8ACF852F8E
:1014D000932F87CF832FE52FF8CF80918705843016
:1014E00028F4837084608093870508958439E8F335
:1014F00083708069F8CFE4E8F5E01182828184602E
:1015000082830895FA01882311F009950895FB015B
:10151000FCCFFC01680F791F8FEF91E3E617F70707
:1015200009F408952191822728E030E087FF08C060
:10153000880F89272150310921153105B9F7EECFE0
:10154000880FF8CF80912405882359F0E091280571
:10155000F0912905309729F00190F081E02D09954F
:10156000089580E00895A3E0B0E0E9EBFAE00C9480
:1015700086359C0180912402909125028217930761
:10158000A1F03093250220932402E0912805F091E8
:101590002905309751F083E089833B832A830084B7
:1015A000F185E02DCE01019609952396E2E00C9499
:1015B000A235A3E0B0E0EFEDFAE00C9486359C0193
:1015C000809122029091230282179307A1F0309319
:1015D000230220932202E0912805F09129053097FB
:1015E00051F084E089833B832A830084F185E02DD8
:1015F000CE01019609952396E2E00C94A2359C0158
:10160000FC0132968FEF90E04191461751F08F3FE9
:1016100019F4411101C0892F9F5F9630A9F78F3FC0
:1016200009F40895280F311D87FD3A95F901628369
:1016300008959C01FC013296285F3F4F81918613EB
:1016400003C0DF0111971C92E217F307B9F7089561
:10165000A4E0B0E0EEE2FBE00C9486358FB7F8949E
:1016600020911E0230911F024091200250912102D0
:1016700029833A834B835C838FBF69817A818B8115
:101680009C812496E2E00C94A235A4E0B0E0EBE467
:10169000FBE00C94863580912405882371F00E942C
:1016A000280B69837A838B839C8369817A818B8100
:1016B0009C812496E2E00C94A2350E94280B698359
:1016C0007A838B839C838091200590912105A09142
:1016D0002205B091230529813A814B815C81280F35
:1016E000391F4A1F5B1F29833A834B835C83DDCFFD
:1016F0000E94450B0895A4E0B0E0E1E8FBE00C9403
:101700008435462F572FBC012FB7F89480911E02C5
:1017100090911F02A0912002B09121022FBF8C0155
:101720009D01041B150B260B370BC901B80124962C
:10173000E4E00C94A03587E797E790930108809345
:10174000000888E19AE00FB6F894A89580936000AD
:101750000FBE90936000FFCF80911D020895089501
:101760000895FC019B018091130290911402861749
:10177000970740F0672B29F48091E8008E778093DB
:10178000E800C90140E0009741F4411106C0809192
:10179000E80082FF2FC080E008952091E904222311
:1017A000A9F12530A9F12091E80023FD2DC0209159
:1017B000E80022FDECCF2091E80020FFE4CF30913B
:1017C000F3002091F200009719F02830310558F00D
:1017D00041E02830310509F040E02091E8002E7703
:1017E0002093E800D0CF41914093F10001972F5F03
:1017F0003F4FE9CF8091E904882341F0853041F0E3
:101800008091E80083FFC3CF81E0089582E00895CE
:1018100083E0089580910D0287FF13C08091E80056
:1018200082FF06C08091E8008B778093E80004C0B7
:101830008091E9048111F2CF08958091E904882311
:10184000D9F38091E80080FFF8CF8091E8008E778F
:10185000ECCF2091E4003091E50095E6A90180915C
:10186000EC008170882331F08091E80080FF06C091
:1018700080E008952091E80022FD1BC08091E904DA
:10188000882391F0853091F08091EB0085FD10C0A8
:101890002091E4003091E5004217530701F3915085
:1018A0009111DCCF84E0089582E0089583E00895EB
:1018B00081E00895E8EDF0E080818E7F80831092D2
:1018C000E2001092DA001092E100A0EEB0E08C91FC
:1018D00081608C9380818F77808319BCA7EDB0E005
:1018E0008C918E7F8C9380818F7E808310920C02EE
:1018F00008959091B504989FC0011124811522E0AC
:10190000920714F080E090E082559D4F9093AD02D5
:101910008093AC020895982FE42FE2709093E90031
:10192000891308C0762F242F50E0E11111C091E0F7
:10193000980FF4CF7091EC002091ED005091F000E1
:1019400021FD06C09F5F973049F78093E900089515
:101950003091EB003E7F3093EB003091ED003D7F06
:101960003093ED003091EB0031603093EB007093D9
:10197000EC002093ED005093F0002091EE0027FD45
:10198000E1CF0895A0E0B0E0E8ECFCE00C948035F5
:10199000C8EDD0E088818F7E8883E7EDF0E080811C
:1019A0008160808384E082BF81E080930C02888123
:1019B0008E7F888302EE10E0F80110821092DA0028
:1019C00081EEC82ED12CF601108288818F77888312
:1019D00088818068888388818F7D888319BC109274
:1019E000E90410920B021092B90410920A0290EED0
:1019F000E92EF12CF70180818B7F808388818160C3
:101A0000888342E060E080E00E948B0CF6018081D8
:101A10008E7F8083F80180818160808380818860EF
:101A20008083F70180818E7F8083888180618883B5
:101A3000CDB7DEB7E8E00C949C35E0919F0590911E
:101A40009E0527E0E91302C080E00895AE2FB0E0C4
:101A50002E9FF0011124E056FA4F3181361306C053
:101A60003081381303C03581341304C0FD01319631
:101A7000E770E8CF81E008954091180180918705D3
:101A800080FF24C02091170130E0C901880F991F01
:101A9000820F931F8A5A9D4F539A6BB1677F7BB118
:101AA0007860EFB7F89450E09A01220F331F240FAB
:101AB000351F280F391F28173907E9F4EFBF8FE5C5
:101AC00094E00197F1F700C000000895809119019A
:101AD00090911A01282F30E0F901EE0FFF1FE20F5D
:101AE000F31FEA5AFD4F891768F61182108212829D
:101AF0008F5F3396F8CFDC014D91CD0158E07BB973
:101B0000000000C047FF6BB9440F000000C000C0D8
:101B100000C06BB900C05A9591F7CDCF0F931F93BA
:101B2000CF93DF93EC0100E010E040911B01842F84
:101B300090E0081719076CF00E943C0D8C8190E032
:101B40000196817099278C83DF91CF911F910F911E
:101B5000089580911901800F912F911D9C01220FF2
:101B6000331F280F391F2A5A3D4F9C8160918905E8
:101B700080918805469550E0041715074CF4992389
:101B800049F040918A050E94E1090F5F1F4FCDCFB8
:101B90009923B9F340E0F7CFEF92FF921F93CF93D1
:101BA000DF93EC0110E0EE24EA94F12C60911B012C
:101BB000161770F00E943C0D9A818C8190FF25C011
:101BC0008F5F8C83DF91CF911F91FF90EF900895ED
:101BD00080911901810F9927991F9C01220F331FB2
:101BE000280F391F2A5A3D4F70E0C7010E94C735A0
:101BF000962F8C8140918A0560918905199F800DEF
:101C000011240E94E1091F5FD1CF8150DACFA0E0FB
:101C1000B0E0EDE0FEE00C947D35EC01A0901B01FE
:101C20008C819A8190FD0DC0BB24B39481110DC0AD
:101C30008FEF8A0DBB24B3948093550281E08C838F
:101C400004C0BB24BA948823B9F3E12CF12CEA1424
:101C5000B8F00E943C0D90915502E1E0BE1254C0D4
:101C600080911B018150992319F08FEF890F91E02A
:101C7000809355029C83CDB7DEB7EBE00C94993589
:101C8000809119018E0D9F2D911D8C01000F111F48
:101C9000080F191F0A5A1D4FF80111821082128273
:101CA00034E0C32ED12C912C80915502890D8931BD
:101CB0003CF168E10E94B935892F082E000C990B80
:101CC0008E159F0591F480918A058C9DA0018D9DB4
:101CD000500D11245595479555954795980160915C
:101CE0008905809188050E94E1099B0CF1E0CF1ADB
:101CF000D108C114D104C1F68FEFE81AF80AA7CFB2
:101D000087FFDBCF8A0DD9CF892F90E001966091B4
:101D10001B0170E00E94C735982FAACF0F931F9325
:101D2000CF93DF93EC018C81811109C081E08C831A
:101D30001092540292E090930B0180930A0110914B
:101D4000190120911A01812F90E0FC01EE0FFF1F75
:101D5000E80FF91FEA5AFD4F821750F100E0609139
:101D60001B01061758F10E943C0D80910A01209139
:101D70005402280F2093540290910B01980F9093D6
:101D80000B01191654F4022E000C330B40911B0169
:101D90004150550B2417350734F0819580930A0183
:101DA000813009F41C82DF91CF911F910F9108952A
:101DB0001182108212828F5F3396CECF202F30E0B7
:101DC00070E0C9010E94C735810F90E04091540234
:101DD000042E000C550BFC01EE0FFF1FE80FF91F3E
:101DE00024173507ACF040910B01042E000C550B65
:101DF000421753076CF09F012A5A3D4F40918A05C4
:101E000060918905809188050E94E1090F5FA7CF45
:101E1000EA5AFD4F118210821282F8CFAEE0B0E094
:101E2000E4E1FFE00C9482358D879E87AD85BE8509
:101E300014961C91212F30E0D9010E9431369B016C
:101E4000AC010E94473669837A838B839C83E0E2EE
:101E5000F0E0E11BF109A5E5B0E09B01AC010E94B7
:101E6000473669877A878B879C879F01DF010E94AD
:101E700029369B01AC010E9452366D837E838F838D
:101E800098879B01AC0189819A81AB81BC81280F25
:101E9000391F4A1F5B1F69857A858B859C850E9447
:101EA000DB35022F30E00A3248F5A901440F551FF7
:101EB000420F531F55954795142F1095F12C85E52A
:101EC000E82EE01A80911B01F81630F10E943C0DBB
:101ED000AD85BE8514969C9181E0992319F09032CE
:101EE00019F48FEF8093090180910901890FED8525
:101EF000FE8584832E96E6E00C949E3585E590E081
:101F0000821B930BAC01440F551F480F591F57FFFD
:101F1000D1CF4F5F5F4FCECF8E2DF1FC802F409100
:101F200019014F0D5527551F9A01220F331F240FFA
:101F3000351F2A5A3D4F412F609189050E94E109C2
:101F4000F394C0CFE7E8F5E080818E7F80830E9424
:101F50007B0AE4E8F5E08281816082830E943C0D87
:101F600008959091870590FF11C0909119015091AB
:101F70001A01292F30E0F901EE0FFF1FE20FF31FC6
:101F8000EA5AFD4F951718F00E943C0D0895818381
:101F9000608342839F5F3396F5CFA3E0B0E0E3ED2B
:101FA000FFE00C9484358C018091530281110AC0AA
:101FB0009E012F5F3F4F4FEF6FEF0E94E1098A8133
:101FC00080935302F8016481613049F06230D1F0AE
:101FD0008091530240E0662331F040E015C06091EB
:101FE000530240E080E00E94B10FF801848190E04C
:101FF000019663E070E00E94C73584832396E4E095
:102000000C94A0354091530280E060E0ECCFA3E057
:10201000B0E0EDE0F0E10C9486359091870590FFFB
:102020000AC09E012F5F3F4F0E94E1094B816981E9
:102030008A810E94B10F2396E2E00C94A235CF93DF
:10204000DF93EC01EC81F0E0E451F64F4491E7E8D6
:10205000F5E0628181810E9407108C818F5F8C8303
:10206000DF91CF910895CF93DF93EC01E7E8F5E09E
:10207000438162818C810E9407108C818F5F8C83E9
:10208000DF91CF9108950F931F93CF93DF93EB01CF
:102090008A019091E904943079F58093E9008FEFFB
:1020A0009091E80095FD07C095ED9A95F1F7000035
:1020B00081508111F5CF8091E80085FF1DC00E94FD
:1020C000290C811114C08091E80085FD06C0809123
:1020D000E8008E778093E800F2CF88818093F1004A
:1020E000015011090115110511F02196ECCF8091D5
:1020F000E8008E778093E800DF91CF911F910F91D8
:102100000895CF93DF93D82FC92F48E050E0682F70
:10211000792F81E00E94431088E0ED2FFC2FA5E18C
:10212000B2E001900D928A95E1F7DF91CF91089589
:10213000BC0143E050E084E00E9443100895A0E019
:10214000B0E0E5EAF0E10C947E35F82EE92EB62EEB
:10215000A72E8A0180910802CC24C394D12C8A3006
:1021600018F48AE0C82ED12CC1E0D0E06B2D7A2D76
:102170008F2D9E2DF8010995811116C02196CC1640
:10218000DD0694F0CC9FC001CD9F900D900D1124E1
:1021900020E030E045E34A95F1F700002F5F3F4F24
:1021A00028173907B9F7E2CFCDB7DEB7EAE00C94CC
:1021B0009A351F93CF93DF93962F122F632F84307E
:1021C000D8F49A30C8F44630B8F4C42FD0E0CC0F1D
:1021D000DD1F2CE0929FC00DD11D112498E7899F2F
:1021E000C00DD11D1124CE0189960E94E036612FC9
:1021F000CE018A960E94E036DF91CF911F9108951B
:102200001F93CF93DF93962F122F632F8430D0F438
:102210009230C0F428E0829FE001112424E0929FD4
:10222000C0011124C80FD91FC75FDD4FCE01442361
:1022300069F00E94E03681E090E0612F8C0F9D1FD5
:102240000E94E036DF91CF911F91089502960E947F
:10225000E03683E090E0F1CF8F929F92BF92CF92D1
:10226000DF92EF92FF920F931F93CF93DF9303ECD4
:1022700013E0E12CF12CC0E04701D0E015C0F601DD
:10228000259134914B2D6D2F8C2F0E94D91022E077
:10229000C20ED11CB39436E0B312F1CF86E0880EA3
:1022A000911CDF5FDA3049F0C401880F991F9C014F
:1022B0002D513E4F6901B12CE2CFF80125913491A7
:1022C00041E060E08C2F0E940011F80132962591C8
:1022D000349140E060E08C2F0E940011F8013496A8
:1022E0002591349141E061E08C2F0E940011F801AA
:1022F00036962591349140E061E08C2F0E940011C8
:10230000085F1F4FCF5F3CE3E30EF11CC43009F0C0
:10231000B3CFDF91CF911F910F91FF90EF90DF909E
:10232000CF90BF909F908F900895CF93DF93C9E295
:10233000D2E060E0CE010E94E0362196C11584E033
:10234000D807B9F7DF91CF910895882381F065E22E
:1023500085E290E00E94E03661E086E290E00E9433
:10236000E03662E087E290E00E94E03608956FEF89
:1023700085E290E00E94E0366FEF86E290E00E94F6
:10238000E0366FEFEFCF80E00E94A51160E088E2B9
:1023900090E00E94E0360E942C110E94951181E08D
:1023A0000E94A51108950F931F93CF93DF9384305C
:1023B00030F56A3020F5463010F5C42FD0E0CC0F50
:1023C000DD1F2CE0629FC00DD11D112438E7839FD3
:1023D000C00DD11D1124CE0189960E94BC36082F54
:1023E00010E0102F0027CE018A960E94BC3698017B
:1023F000282BC901DF91CF911F910F91089580E0A3
:1024000090E0F8CF0F931F93CF93DF93843078F54C
:10241000623068F528E0829F8001112434E0639FD8
:10242000B0011124060F171F075F1D4FC801442379
:10243000A1F00E94BC36C82FD0E0DC2FCC2781E071
:1024400090E0800F911F0E94BC369E01282BC9018D
:10245000DF91CF911F910F91089502960E94BC3693
:10246000C82FD0E0DC2FCC2783E090E0EACF80E0DB
:1024700090E0EECF7A3048F4663070F4843060F447
:10248000462F672F0E94D31108957D3F41F462309B
:1024900018F441E0843050F080E090E008957C3FF3
:1024A000D9F76230C8F78430B8F740E00E940212D2
:1024B0000895A0E0B0E0EFE5F2E10C9481357C01F5
:1024C0000091910580919005082BC3E0D0E010E0C9
:1024D000C8010C2E02C0959587950A94E2F780FDFD
:1024E00009C02197A8F7D12C8D2DCDB7DEB7E7E035
:1024F0000C949D35DC2EB7018C2F0E943A120E945D
:10250000A308019771F3F0CF0F931F93CF93FC01B2
:10251000858100811181882391F0662381F0C801B3
:102520000E945912C82F682FC8010E945207B80193
:102530008C2F0E943A12CF911F910F910895C801DC
:102540000E946C07C82FF3CFCF93DF93D82FC92FEA
:102550000E9459126D2F7C2F0E943A120E94A308EC
:10256000DF91CF910895FC0184818823A1F08081BF
:1025700091810E94A412282F92959F70963091F01D
:1025800060F4925F9F70923030F481E0203F79F0E8
:1025900030F4283E30F080E004C09A5FF3CF243F4F
:1025A000D1F7089581E0283E18F0213FF9CF089532
:1025B000089585E290E00E94BC36853289F486E277
:1025C00090E00E94BC36813059F487E290E00E948E
:1025D000BC3691E0823009F090E0892F8170089537
:1025E00080E0FCCF80918F0590919305892B80939B
:1025F000F40148E050E06AE275E084EF91E00E9467
:10260000A636892BA9F088E0E4EFF1E0AAE2B5E074
:1026100001900D928A95E1F7E0912805F091290546
:10262000309731F00280F381E02D84EF91E009953D
:10263000089510928F05E6EFF1E086E0DF011D922C
:102640008A95E9F780E090E00E94B30A80E090E08C
:102650000E94D90A109293050E94F21208950E94D6
:1026600019132FEF84E39CE0215080409040E1F764
:1026700000C0000088E19AE00FB6F894A895809316
:1026800060000FBE90936000FFCFAAE2B0E0EBE4E1
:10269000F3E10C9485358DE092E0FC0101962091E8
:1026A000F100208322E085319207B9F780910E0274
:1026B000893009F456C0C8F4823009F4B3C08330BD
:1026C00009F482C0813071F18091E80083FFE7C096
:1026D00080910D0290910E029A3008F0E0C0E92F2F
:1026E000F0E0EA5EF84C0C941C368A3009F489C09C
:1026F0008B3051F780910D02813231F780911102B8
:1027000090911202892B01F78091E800877F8093D6
:10271000E8000E940A0C80910F02809300010E9441
:102720001913D2CF80910D02813A71F68091E800A1
:10273000877F8093E8008091110290911202892B8B
:1027400061F060E080E090E070E00E94B10B809169
:10275000E8008B778093E800B7CF68E085E192E0EE
:10276000F3CF80910D02813209F0AECF809111023A
:10277000909112028D7F892B09F0A6CF8091E800FD
:10278000877F8093E8008091E80082FF18C09091D5
:10279000F3008091F200029731F48091F1008130D2
:1027A00011F0863021F48091F10080931D02809118
:1027B000E8008B778093E8000E940A0C85CF809117
:1027C000E9048111E0CF80CF80910D02813A09F0B8
:1027D0007BCF8091110290911202892B09F074CF66
:1027E0008091E800877F8093E8008091E80080FF77
:1027F000FCCF809100018093F1008091E8008E77FA
:10280000D9CF80910D02813209F05ECF8091E8002E
:10281000877F8093E8000E940A0C809110028093C9
:10282000090252CF80910D02813A09F04DCF80917B
:10283000E800877F8093E8008091E80080FFFCCF6C
:1028400080910902D8CF803889F0823841F5809193
:1028500011028F70873018F58093E9008091EB00AA
:1028600085FB882780F91092E90006C080910A0252
:102870009091B904911182609091E800977F9093B4
:10288000E8008093F1001092F1008091E8008E77CB
:1028900023C0811116C080910F02813011F1809107
:1028A000E80083FF0AC08091E800877F8093E800FA
:1028B0008091EB0080628093EB00AA96E3E00C9499
:1028C000A135823061F780910F02882389F0109240
:1028D000E9008091E800877F8093E8000E940A0C5D
:1028E000DECF81E0933009F080E08093B904EFCF30
:1028F000809111028F702FEF280F263080F6809381
:10290000E9002091EB0020FFE2CF933031F4809179
:10291000EB0080628093EB00DACF9091EB00906146
:102920009093EB0021E030E0A90102C0440F551F55
:102930008A95E2F74093EA001092EA008091EB005A
:102940008860E8CF8111ABCF10910F021F77809183
:10295000E3008078812B8093E3008091E800877FFB
:102960008093E8000E940A0C8091E80080FFFCCF71
:102970008091E30080688093E30083E0111101C03F
:1029800082E08093E9048BCF8058823008F087CFB3
:1029900040910F02509110024C3D83E0580799F589
:1029A00083E08A838AE289834FB7F894DE01139625
:1029B00020E03EE051E2E32FF0E050935700849195
:1029C00020FF03C082958F703F5F8F708A30C8F000
:1029D000895C90E08D939D932F5F243161F74FBF09
:1029E0008091E800877F8093E8006AE270E0CE0182
:1029F00001960E94B10B8091E8008B778093E800EC
:102A00004ECF805DE6CF8091110290911202252F6A
:102A100033272330310509F44AC078F521303105D8
:102A200009F479C08BE590E0E8E4F1E0223031056B
:102A300009F035CF2091E800277F2093E80020910E
:102A40001302309114028217930708F49C0140E0AE
:102A50002115310509F064C0411162C08091E80080
:102A600082FDC9CF8091E904882329F2853019F2CB
:102A70008091E80083FFF2CFBECF2132310509F407
:102A80003BC02232310509F00ACF8330910508F0AE
:102A900006CFFC01EE0FFF1FEB59FE4F0190F081B6
:102AA000E02D8E599E4FDC018C9190E011C0CA013F
:102AB0009927413089F082309105B1F0892B09F0D6
:102AC000EECEEFEDF1E0E4918E2F90E0EFEDF1E04E
:102AD000009709F4E4CEAECFE3ECF1E0E4918E2F61
:102AE00090E0E3ECF1E0F4CFE5EBF1E0E4918E2F40
:102AF00090E0E5EBF1E0ECCF8330910508F0CFCE2C
:102B0000FC01EE0FFF1FE559FE4F0190F081E02D13
:102B100089E090E08FCF82E190E0E3EAF1E08ACFB4
:102B20008091E904882309F466CF853009F463CFE6
:102B30008091E80083FD5FCF8091E80082FD8ECF19
:102B40008091E80080FF84CF9091F3008091F200A3
:102B50002115310519F08830910550F041E00897B2
:102B600009F040E08091E8008E778093E80070CF14
:102B700044914093F1003196215031090196E8CFFC
:102B8000803809F08CCE8091E800877F8093E80040
:102B900080910B028093F10078CE811180CE10914C
:102BA0000F02123008F07BCE8091E800877F80937F
:102BB000E80010930B020E940A0C1123D1F084E06C
:102BC0008093E90442E061EC81E00E948B0C42E2D8
:102BD00061EC84E00E948B0C42E261EC82E00E9496
:102BE0008B0C42E260EC83E00E948B0C8091E90444
:102BF00056CE8091E30087FDE2CF81E0E1CFCF9315
:102C0000C82F8823A9F08CEF8C0F813A98F4E6EF57
:102C1000F1E08CEF91E02191C217B1F18E179F077F
:102C2000D1F76C2F84EF91E00E94FF0A0E94F2120C
:102C3000CF91089580E28C0F883068F4C77021E04E
:102C400030E001C0220FCA95EAF780918F05822BF0
:102C500080938F05EBCF8BE58C0F833038F42C2FCE
:102C60002452330BC9010E94B30AE2CFC85ACB31B8
:102C7000F8F6EC2FF0E0EE0FFF1FE554FE4F8081D9
:102C800091810E94D90AD4CF6C2F84EF91E00E94E9
:102C9000190B0E94F212C5CF682F882369F18CEFBF
:102CA000860F813A38F484EF91E00E94190B0E945C
:102CB000F212089580E2860F883070F4677081E028
:102CC00090E001C0880F6A95EAF7809590918F0592
:102CD000892380938F05EBCF8BE5860F833028F413
:102CE00080E090E00E94B30A0895685A6B3120F4A6
:102CF00080E090E00E94D90A0895CF93C82F8933CD
:102D000099F489E30E94FF1580E590E0EFE9FFE088
:102D10003197F1F700C0000001970097B9F78C2FA9
:102D20000E944C16CF9108950E94FF158AE090E012
:102D3000EDCF882339F090918F05892B80938F05F3
:102D40000E94F2120895882341F0809590918F059A
:102D5000892380938F050E94F2120895A0E0B0E0CD
:102D6000E4EBF6E10C9480358901D42FC52F6B017B
:102D70007C010E946D0AA8016D2F7C2F88E090E0F5
:102D80000E94F23698014D2F5C2FB601C70100E278
:102D90000E947536622F84E290E00E94E036CDB743
:102DA000DEB7E8E00C949C35E7E8F5E08DE280833F
:102DB00011828FEF828383831482A4E8B5E0129698
:102DC0008C911297836012968C9375812DE230E07E
:102DD0004FEF5FEF60E0868197810E94AE16089505
:102DE00080918B05833018F48F5F80938B05209141
:102DF0008705309188054091890550918A05609139
:102E00008B0570918C0580918D0590918E050E94A7
:102E1000AE16089580918B05882319F08150809318
:102E20008B05209187053091880540918905509147
:102E30008A0560918B0570918C0580918D0590912C
:102E40008E050E94AE160895A3E0B0E0EAE2F7E135
:102E50000C947E35F82ED62EE42EB22E9091870556
:102E600090FF42C030918805381308C080918905D1
:102E7000861304C080918A05841729F08091860505
:102E8000826080938605E92FE695E695AE2FB0E047
:102E9000A758BE4F8C91809384059C7F943041F558
:102EA0009E012F5F3F4F4E2D6D2D8F2D0E94E1090A
:102EB0004B8169818A810E94B10F3F2D3093880533
:102EC000D0928905E0928A05BB2071F02091870598
:102ED00060918B0570918C054D2D5E2D80918D0537
:102EE00090918E050E94AE162396EAE00C949A35D6
:102EF000823019F4E0908A05E0CF8630F9F289300B
:102F0000E9F28931D1F6E9518E2F8170A82EE6952C
:102F1000F0E0E451F54FE491C12C0E2F10E06091E8
:102F20001B01C61618F00E943C0DC7CF2C2D30E0B7
:102F3000C09EC001C19E900D112470E00E946235B8
:102F40008F2DA11013C0860F90911901A901490F6F
:102F5000511D9A01220F331F240F351F2A5A3D4F4E
:102F60004E2D6D2D0E94E109C394D9CF861BECCF65
:102F7000E7E8F5E0818121E043816281885F0E947A
:102F800024170895E7E8F5E0818121E0438162811B
:102F900088500E9424170895E7E8F5E0628121E156
:102FA000620F08F46FEF21E0438181810E942417B2
:102FB0000895E7E8F5E0628121E1621B08F460E032
:102FC00021E0438181810E9424170895E7E8F5E01C
:102FD000438121E1420F08F44FEF21E062818181BA
:102FE0000E9424170895E7E8F5E0438121E1421BA0
:102FF00008F440E021E0628181810E942417089555
:10300000A8E0B0E0E6E0F8E10C94863566EE7EEFED
:1030100080E090E00E94FE3660E082E090E00E9456
:10302000E03681E08093900561E083E090E00E94CB
:10303000E03660E074E184E090E00E94FE3660E0FB
:1030400086E090E00E94E0366FEF87E090E00E941B
:10305000E03640E050E0BA0188E090E00E94F236AD
:1030600060E084E290E00E94E03660E087E190E07A
:103070000E94E03660E08CE090E00E94E03660E084
:103080008DE090E00E94E03619821A821B821C8239
:103090001D821E821F82188648E050E068E170E0C1
:1030A000CE0101960E94D03640E050E0BA0180E2A5
:1030B00090E00E94F23680E00E94A5110E94C311A8
:1030C00040E050E0BA018FE090E00E94F23640E02C
:1030D00050E0BA0183E190E00E94F2362896E2E0E7
:1030E0000C94A235A0E0B0E0E8E7F8E10C9480355C
:1030F000FA0169017801C82F880FDD0B3097B1F014
:10310000DE0193E0AA0FBB1F9A95E1F7A65DBE4FC3
:1031100011968D919C911297885F9A4F4C9150E037
:10312000E417F50708F4AF010E94B336CE010E9400
:10313000ED34182F8823D1F0E114F104B9F083E0C5
:10314000CC0FDD1F8A95E1F7FE01E65DFE4F43815E
:1031500050E0E416F50608F4A701C65DDE4F6C8169
:103160007D81685F7A4FC6010E94B336812FCDB74B
:10317000DEB7E8E00C949C35A5E0B0E0E2ECF8E1C5
:103180000C947A35762E6A014901580101E010E06D
:103190009E012F5F3F4F40E050E060E070E00E94F2
:1031A0007218182F8823B9F1D6018D919D910D9039
:1031B000BC91A02DBC01CD010E947B0B69806436BF
:1031C00071058105910530F4B701C5010E94890A96
:1031D000861509F18701940140E050E060E070E05D
:1031E000872D0E947218182FB701C5010E94890A05
:1031F000861531F010E0812F2596EEE00C9496357F
:1032000011701123C1F30E94280BF60160837183B2
:1032100082839383F0CFA701B501C4010E94B33626
:10322000EACFA5E0B0E0E7E1F9E10C9480356B016D
:1032300085E0E82EF12C09E015E09E012F5F3F4F5D
:1032400044E055E061E080E00E94BC18882349F02A
:1032500095E0FE013196AFEFB4E001900D929A95A2
:10326000E1F795E0EFEFF4E0D60101900D929A9529
:10327000E1F72596E8E00C949C35AAE0B0E0E3E4A1
:10328000F9E10C947E35F82E6D837E83A42ED22E28
:10329000E32EB02EC12EAD81BE818D919D910D90FA
:1032A000BC91A02DBC01CD010E947B0B6436710541
:1032B0008105910510F4AA20A9F000E010E020E0BB
:1032C00030E04B2D5C2D6D2D7E2D8F2D0E947218C0
:1032D000882349F00E94280BED81FE816083718371
:1032E0008283938381E02A96EAE00C949A35ABE0DE
:1032F000B0E0EDE7F9E10C94843528E0E7E8F5E08B
:10330000CE010196DC0101900D922A95E1F73091F2
:103310008405209185055091860539872A875B872A
:1033200041E09C01511101C040E00BE010E06FEE64
:1033300074E085E00E943D198111109286052B965C
:10334000E4E00C94A035A1E0B0E0E9EAF9E10C94E6
:1033500084358091EA04898341E090911F05981398
:1033600001C040E001E010E09E012F5F3F4F6BEE97
:1033700074E086E00E943D192196E4E00C94A035AB
:10338000A8E0B0E0E6ECF9E10C9484358091F30418
:103390009091F404A091F504B091F604BC01CD0124
:1033A0000E947B0B11E0643671058105910520F1C7
:1033B0000E94450BDC01CB010296A11DB11D898342
:1033C0009A83AB83BC8300E010E020E030E044E06F
:1033D00050E0BE016F5F7F4F84E00E947218182F8B
:1033E000882351F00E94280B6093F3047093F40437
:1033F0008093F5049093F604812F2896E4E00C94D2
:10340000A035A0E0B0E0E7E0FAE10C9480357C0163
:103410006B0164E670E088E70E94AE32EC0197FD34
:1034200012C000E010E0F701E00FF11F849164E6A4
:1034300070E00E941D33EC010F5F1F4FC016D106D4
:1034400011F097FFF0CF0E949F3381E0CD2B09F060
:1034500080E0CDB7DEB7E8E00C949C358091B004F5
:10346000882369F08091AF04882349F062E070E01E
:1034700086E491E00E94011A81111092AF04089530
:10348000A4E0B0E0E6E4FAE10C9486358091B00463
:103490008823F9F00E94280BDC01CB0180529C4666
:1034A000AB4FBF4F8093B1049093B204A093B30489
:1034B000B093B4048091AF0481110BC062E070E05E
:1034C00084E491E00E94011A882319F081E080933E
:1034D000AF042496E2E00C94A2351F93CF93DF93C0
:1034E000982F162F81E09A3019F09D3039F480E042
:1034F0000E94FE1ADF91CF911F910895C091AC02F6
:10350000D091AD0286E0FE01ADE4B2E001900D92F3
:103510008A95E1F7903E90F186E0FE0111928A953E
:10352000E9F7C091AC02D091AD02111133C046E071
:1035300050E0BE018DE492E00E94A6369E012E5A14
:103540003240892B91F52A5F3F4F4091B504642F9B
:1035500070E0C9010E946235481B463010F4240F08
:10356000311D211572E0370710F020E030E02255C0
:103570003D4F3093AD022093AC02BCCFF6E09F9F4D
:10358000B001112464557B4F46E050E0CE010E940B
:103590009036C7CF9E012A5F3F4FFE012E173F078F
:1035A00031F2808180958193F9CFC90145E09695EC
:1035B00087954A95E1F741E050E0BA0102C0660FF5
:1035C000771F8A95E2F7CB016091AA027091AB0256
:1035D000862B972BB9016B5F7F4FE5E0769567955A
:1035E000EA95E1F702C0440F551F6A95E2F7842B74
:1035F000952B9093AB028093AA02A5CFCF93382F3F
:10360000E091AC02F091AD02EE5AF2402091B50487
:10361000622F70E0CF010E946235281B822F332376
:1036200069F066E00E94AD35C82FC15010F4CF910B
:10363000089560E080E20E946D1AF7CF9F01280F85
:10364000311D2115324018F080E0E0E0F0E08E0FEF
:103650009F2F911D82559D4F9093AD028093AC0298
:10366000E6CF1F93CF93DF93EC01162FFE018491D9
:10367000811104C0DF91CF911F910895612F0E94A5
:103680006D1A2196F3CF0E94311B81E00E94FE1A31
:1036900008951F921FB61F9211248F939F93AF938B
:1036A000BF938091B804811113C080911E02909144
:1036B0001F02A0912002B09121024196A11DB11DCF
:1036C00080931E0290931F02A0932002B0932102C8
:1036D000BF91AF919F918F911F901FBE1F90189522
:1036E0002FB7F89480911E0290911F02A0912002A2
:1036F000B09121022FBF089580912405882319F0ED
:103700000E94701B08950E94450BCB0108956091A3
:1037100087056695669570E04BE050E08CE091E09F
:103720000E949936892B19F481E0809385050E94C7
:103730007C1B9093D3048093D2048091860584608F
:103740008093860508959091870590FF42C0882355
:1037500009F440C0853208F03FC08F73282F220F34
:10376000220F809187058370282B209387058091F5
:103770008605816080938605662381F030918805F7
:103780004091890550918A0560918B0570918C0557
:1037900080918D0590918E050E94AE1660918705EF
:1037A0006695669570E04BE050E08CE091E00E94F9
:1037B0009936892B99F00E947B0A81E08093D50489
:1037C00020E040918A0560918905809188050E94DA
:1037D0002417089581E0C2CF84E2C0CF0E94871BE6
:1037E000ECCF80918705869586958F5F853208F0AE
:1037F00081E061E00E94A31B089590918705969552
:1038000096958FEF890F913009F484E261E00E9470
:10381000A31B08959091870590FF09C096959695F2
:10382000981728F0961718F40E94F11B089561E08C
:103830000E94A31B08959C014FB7F89480911E022B
:1038400090911F02A0912002B09121024FBF821BD4
:10385000930B08952F923F925F926F927F928F9277
:103860009F92AF92BF92CF92DF92EF92FF920F930F
:103870001F93CF93DF93CDB7DEB72A970FB6F89497
:10388000DEBF0FBECDBF8091B004882309F49FC076
:1038900080914B0290914C020E941B1CC29708F42D
:1038A00058C00E94701B90934C0280934B0280E0A2
:1038B0000E94790C80912405882309F4A8C060E057
:1038C0008DE994E00E94311B809190050E94C7060B
:1038D000882341F0813031F160E08DE894E00E946E
:1038E000311B05C060E087E994E00E94431B60E063
:1038F0008AE894E00E94311B60E084E894E00E9432
:10390000431B809191050E94C706823009F477C05D
:1039100068F0833009F477C060E08CE694E00E94A0
:10392000431B09C060E081E994E0DFCF60E08EE7EF
:1039300094E00E94311B60E089E694E00E94311B14
:103940000E94A20A81FB662760F983E694E00E9448
:10395000431B8091AA029091AB02892BA9F0809120
:10396000B004882389F08091AE0481110DC00E94BB
:10397000401A2091AA023091AB0280E061E070E031
:103980002115310509F052C18091AF048823F9F067
:103990000E94280B69837A838B839C838091B10476
:1039A0009091B204A091B304B091B40429813A81FA
:1039B0004B815C81281B390B4A0B5B0BDA01C90177
:1039C0008F3F9F4FAF4FBF4710F40E942E1A2A9689
:1039D0000FB6F894DEBF0FBECDBFDF91CF911F9120
:1039E0000F91FF90EF90DF90CF90BF90AF909F909E
:1039F0008F907F906F905F903F902F90089560E040
:103A000088E794E096CF60E082E794E092CF83E08D
:103A10000E94790C60E086EA94E00E94311B87E006
:103A20000E94790C2091AC023091AD02C9018E5AEE
:103A300092402E5232402130324008F445C020E0FE
:103A400032E0281B390B4091AA025091AB02F3EEF1
:103A5000EF2EF3E0FF2EDC01A255BD4FBC01620F3B
:103A6000731FCC24C394D12C8617970780F15093F1
:103A7000AB024093AA028DE00E94790C60E080EADC
:103A800094E00E94311B8091EA0490910101981307
:103A90003BC090912A029032B9F5A6E2B2E00D90B7
:103AA0000020E9F71197BA83A98306E212E0898022
:103AB0009A800815190508F04CCF60E0D8018D9167
:103AC0008D010E946D1AF3CF20E830E0BCCFF701E2
:103AD00024913D91231799F08D0101501109F801AE
:103AE00020839C01E5E036952795EA95E1F74601AC
:103AF00002C0880C991C2A95E2F748295929019699
:103B00002FEFE21AF20AB0CF8093010190E2909376
:103B10002A02882E912CA12CB12C89829A82AB8208
:103B2000BC821092290209E212E08AE0C82ED12C50
:103B3000E12CF12CC501B401A70196010E94DB35EF
:103B40006D837E838F839887862F805D8D809E8096
:103B5000AF80B88489288A288B2809F05EC008E2E3
:103B600012E08093280229833A834B835C83698126
:103B70007A818B819C81A70196010E94DB356D8340
:103B80007E838F839887862F805D2D813E814F8134
:103B90005885232B242B252B09F042C041E050E00F
:103BA0005A87498780E289809A80AB80BC808928C7
:103BB0008A288B2809F080E3BAE0CB2ED12CE12CA7
:103BC000F12CD8018E938D0169817A818B819C8142
:103BD000A70196010E94DB3529833A834B835C83DE
:103BE000E985FA853196FA87E987339709F455CF45
:103BF000CA01B901A70196010E94DB356D837E835E
:103C00008F839887862F805D8D809E80AF80B8845B
:103C100089288A288B28A9F6C5CF1A861986CCCF81
:103C200021E030E03A872987C7CF8F5F082F10E067
:103C30001B01082E02C0220C331C0A94E2F7A101DA
:103C400042235323452B89F39091B60490FD44C041
:103C500098013695279536952795922F8295880F4E
:103C600080763FE1380F8093040120930701309361
:103C700005019093080124E630E047E050E062E05F
:103C800071E088E70E944D33892B09F07DCEA801B1
:103C9000F5E0440F551FFA95E1F78091B60480FDD9
:103CA00023C042555D4F04E610E020E230E060E4BE
:103CB00088E70E947433892B09F066CE5101A094E5
:103CC000B0948091AA029091AB02A822B922B0923E
:103CD000AB02A092AA0258CE880F880F880F37E057
:103CE000380F20E093E0BFCFEBE2F2E080E2DF01AB
:103CF0001D928A95E9F7E5E7F1E0FE83ED8301E7A0
:103D000011E079E7C72E71E0D72EE7E05E2E772429
:103D10007394AD81BE818D91BE83AD83F8012191F5
:103D20008F01240F352F311D22553D4FE82FF0E034
:103D3000E55DFD4F80E090E0652C681A872C082E29
:103D400001C0880C0A94EAF77901A12CD701BD9033
:103D50007D01B820662D6A19677070E0BB2D062EB4
:103D600001C0BB0F0A94EAF79B2E7195619571090A
:103D70006770772701C0B6946A95EAF79B2860813F
:103D8000962A9082A39468E0962EA910DFCF019620
:103D900031968830910581F6AD80BE80CA14DB046F
:103DA00009F0B7CF04E610E020E230E04BE252E049
:103DB0007ECF0F931F93CF93DF93C62FD42F122F55
:103DC0008823A9F0609380050E94701B90930702DE
:103DD00080930602C77081E001C0880FCA95EAF798
:103DE0000E949916DF91CF911F910F9108958091B4
:103DF0008005681332C080910602909107020E94EC
:103E00001B1C883C910548F5CD130CC0812F0E94E6
:103E10007D16D77081E001C0880FDA95EAF70E941D
:103E2000A316E0CFC77001E0802F01C0880FCA95AC
:103E3000EAF70E94A31680E28D0F883050F48D2F90
:103E4000877001C0000F8A95EAF7802F0E949916AB
:103E5000DDCF812F0E947D16C5CFC77081E001C0E4
:103E6000880FCA95EAF7DBCFA8E0B0E0EAE3FFE10C
:103E70000C947C357C01DC0114968C91882309F428
:103E8000D4C061E0C7010E9484128C01F7018581D2
:103E9000882309F435C598013A9521153F4408F067
:103EA0008DC098013327A90144505109443251056E
:103EB00028F02B5231092E30310588F4E0917F052E
:103EC000F0E0EE0FFF1FE35BFA4F208131812F3FBF
:103ED0004FE7340721F02F5F3F4F31832083980154
:103EE00037572038310508F016C5003108F09DC05D
:103EF0008FEF93E00E94BC36811197C029E2E22E39
:103F000022E0F22E011161C01A821982FE0133965D
:103F100086E0DF011D928A95E9F79AE0892E670114
:103F2000BFEFCB1ADB0AC7010E94BC3689831A8215
:103F3000882309F47AC0813009F07BC087010E5FC5
:103F40001F4FC6010E94BC368A83882309F46DC0C6
:103F50009FEF980F933008F046C0E3E0EE0EF11C9F
:103F6000C8010E94BC368B83882309F45EC01C8282
:103F70008E010F5F1F4FD8018C91882381F2813011
:103F800009F099C011968C911197813009F053C0B6
:103F90006801B2E0CB0ED11CF80182810E947D162F
:103FA00086010F5F1F4F8AE0AFE9BFE01197F1F77D
:103FB00000C0000081508111F7CFDDCF0F3F110508
:103FC00011F008F08CCF98016ECFE11484E0F80670
:103FD00061F1C7010E94BC36D70111967D018111A4
:103FE000F4CF01508FCF8430B9F482E0E82EF12C69
:103FF000C8010F5F1F4F0E94BC36E1E0F0E0EC0FFC
:10400000FD1FEE0DFF1D8083882379F08C3731F47E
:10401000FE01EE0DFF1D12827801AACFFFEFEF1A0D
:10402000FF0A27E0E216F10419F72896ECE00C9459
:10403000983576019DCF823049F46801F2E0CF0EC9
:10404000D11C12968C910E94FF15AACF833049F49F
:104050006801B2E0CB0ED11CF80182810E944C169F
:104060009FCF843019F00F5F1F4F9BCF12962C917A
:104070000E5F1F4F80E090E0A8014F5F5F4F20531D
:10408000330B2A30310558F0009709F48ACFAFE995
:10409000BFE01197F1F700C000000197F5CF889EAF
:1040A000B001899E700D1124C901860F971FF80178
:1040B00021818A01E1CFE82FF0E0EB5AF34F949091
:1040C000282F26952695269530E0F901EB5BF34FD6
:1040D00094918770F901EB5CF34FA490B12C082EFA
:1040E00002C0B594A7940A94E2F7B1E0AB22BB24D6
:1040F000F901EB5DF34FC490D12C082E02C0D5948A
:10410000C7940A94E2F7E1E0CE22DD24292F30E0C3
:1041100002C0359527958A95E2F720FF0BC081EE06
:104120000E94FF15A114B104E1F4892D0E947D16AF
:1041300081EE14C0A114B10451F4892D0E947D16A2
:10414000CD2809F42ECF8CE20E947D162ACF86EE70
:104150000E94FF15892D0E947D1686EE0E944C1646
:10416000EFCF86EE0E94FF15892D0E947D1686EE08
:104170000E944C16DDCF26E241EE61EE0E94D91E70
:1041800054CF27E245EE65EEF9CF26E241EE60EE30
:10419000F5CF27E245EE64EEF1CF26E241EE62EE86
:1041A000EDCF27E245EE66EEE9CF28E241E0EBCF26
:1041B0000631BCE71B0709F0E0C08091830569E286
:1041C000811165E384EF91E00E94190BD3C08091C7
:1041D00081058160809381056091810570918205E0
:1041E00084E090E00E94FE360E9419131ECF809159
:1041F0008205886080938205EFCF8091810582607F
:10420000E9CF809181058460E5CF80918105886048
:10421000E1CF809182058160EDCF8091820582603F
:10422000E9CF809181058061D5CF80918105806241
:10423000D1CF809181058064CDCF0E9419138091E8
:1042400081058068C7CF809181058C60C3CF809144
:1042500082058360CFCF809181058E7FBBCF809117
:104260008205877FC7CF809181058D7FB3CF8091F5
:1042700081058B7FAFCF80918105877FABCF809108
:1042800082058E7FB7CF809182058D7FB3CF8091DD
:1042900081058F7E9FCF809181058F7D9BCF8091FF
:1042A00081058F7B97CF0E941913809181058F77AD
:1042B00091CF80918105837F8DCF809182058C7F06
:1042C00099CF8091810582FB992790F921E092276F
:1042D00090FB82F990FB83F97DCF80918205982F26
:1042E000909591708E7F892B90FB81F983CF90916F
:1042F0008105892F8F7B96FF80646CCF0E941913F4
:1043000090918105892F97FB87F9805863CF61E0F1
:104310008EE090E00E94E0365FCF60E0F9CF9091B0
:104320008105892F8F7E94FF806154CF9091810504
:10433000892F8E7F90FF81604DCF90918205892FCC
:10434000877F93FF886056CF0631ECE71E0709F0A0
:104350009EC080918F058A7A91E0811101C090E022
:104360009093830565E3811101C069E284EF91E0D8
:104370000E94FF0A0E94F21258CE80918F0582722D
:10438000F801E052F847E531F10508F0A7C0E05E1A
:10439000F84C0C941C368091870580FF1EC0282F96
:1043A0002E7F209387053091880540918905509193
:1043B0008A0560918B0570918C0580918D05909197
:1043C0008E050E94AE160E947B0A80918605816050
:1043D000809386050E943C0D28CE816080938705DE
:1043E00061E0869586950E94A31B1FCE4DEF5BE191
:1043F00061EF7BE10E94820A18CE41EF5BE16DEF35
:104400007BE1F8CF42EC57E168EB77E1F3CF48EB83
:1044100057E162EC77E1EECF49ED57E16CEC77E1E3
:10442000E9CF4CEC57E169ED77E1E4CF43EF57E199
:1044300066EE77E1DFCF46EE57E163EF77E1DACF63
:104440004AE057E160EF76E1D5CF40EF56E16AE010
:1044500077E1D0CF61E081E0C6CF65E082E00E94E5
:104460000A1CE3CD68E086E0FACF6EE089E0F7CF82
:1044700064E18FE0F4CF67E185E1F1CF61E088E1AD
:10448000B2CF62E289E1EBCF61E083E2ACCF0737E4
:10449000FCE71F0709F44CC082E008372CE712073D
:1044A00009F447C001308CE7180709F454C0033001
:1044B0009CE7190709F449C00115ACE71A0709F090
:1044C0004CC00E941913BFEFE4E3FCE0B150E040A0
:1044D000F040E1F700C000000E949B0B07373CE76B
:1044E000130779F182E008374CE7140759F1D70137
:1044F000CD90DC90C6010E946C07182FB601812F69
:104500000E943A120E94A308182FD70115962C91E9
:10451000159716963C9132953F70E92FE295EF7012
:10452000903C08F05AC0F0E0EB5CF84C0C941C3660
:1045300081E00E94DF0643E062E081E00E9485079F
:1045400074CD81E00E94EB06F6CF6FEF7FEF80E045
:1045500090E00E94FE360E942F13F701C080D180A8
:10456000C6010E945912182F682FC6010E945207D7
:10457000C5CF092F0F70903110F00295007F2223D4
:10458000C9F0002369F080E2810F883010F011112A
:104590000BC080918F05802B80938F050E94F212B3
:1045A000812F0E94FF1519C080919305802B809365
:1045B0009305F4CF812F0E944C16002371F00095D3
:1045C00080E2810F883010F011110CC080918F05AE
:1045D000802380938F050E94F21260E0C7010E9441
:1045E000841223CD80919305802380939305F3CF8C
:1045F000892F8F70907F903211F08295807F1130DB
:1046000061F4222329F0363040F70E949916E5CF55
:10461000353018F70E94A316E0CF222319F0332378
:10462000A1F3BECF3323B1F3193369F4BFEFE7EE43
:10463000F3E0B150E040F040E1F700C00000812F0E
:104640000E944C16CACF8FE39CE90197F1F7F5CF92
:10465000892F869586958370882361F0813009F0D3
:10466000BCCF812F9370211102C080E090E00E94A6
:10467000D90AB3CF812F9370211102C080E090E05E
:104680000E94B30AAACF892F8370811136C02111ED
:1046900029C0812F829586958770880F880F212FDA
:1046A0002F70082E01C0220F0A94EAF7107111230F
:1046B00041F04FE050E001C0440F8A95EAF7142F13
:1046C0001095969596959370923091F0812F822B4C
:1046D000933031F080919005913039F0212B822375
:1046E0000E94D9060E94A20A78CF822B812BF8CF94
:1046F000212B809190058227F3CF222361F190FF37
:10470000F1CF812F829586958770880F880F212F92
:104710002F70082E01C0220F0A94EAF7107111239E
:1047200041F04FE050E001C0440F8A95EAF7142FA2
:104730001095969596959370923099F0812F822BD3
:10474000933031F080919105913041F0212B8223FB
:104750000E94DC06C7CF823028F2D3CF822B812B78
:10476000F7CF212B809191058227F2CF092F0F706F
:10477000222339F0802F0E94DF06812F0E94991694
:10478000B1CF0E94A316802F0E94EB06ABCF823FD1
:1047900081F160F4803F99F0813F21F12223E1F122
:1047A0003323B9F1812F0E94FF159CCF833F31F154
:1047B0002111F6CF311141C0892F8F71E5CF22230E
:1047C00079F0353008F08ECF292F2F7181E090E0FD
:1047D00001C0880F2A95EAF7909191058927B8CFF3
:1047E0003530F0CF892F8F71222371F20E94DF06BE
:1047F00079CF892F8F712223C9F3C6CF80E022237E
:1048000009F4A6CF9F7181E001C0880F9A95EAF75D
:104810009FCF892F8F71EACF332371F2893369F4E7
:104820009FEFA7EEB3E09150A040B040E1F700C089
:104830000000812F0E944C1655CFEFE3FCE9319721
:10484000F1F7F5CF833FD1F138F5813F09F440C04E
:10485000823FB1F1803F41F180919205332309F409
:1048600043C0882341F08091940591E0892780938B
:10487000940510929205211193CE8FE39CE9019744
:10488000F1F700C00000812F0E944C1687E0D7018D
:104890001D928A95E9F7A1CE843FA9F0853FE1F604
:1048A00021119BCE81E007C0222309F496CE80918E
:1048B000940591E08927809394058FCE81E0282785
:1048C000209394058ACE211188CE1092940585CE2E
:1048D000222339F080919205882349F310929205A2
:1048E0007CCE353020F379CE882309F476CE2111A1
:1048F00074CE8091940591E0892780939405EECF42
:10490000F801E851FC47E730F10508F051CCEF5BC6
:10491000F84C0C941C36F801E851FC47E730F105DF
:10492000B0F310928005C8019057839708F00CCD22
:1049300084E090E00E94CA369093820580938105BE
:10494000F801E150F047E232F10508F040CCE85BB5
:10495000F84C0C941C368091DE05803178F48091FF
:10496000DD05882359F0E0919F0520919E05309147
:10497000D9054091D80557E02E1301C008956E2F38
:1049800070E05E9FF0011124DF01A056BA4F14962B
:104990008C911497882361F111968C911197831350
:1049A00027C08C91841324C015968C911597811182
:1049B0001FC012968D919C91A091DA05B091DB05F4
:1049C0008A1B9B0B883C910598F48091DE058F70C3
:1049D00080618093DE05EA55FA4F80818F70806197
:1049E000808388ED95E00E94341F0E94A6070895F9
:1049F000FB013196E770C0CFADE0B0E0E2E0F5E258
:104A00000C947A358C0186E0F801DE01189601904D
:104A10000D928A95E1F7F8017080F580A280B3804D
:104A2000E48088ED882E85E0982E6090DC0561108A
:104A30002DC0EE2041F1FF2009F447C1C8010E94BA
:104A4000B312882309F441C187E0F801D401019031
:104A50000D928A95E1F7F1E0EF1213C08091D8052D
:104A60009091D9050E94A41292959F70963049F4B6
:104A7000863F39F0809194058E2580939405E092CD
:104A800092050E94AB24FF24F39453C0D090DD051F
:104A90008091DA059091DB059501281B390BDD200B
:104AA00009F4E4C0283C310508F09FC0EE2059F31A
:104AB0008091D905C180E090DE05FFE0FE1508F485
:104AC00059C0C81215C08091D805871111C0F110C6
:104AD0004BC08E2D8F7080618093DE0588ED95E050
:104AE0000E94341F8091DE05F8018683F12C21C0DD
:104AF000F1103AC040E06C2D872D0E941D0D40E062
:104B00006C2D872D0E941D0DF82E8111EFCF888509
:104B100099850E94A412292F22952F70903470F449
:104B20009F702230A0F09923B1F0F8019681903166
:104B300090F48F2D2D96EEE00C9496352A5F2F7011
:104B4000223068F0C8010E94341FFD2CF2CF992357
:104B500011F0882371F3805E883058F3F3CF803FE3
:104B600040F3815F8230F9CF8091DE0581608093D0
:104B7000DE05BCCFC81214C08091D805871110C0C3
:104B8000F1100EC0F801E682C8010E94341F87E0D0
:104B9000F801A8EDB5E001900D928A95E1F773CF89
:104BA000C8010E94B312882309F48FC0FF2009F4C2
:104BB0008CC08091DE05803278F08091D80590918C
:104BC000D9059A838983BC82AB826D821E82EF8273
:104BD000CE0101960E94341F87E0F801A8EDB5E0F0
:104BE00001900D928A95E1F74CCFD090DE05FFE061
:104BF000FD1550F088ED95E00E94341F87E0F40128
:104C000011928A95E9F772CFEE2009F43CCF90918A
:104C1000D905F8018181981310C08091D8058711BA
:104C20000CC0F1100AC0D682C8010E94341F87E070
:104C3000F40111928A95E9F726CFC8010E94B312B8
:104C4000882309F442C0FF2009F43FC08091DE05AB
:104C5000803210F28091D8059091D9059A8389838A
:104C6000BC82AB826D821E82DF82B2CF283C3105CE
:104C700028F6EE2009F407CFFF2039F19091D905ED
:104C80008181981318C08091D805871114C0809134
:104C9000DE0580FD7CCF803108F479CF8683807F6C
:104CA000803F09F471CF8681982F907F905F8F703D
:104CB000892B868369CFC8010E94B31281118CCFE2
:104CC0008091DE0581608093DE05C8010E94341F5B
:104CD000DACEABE1B0E0EFE6F6E20C948535688F12
:104CE000798F282F8A8F692F9B8F911110929305AE
:104CF0008823B9F1813009F076C05A3090F54630FA
:104D000080F5E42FF0E086E0589FE00DF11D1124BE
:104D1000CF018770992721E030E001C0220F8A95EA
:104D2000EAF7DF0173E0B695A7957A95E1F7AA5601
:104D3000BA4F7C9180919405611102C0872F822324
:104D4000882309F44CC0CF01880F991FFC01E85259
:104D5000F34F5491FC01E952F34FE4914E2F722B23
:104D60007C931D8A4E8B5F8B86E0FE017696DE017A
:104D70001F9601900D928A95E1F78B89882329F07F
:104D800061E0CE010F960E94841287E0FE013F96FB
:104D9000DE01189601900D928A95E1F7CE010896F2
:104DA0000E94FC24811110C087E0FE013896DE01CC
:104DB000119601900D928A95E1F720919E05409100
:104DC0009F058C8581113DC017E080919F059091D2
:104DD0009E05891360C06B96E3E00C94A135209585
:104DE00027232C93BECF2250223008F0BACF84E084
:104DF000850F823008F0B5CFE42FF0E0242F277024
:104E000081E090E001C0880F2A95EAF7DF0193E086
:104E1000B695A7959A95E1F7AB56BA4F2C9130917C
:104E20009405611102C0322F3823332331F0EB5245
:104E3000F34FE4914E2F282BD4CF809582238C936F
:104E400090CF30E0C90101968770992750E0841710
:104E5000950771F40E94191310929E0510929F05F8
:104E600087E0E8EDF5E0DF011D928A95E9F7ACCF28
:104E700097E0929FD001939FB00D1124A056BA4F96
:104E8000FE01319601900D929A95E1F780939E056F
:104E90000E94A60799CF189FC001112480569A4FEF
:104EA0000E94FC24882309F496CF80919F0590E00E
:104EB00001968770992780939F0587CFA6E0B0E081
:104EC000E4E6F7E20C9484350E94701B8C0180911B
:104ED0002605909127058017910779F019821A828B
:104EE0000E94701BBC0149815A8180E090E00E94C1
:104EF000692610932705009326052696E4E00C9476
:104F0000A035ACE0B0E0E7E8F7E20C948435182F68
:104F10008F83662391F10DEF08870E94701BBC01FF
:104F200089879A8782E08B8781E08C874F815885BB
:104F300082E091E00E9469268FE39CE90197F1F7F6
:104F400000C0000019830A830E94701B282F82E092
:104F5000622F792F2B839C838D831E8249815A81F6
:104F600090E00E9469268FE39CE90197F1F700C069
:104F700000002C96E4E00C94A0350CEF08870E940A
:104F8000701BBC0189879A8783E08B8781E08C87BF
:104F90004F81588583E091E00E9469268FE39CE968
:104FA0000197F1F700C0000019830A830E94701B6B
:104FB000282F83E0CDCFA1E0B0E0E1EEF7E20C9442
:104FC0007F35EE24E394F12C0FE015E09E012F5F76
:104FD0003F4F4BEF54E063E082E00E94BC18082F83
:104FE000882339F1D12C80E01DC0C090FA04CD0C8B
:104FF0002C2D30E0A90148505B4F7A01E1E0F0E050
:10500000EC0FFD1FED0DF11D1081FA019081191BB0
:10501000B12E1B149CF0912F17FD90E0191B11115C
:1050200018C0D3949091F704D916F8F281110E9418
:10503000780B802F2196E9E00C949B35BA94F70108
:1050400080818F5F808360E08C2D0E948127802F7C
:10505000E0CF1F5FF70180818150808361E08C2D5C
:105060000E948127802FDBCFA9E1B0E0EAE3F8E2DC
:105070000C9479351D861C86FE013E9688E0DF0182
:105080001D928A95E9F78EE9E82E81E0F82E8E01CF
:10509000045F1F4F93EAC92E91E0D92E3801AA244C
:1050A000A394B12C39EA832E31E0932EF70181913C
:1050B0007F018F3F09F441C0F894E82FE295EF702B
:1050C000F0E021A18F70A50102C0440F551F8A9501
:1050D000E2F7CA01922F982B91A392A18095892380
:1050E00082A3789400C0E3EAF1E031E0512C2191F1
:1050F0002F3F09F4A2C0A22FA295AF70A05EB0E02E
:105100008C9190E02F7002C0959587952A95E2F7D3
:105110008170811192C0832F582A330F8E169F06FB
:1051200031F7F701319780818F3F11F00E94C70955
:1051300050EA5A95F1F7D8015C920F5F1F4FCE14D9
:10514000DF0409F0B3CF4AE050E0B3018EE992E00A
:105150000E94A6360091A90210E001521B4F892B34
:1051600009F46DC08AE0F301AEE9B2E001900D925E
:105170008A95E1F781E0809305020E94701B90936D
:1051800004028093030280912405882309F4AFC0B0
:105190001A821982FE01339683E0DF011D928A95FF
:1051A000E9F7809108028A3008F06BC041E159E1CB
:1051B000FE0131967F01BF01C8010E949F10670167
:1051C000882309F482C04BED57E2B701C8010E9461
:1051D0009F10882309F479C040EC59E1B701C80158
:1051E0000E949F10882309F470C047E759E1B70176
:1051F000C8010E949F10882309F467C043EA59E15F
:10520000B701C8010E949F10882309F45EC0109264
:1052100008028091A80290E045E050E0B60181527A
:105220009B4F0E94A63621E020930202892B09F0B1
:105230003FC06996EFE00C94953580E06DCF80918A
:105240000502882309F49FCF809103029091040204
:105250000E941B1C059708F496CF45E050E06EE9CC
:1052600072E0C8010E94A636892B41F085E0EEE984
:10527000F2E0D80101900D928A95E1F710920502B3
:1052800082CF80910002909101020E941B1C843FFA
:10529000914008F08BCF80910202882351F285E083
:1052A000FE013196DF011D928A95E9F71092020204
:1052B000A091A802B0E0A152BB4F85E0FE0131965B
:1052C00001900D928A95E1F7B4CF809108028F3F4B
:1052D00039F40E94701B9093010280930002DBCF8F
:1052E0008F5F809308028A3008F493CFF2CF85E075
:1052F000F801A9E0B5E001900D928A95E1F765E02B
:1053000070E089E095E00E94890A80930805409149
:10531000DB0450E06091DA0470E068507B4F8E014E
:105320000F5F1F4FC8010E94B336898180930F051C
:1053300061E070E0C8010E94890A80930E05C09068
:105340001005D0901105E0901205F09013058091A2
:10535000FC019091FD01A091FE01B091FF01C816E2
:10536000D906EA06FB06B1F0C092FC01D092FD011D
:10537000E092FE01F092FF010E94280BC61AD70AA4
:10538000E80AF90AC0922005D0922105E092220590
:10539000F09223058BE0E4E1F5E0D80101900D9255
:1053A0008A95E1F78091140586958695F09015050C
:1053B000E0901605D090170500911D0510911E056F
:1053C00010921E05112301F110FF0BC0998190FF6F
:1053D00020C09091870591609093870560E00E94BE
:1053E000A31B11FF06C020E04D2D6E2D8F2D0E94B6
:1053F000241712FF04C0002379F00E94871B13FFBB
:1054000003C081E08093D50480911F058093EA0456
:1054100010CF0E94A20FE5CF0E947B0AF0CFCDB73C
:10542000DEB7A8970FB6F894DEBF0FBECDBF85B725
:10543000806885BF85B7806885BF84B7877F84BF54
:105440000FB6F894A8958091600088618093600001
:10545000109260000FBE80E890E00FB6F894809341
:105460006100909361000FBE85EC99E09093F30189
:105470008093F2010E945A0C0E94C20C8091E200BB
:1054800084608093E20078948091E904882399F005
:105490008091E9001091EC001795112717958F70F6
:1054A000182B1092E9008091E80083FD0E944513BB
:1054B0001F701093E90082E084BD93E095BD9AEFE0
:1054C00097BD80936E0010922005109221051092D6
:1054D0002205109223050E94D912811102C00E9458
:1054E000C31188EC90E02091E30027FDDDC6AFE317
:1054F000BCE91197F1F700C000000197009799F7F8
:105500000E945A0C1092E90410922405109225056D
:1055100010921C018CE080931701809318018091F8
:105520001C0191E089278093DA04B92FB81BB0934E
:10553000FA0480911C019093DB0480911C019093EC
:10554000F70480911C01811106C084EF809329012A
:1055500085EF8093280180912901E82FE295EF7073
:10556000F0E041A18F7021E030E0B90102C0660F88
:10557000771F8A95E2F7CB01962F9095942391A3FC
:1055800092A1892B82A380912801E82FE295EF70E8
:10559000F0E041A18F70D90102C0AA0FBB1F8A950C
:1055A000E2F7CD019A2F9095942391A392A1892B94
:1055B00082A3EFE8F1E03197F1F700C0000010910D
:1055C000DB0469E271E048E251E0ECEDEE2EE4E04C
:1055D000FE2EFB018E2F861B811708F470C0809170
:1055E0001C0180911C0190E0811101C095E0909315
:1055F000A90285E0891B8093A8020EE911E033EA35
:10560000E32E31E0F32EF80181918F018F3F11F0ED
:105610000E94C709E016F106B1F703EA11E029EA92
:10562000E22E21E0F22ED8018D918D018F3F11F0F5
:105630000E94C709E016F106B1F78AE0EFEDF4E049
:10564000DF01282F1D922A95E9F7EEE9F2E0DF014C
:105650001D928A95E9F780E090E00E94CA36863E66
:105660009E4F21F40E94D912811102C00E9400189D
:1056700082E090E00E94BC368093BA0484E090E01F
:105680000E94CA3690938205809381050E94342837
:10569000EFEFF6E721E0E150F0402040E1F700C0F5
:1056A00000000E9434288091DF0480FF30C06FEF3B
:1056B0007FEF80E090E00E94FE360E949B0B0191FC
:1056C000802F82958F70805E90E0DC012C91DA0152
:1056D0003D91AD01832F82958F70805E90E0DC015B
:1056E0008C9190E03F7002C0959587953A95E2F7CE
:1056F0008170880F30E00F7002C0359527950A95AC
:10570000E2F72170822BD7018D937D0163CF83E077
:1057100090E00E94BC360E94D90683E08093B604D4
:1057200080E28093B5040E94A8326BE070E088E0CC
:105730009CE00E94011A882309F443C08091B604BA
:1057400065E070E081FD44C183E09CE00E94011AA5
:105750008823B9F16DE070E081EF9BE00E94011AAF
:10576000882379F10E94280B69A37AA38BA39CA3B9
:10577000DC01CB0180529C46AB4FBF4F8093B104FC
:105780009093B204A093B304B093B404EEEAF2E0B1
:1057900080E092E0DF019C011D9221503040E1F752
:1057A000F093AD02E093AC028FEF9FEF9093AB02CA
:1057B0008093AA0281E08093B0048093AF0410929A
:1057C000AE048091B704811197C080E090E00E9400
:1057D000CA36863E9E4F21F40E94D912811104C020
:1057E0000E9400180E94D41688E090E00E94C436FF
:1057F0006B017C0184E290E00E94BC36282F30E0EF
:1058000040E050E060E070E080E090E000E20E9464
:105810005A36E22FA32EB42EB52FA62FF72F9701BD
:10582000860140E050E0BA01EC29A12AB22AB32B4C
:10583000A42BF52B862B972BE0938705A092880548
:10584000B0928905B0938A05A0938B05F0938C05DF
:1058500080938D0590938E0580918605836080935B
:105860008605E430C8F50E94D41688E090E00E94D6
:10587000C4366B017C0184E290E00E94BC36282F84
:1058800030E040E050E060E070E080E090E000E276
:105890000E945A365901B42FA52FF62FE72F9701F2
:1058A000860140E050E0BA01AC28B12AB22BA32B0C
:1058B000F42BE52B862B972BA0928705B0928805B9
:1058C000B0938905A0938A05F0938B05E0938C052E
:1058D00080938D0590938E050E946D0A0E947B0A2D
:1058E0008091870580FF05C060E0869586950E94BF
:1058F000A31B81E08093B70480912405811102C02D
:105900000E9402348DE191E090932905809328054F
:1059100090E4392E8091E904853049F48091E904BE
:10592000853009F458C00E9419130E94A20A0E94EF
:1059300034280BEB14E08FEDE82E84E0F82E25ECF4
:1059400034E0D701F80191918D912E173F0709F4AA
:1059500095C09817C1F380902405D12C77247394B7
:10596000D701CD907D01F80191908F019C1439F100
:105970009C24B12CAA24A394892D8A218823B9F0D0
:105980008820A9F0B982DA820E94701B9C838B83E5
:105990007D8291E08C2D8A21811101C090E09E834F
:1059A00049815A816B817C818D810E946926B394E3
:1059B000AA0CF6E0BF12E0CFF8013197C082D39471
:1059C0002AE0D212CDCF0E94450B222423945BC043
:1059D0008EEF9BE0BBCE8091E904843029F10E94D8
:1059E0002E1A1092B80468E170E00FB6F894A895EA
:1059F000609360000FBE3092600083B7817F846047
:105A000083BF83B7816083BF7894889583B78E7F87
:105A100083BF0FB6F894A895809160008861809349
:105A20006000109260000FBE8091B904882309F4D1
:105A300075CF0E943428EFEDF4E089EE94E02191D7
:105A4000211104C08E179F07D1F768CF80E189BD6F
:105A500082E189BD09B400FEFDCF8091D8008F7D21
:105A60008093D8008091E00082608093E000809174
:105A7000E00081FDFCCF0E94191350CF98136BCF2B
:105A80000E945E27212C80912405882309F4C1C03F
:105A900080904D0590904E05092C000CAA08BB087B
:105AA00010912701E12EF12CEDE4F5E081E090E08A
:105AB0003296E816F9060CF01AC16091CB04709189
:105AC000CC048091CD049091CE040E947B0B2B01DD
:105AD0003C019401A501B7FE04C020E030E040E0A5
