:10000000B6C60000D1C60000CFC600000C94FE3179
:10001000CBC60000C9C60000C7C60000C5C60000A8
:10002000C3C60000C1C600000C94B22E0C949A2FD7
:100030000C94CE1AB9C60000B7C60000B5C60000C1
:10004000B3C60000B1C60000AFC60000ADC60000D8
:10005000ABC600000C948E2EA7C60000A5C60000FB
:10006000A3C60000A1C600009FC600009DC60000F8
:100070009BC6000099C6000097C6000095C6000008
:1000800093C6000091C600008FC600008DC6000018
:100090008BC6000089C6000087C6000085C6000028
:1000A00083C6000081C600007FC6000005010980EC
:1000B000A101850319012AB700150126B700950192
:1000C00075108100C0050C0901A101850419012AE0
:1000D000A002150126A002950175108100C00660DE
:1000E000FF0961A1010962150026FF00952075082E
:1000F00081020963150026FF00952075089102C052
:1001000005010906A101050719E029E715002501E8
:10011000950875018102950175088101050719008F
:1001200029FF150026FF00950675088100050819AE
:1001300001290515002501950575019102950175A7
:10014000039101C009025B00030100A0FA09040049
:1001500000010301010009211101000122440007EF
:1001600005810308000109040100020300000009E1
:10017000211101000122220007058203200001074E
:100180000503032000010904020001030000000927
:100190002111010001223200070584032000011211
:1001A0000100020000000832FC8702010001020089
:1001B00001340353006F0066006C0065005F00505F
:1001C000006F0073006900740072006F006E0045DC
:1001D000006C0065006300740072006F006E0069BF
:1001E00000630073000000280350006F0073006973
:1001F00000740072006F006E0045006C00650063C3
:1002000000740072006F006E0069006300730000EC
:10021000000403090435001E001F002000210022F5
:1002200000290014001A000800150017002B000414
:10023000001600070009000A00E1001D001B00066F
:100240000019000500E300E200E00022522800A8A7
:10025000003500270026002500240023002A001373
:100260000012000C0018001C00340033000F000EB8
:10027000000D000B00E500380037003600100011BB
:1002800000E700E600E40023522C00000035001EC9
:10029000001F00200021002200290014001A00097C
:1002A0000013000A002B00040015001600170007B9
:1002B00000E1001D001B00060019000500E300E23C
:1002C00000E00001002800A80035002700260025D6
:1002D00000240023002A0033001C0018000F000D2A
:1002E00000340012000C00080011000B00E500387B
:1002F000003700360010000E00E700E600E40001C1
:10030000002C00000001003A003B003C003D003E94
:100310000035001E001F0020002100220001001EE9
:10032000021F0220022102220201002E002D002EB7
:10033000022F023002010001000100010001000152
:1003400000440043004200410040003F00450027B8
:100350000026002500240023003102270226022562
:100360000224022302010031003302330030002F47
:100370000001000100010001000100010001000175
:100380000001000100010001000100490046006574
:1003900000000000000100E200E000E10000003980
:1003A0000001007A007B007C007D0000000100015C
:1003B0000001000100010001000100010001000135
:1003C00000010001002A0001000100520001004B61
:1003D000002A004C004F00510050004E0001000068
:1003E0000001000000010000000100010001000107
:1003F0000001000100A900AA004B004E000100010D
:1004000000010001002378247825782678277828B1
:100410007821782278000000000000000000000031
:10042000800000000000000000000000F8FC1EC674
:10043000F3FD3E0E0700F00CE2781C0602030101FA
:1004400001010101000E0800000000013FC139FF59
:10045000FF010000000001030F3E0000000008162D
:100460001E0C0000000000000000000000031C61E2
:100470009FFFF0000000000000000000180C044086
:100480007EFE82000000000000000000000000006E
:100490000301FF7E000000000000000000F0F8F8FB
:1004A000FCF8F0C0000000000000000000407030C8
:1004B0001C0E030000000000000000000000071FE9
:1004C0003F7F7FFFFFF8E0400000000000000000D9
:1004D000000000000000000000000000000000001C
:1004E000000000000000000000000000000000000C
:1004F00000000000004350534C4B000A0A00556EA8
:10050000646566005261697365004C6F77657200BF
:10051000426173650A004C41594552000A0A004D78
:100520006F6400436C6D6B0A00517772740A000AA5
:100530000A0057504D3A2000534F464C450000AE3C
:1005400000AF07087F0807003E5B4F5B3E003E6B35
:100550004F6B3E001C3E7C3E1C00183C7E3C18004D
:100560001C577D571C001C5E7F5E1C0000183C1849
:100570000000FFE7C3E7FF00001824180000FFE7B2
:10058000DBE7FF0030483A060E00262979292600CD
:10059000407F05050700407F05253F005A3CE73CAA
:1005A0005A007F3E1C1C0800081C1C3E7F001422C1
:1005B0007F2214005F5F005F5F0006097F017F00FC
:1005C000006689956A0060606060600094A2FFA286
:1005D000940008047E04080010207E201000080803
:1005E0002A1C0800081C2A0808001E101010100001
:1005F0000C1E0C1E0C0030383E383000060E3E0E2D
:10060000060000000000000000005F00000000077E
:1006100000070000147F147F1400242A7F2A120090
:10062000231308646200364956205000000807036F
:100630000000001C224100000041221C00002A1C76
:100640007F1C2A0008083E08080000807030000067
:100650000808080808000000606000002010080476
:1006600002003E5149453E0000427F400000724971
:10067000494946002141494D33001814127F1000AA
:100680002745454539003C4A494931004121110976
:100690000700364949493600464949291E000000ED
:1006A0001400000000403400000000081422410043
:1006B00014141414140000412214080002015909F2
:1006C00006003E415D594E007C1211127C007F49AC
:1006D000494936003E41414122007F4141413E00AF
:1006E0007F49494941007F09090901003E414151C3
:1006F00073007F0808087F0000417F410000204010
:10070000413F01007F08142241007F4040404000EB
:100710007F021C027F007F0408107F003E414141A0
:100720003E007F09090906003E4151215E007F0914
:100730001929460026494949320003017F01030077
:100740003F4040403F001F2040201F003F403840B6
:100750003F00631408146300030478040300615924
:10076000494D4300007F4141410002040810200030
:10077000004141417F00040201020400404040402A
:1007800040000003070800002054547840007F28F0
:1007900044443800384444442800384444287F0006
:1007A00038545454180000087E09020018A4A49C70
:1007B00078007F080404780000447D400000204059
:1007C000403D00007F102844000000417F400000B1
:1007D0007C04780478007C0804047800384444449D
:1007E0003800FC182424180018242418FC007C0865
:1007F0000404080048545454240004043F442400D2
:100800003C4040207C001C2040201C003C403040EC
:100810003C004428102844004C9090907C00446494
:10082000544C4400000836410000000077000000EE
:100830000041360800000201020402003C26232683
:100840003C00000000000000404040F0F8F8FF3895
:10085000FFF8F83FF8F8FF38FFF8F8F040404000A4
:10086000000000000080C0C0C0800000C0C0800048
:10087000000080C0C000C0C0000080C0C0000000F8
:100880000000C0C0C0C0C000C0C000000000000028
:100890000000000000000000000000000000000058
:1008A0000000000000000000000000000000000048
:1008B0000000000000000000000000000000000038
:1008C00000C0F0F8FC3E1E06010000007F414141DF
:1008D0007F007F4141417F000080C0E07E5B4F5B35
:1008E000FEC00000C000DCD7DEDEDED7DC00C000CA
:1008F00000000000000000000000000000000000F8
:100900000000000000000000494949FFFFFFFFE030
:10091000DFBFBF00BFBFDFE0FFFFFFFF4949490066
:10092000000000001F3F6060E0BF1F007F7F071EC8
:10093000381E077F7F007F7F0E1F3B716000000025
:1009400000007F7F0C0C0C007E7E007F7E03030086
:100950007F7E03037E7E03037F7E000F3E703C0696
:100960003C703E0F00327B49493F7E007F7E03038F
:10097000001E3F69696F26000000000000000000B3
:1009800000030F1F3F3C7870600000007F41414131
:100990007F007F4141417F00307B7F7830202030D5
:1009A000787F3B0003000F7F0F0F0F7F0F000300C6
:1009B0000000000000000000000000000000000037
:1009C0000000000000000000010101070F0F7F0F71
:1009D0007F0F0F7E0F0F7F0F7F0F0F0701010100A9
:1009E0000000000000000000000101000000000005
:1009F00000000000000000000000000000000000F7
:100A000000000000000000000000000000000000E6
:100A100000000000000000000000000000000000D6
:100A200000000000000000000000000000000000C6
:100A300000000000000000000000000000000000B6
:100A400000000000000000000000000000000000A6
:100A50000000000000000000000000000000000096
:100A60000000000000000000000000000000000086
:100A70000000000000000000000000000000000076
:100A800000002223252628292A2C2D2F3032333509
:100A900036383A3B3D3E4042434547494A4C4E502A
:100AA00051535557595A5C5E6062646668696B6D54
:100AB0006F71737577797B7D7F81838587898A8C58
:100AC0008E90929496989A9C9E9FA1A3A5A7A8AA5F
:100AD000ACAEAFB1B3B4B6B8B9BBBCBEBFC1C2C394
:100AE000C5C6C7C9CACBCCCDCED0D1D2D2D3D4D52E
:100AF000D6D7D7D8D9D9DADADBDBDBDCDCDCDCDC57
:100B0000DDDDDDDDDCDCDCDCDCDBDBDBDADAD9D92E
:100B1000D8D7D7D6D5D4D3D2D2D1D0CECDCCCBCABC
:100B2000C9C7C6C5C3C2C1BFBEBCBBB9B8B6B4B3E2
:100B3000B1AFAEACAAA8A7A5A3A19F9E9C9A989678
:100B40009492908E8C8A89878583817F7D7B79774B
:100B50007573716F6D6B6968666462605E5C5A592B
:100B600057555351504E4C4A4947454342403E3DEC
:100B70003B3A3836353332302F2D2C2A292826257A
:100B80002322FFAA7F55400001010101010101015B
:100B90000102020202020202020203030303030330
:100BA00003030404040404040405050505050606FE
:100BB00006060607070707070808080809090909BC
:100BC0000A0A0A0B0B0B0C0C0C0D0D0D0E0E0E0F62
:100BD0000F0F1010111111121213131414151516F2
:100BE000161717181819191A1A1B1B1C1D1D1E1E63
:100BF0001F202021222223242425262627282929B4
:100C00002A2B2C2D2D2E2F303132323334353637DE
:100C100038393A3B3C3D3E3F4041424344454647DC
:100C200048494A4C4D4E4F50515354555658595AB5
:100C30005B5D5E5F616264656668696B6C6D6F7059
:100C400072737577787A7B7D7E8082838587888AC8
:100C50008C8E8F91939596989A9C9EA0A2A3A5A7FF
:100C6000A9ABADAFB1B3B5B7BABCBEC0C2C4C6C9FB
:100C7000CBCDCFD1D4D6D8DBDDDFE2E4E7E9EBEEB4
:100C8000F0F3F5F8FAFDFF00DA028178D9F1DB2004
:100C9000A4A62EAF00A0C0D30000A1C8D30000AE10
:100CA000D580A81F408D1420001E0F0500047F3F33
:100CB0001F643214643214783C1E1E140A050000AE
:100CC0000000000000000000000000000000000024
:100CD0000000000000000000000000000000000014
:100CE00000007E0F00D4FFFFFFC700000078000067
:100CF0000000000000002A2B280000000000000077
:100D000000000000000000000029000000002C1E70
:100D10003420212224342627252E362D3738271E2D
:100D20001F202122232425263333362E37381F0453
:100D300005060708090A0B0C0D0E0F1011121314EB
:100D400015161718191A1B1C1D2F3130232D3504A9
:100D500005060708090A0B0C0D0E0F1011121314CB
:100D600015161718191A1B1C1D2F3130354C11245C
:100D70001FBECFEFDAE0DEBFCDBF26E0AAE3B2E0D0
:100D800001C01D92A13AB207E1F712E0A0E0B1E084
:100D9000E6E3FAE602C005900D92AA33B107D9F74F
:100DA0000E94D4270C94C6342BC9982F92959F701B
:100DB00061F420E0982F892F8695869511F02E5F9B
:100DC000982F892F8695820F089524E0F4CF809381
:100DD0005A06089580935B06089521E001C0220F12
:100DE0008A95EAF780915B06822BF4CF21E001C05F
:100DF000220F8A95EAF7822F809590915B068923CE
:100E0000E9CFCF93C1E061FDC4E060FDCC0F62FD8E
:100E1000C29593E0769567959A95E1F79B01220F2D
:100E2000331F260F371F420F531FFA0140E050E0D7
:100E300090E06191DF019C01042E02C03695279558
:100E40000A94E2F72695220B26272C2326272E9399
:100E50004F5F5F4F4330510561F7CF910895A82F41
:100E6000A77023E0969587952A95E1F79C01220FBC
:100E7000331F820F931F680F791FFB0140E050E082
:100E800080E0219130E00A2E02C0369527950A9421
:100E9000E2F72170042E01C0220F0A94EAF7822B98
:100EA0004F5F5F4F4330510561F70895282F862F1C
:100EB0009A3068F4263050F4622F70E026E0929F5A
:100EC000600D711D11244FEF55E09BCF08959C5F7D
:100ED0009230E0F7622F70E04CEF55E0F6CF292F0B
:100EE0009A3058F4863080F490E06FEF75E036E089
:100EF000239F800D911D1124B2CF2C5F223020F44E
:100F00006CEF75E090E0F8CF80E0089590915B067B
:100F100021E030E0F90101C0EE0F8A95EAF7D9012E
:100F200001C0AA0F6A95EAF7EA2B01C0220F4A9581
:100F3000EAF7892F8E23E81303C0892F822B4ACF2B
:100F40002095822F8923FBCFE09161069091600666
:100F5000E91302C080E008959F0157E0E59FF0018A
:100F60001124EE59F94F5181561306C05081581380
:100F700003C05581541305C02F5F3F4FF901E7703F
:100F8000E7CF81E0089580916106209160062813E3
:100F900001C0089501968770FACF90915C06809504
:100FA000892380935C06282F277061F4891751F0FC
:100FB00090915E0692FF06C086958695869516DF0F
:100FC00010925C0608958095982F8091570689238A
:100FD000809357060895803E9105D1F1C8F481337E
:100FE000910509F481C048F48932910509F471C072
:100FF0008A32910509F47FC0089589339105E1F0A3
:1010000082389105C9F08533910509F45DC00895D2
:10101000843E9105D1F148F4823E910531F1833E41
:10102000910541F181EE90E00895863E9105C1F170
:10103000873E9105F1F1089520915D06237009F036
:1010400064C020915E0623FF14C089E290E00895F9
:1010500020915D0620FD45C030915E0630FF09C03D
:1010600024FD24C083EE90E0089520915D0622FDCA
:10107000F7CF089520915D0622FD44C030915E06B1
:1010800030FD43C024FFF5CF11C020915E0621FF43
:10109000F0CF80915D0684FD09C087EE90E0089551
:1010A00020915D0623FFE5CF24FFF7CF80E090E09D
:1010B000089520915D0623FD2BC030915E0631FF1F
:1010C000E1CF84EE90E0089520915D0625FFD1CF19
:1010D000BCCF20915D0625FD1EC020915E0623FF3A
:1010E000C8CF89E390E0089520915D0626FFC1CF27
:1010F0008AE290E0089520915D0626FFBACF81E351
:1011000090E0089582EE90E0089580EE90E00895DA
:1011100086EE90E0089585E390E0089590915D0655
:1011200092FF10C041E0282F2471243009F040E0E4
:1011300031E0282F2871283009F030E0431711F0F2
:101140002CE0822793FF10C041E0282F2471243126
:1011500009F040E031E0282F2871283109F030E013
:10116000431711F02CE0822730915E0630FF10C04B
:1011700051E0282F2171213009F050E041E0282F63
:101180002871283009F040E0541711F029E0822737
:1011900031FF10C041E0282F2171213109F040E0DA
:1011A00031E0282F2871283109F030E0431711F081
:1011B00029E0822794FD877E08950F931F93CF9394
:1011C000DF9309DFEC01D23508F04DC0D03508F0CF
:1011D000C3C0C03ED10530F5CD3CD10508F09AC062
:1011E000C83AD10578F4C53AD10508F090C0C130AD
:1011F000D10599F1CE010497813A910570F1C0E0D3
:10120000D0E02BC0CE01885A91094B97C0F7C85A3D
:10121000D0E0CC0FDD1FC353DE4F0990D881C02D25
:10122000D4641BC0D03490F4D03208F0A8C0C83EBB
:10123000D10598F0CE0191509F3108F78D2F6EDFC8
:10124000082F8C2F90E0C7DE902B54C08C2F90E09D
:10125000C2DEDF70C82FD92BD06ACE01DF91CF91CB
:101260001F910F910895C03882E5D807B8F5C036B0
:1012700082E5D80708F056C0C03482E5D807C8F424
:10128000C03282E5D80708F047C08C2F8695869536
:1012900020E2829FC0011124C37021E030E002C02F
:1012A000220F331FCA95E2F7E901C82BD92BDD685D
:1012B000D4CF8C2F86958695877020E2829FC001BF
:1012C0001124C37021E030E002C0220F331FCA9501
:1012D000E2F7E901C82BD92BDC68BFCFC03C82E51F
:1012E000D80750F48C2F8F71C03AD24580F5982FD3
:1012F00084EF906AEC01B1CFCE01805C924580977B
:1013000008F07DCFDC2FDF71C0EFD06AA6CFA497A5
:10131000D064A3CFD065A1CF8C2F8F71D82FC1EF10
:10132000D06A9BCF8C2F86958695877020E2829F0E
:10133000C0011124C37021E030E002C0220F331F2E
:10134000CA95E2F7E901C82BD92BDA6886CFE6DE29
:10135000C0E0D82FD06281CF8C2F8F71DFDE93E079
:10136000CC0FDD1F9A95E1F7DF70282F84FF04C0B2
:1013700090E1899F90011124C22FD0696ECF8D2FEB
:101380008F71CCDE082F8C2F90E025DE902BEC01A6
:10139000E1CF80E00895F894E82FE295EF70F0E057
:1013A00041A18F7021E001C0220F8A95EAF7922FA8
:1013B0009095942391A392A1822F892B82A3789454
:1013C000089581E080938C0508950895CF92DF926F
:1013D000EF92FF921F93CF93DF93462F172FE82FA3
:1013E000F0E0E957F44F71110CC0E4918E2F7E2F7D
:1013F0006E2FDF91CF911F91FF90EF90DF90CF90F4
:101400000895F491EF2F86E0689FE00111242FEFFB
:1014100030E0CE01B9010E940933DB01CA01880F17
:10142000991F65E56A9FA0016B9F500D1124841BD5
:10143000482F440F480FC901811B9109F89F700183
:10144000F99FF00C11248F2D149FB0011124672FE8
:1014500070E06901C61AD70AB601F69F6001F79FCE
:10146000D00C1124A330B10549F1B901641B7109F5
:10147000AB01149FB001159F700D1124672F70E010
:10148000261B370BF29FA001F39F500D1124752FDF
:10149000CC3FD34050F4A130B105A1F0129709F030
:1014A000A7CFEF2D852F7F2FA3CFA430B10569F0F3
:1014B000169709F49DCF7F2D8D2D9ACF7D2DEF2D81
:1014C0008F2F96CF7F2FED2D93CFE52F7F2DF8CF48
:1014D000CF93762FC22F682F842F78DF472F282FA6
:1014E0008C2F90E0BDD2CF91089580914F0684302B
:1014F00060F48370846080934F0680915206893730
:1015000018F088E78093520608958C3AB0F3837000
:10151000886AF1CFCF93DF9380914F0680FD0BC097
:10152000C0E0D0E020E040E060E0CE0199D221961A
:10153000C831D105B9F7F6D4DF91CF910895FF9264
:101540000F931F93CF93DF93182F062FF42E8091C4
:101550004F0680FF0CC0C0E0D0E02F2D402F612F40
:10156000CE017ED22196C831D105B9F7D3DFCDB7F0
:10157000DEB7E5E00C944633CF93DF93EC01209186
:1015800052069C81892F817090FD822F692F627095
:1015900091FD622F492F447092FD422FD0DF8C8144
:1015A000019687708C83DF91CF910895762F90916B
:1015B0004F0690FF0BC0493708F048E7682F842F8B
:1015C00005DF962F672F482F892FB9CF0895CF9326
:1015D000DF93EC01EFE4F6E0438162818C81E6DF8A
:1015E0008C818F5F8C83DF91CF91089510924D068F
:1015F00080914E06846080934E06089580914F0638
:101600008E7F80934F06F2DF80914E06816080933B
:101610004E0680CFCF93DF93EC01EC81F0E0EE57E4
:10162000F54F4491EFE4F6E062818181BFDF8C8168
:101630008F5F8C83DF91CF910895FF920F931F935B
:10164000CF93DF93EC01F12C00E010E040915206C3
:10165000493708F048E78C819801609151068F0D59
:1016600037DF0F5F1F4F8AE0F80E0831110571F761
:1016700051DF8C819A8190FF07C08F5F8C83CDB73B
:10168000DEB7E5E00C9446338150F8CFA0E0B0E03F
:10169000ECE4FBE00C9427338C01FC018281CC2428
:1016A000C39480FF02C0CC24CA94F80184818111C4
:1016B00009C09C2D913009F487E180934F0381E0AC
:1016C000F8018483ED0120E040E060E0CE01C8D164
:1016D00094E0E92EF12CD12C80914F038D0D8931AE
:1016E000DCF168E10E946633892F082E001C000897
:1016F0008C170D0699F4409152062E2D2403A0015B
:1017000011245595479555954795493708F048E771
:101710009E016091510680915006DADEDC0C81E07A
:10172000E81AF108C9F62196C831D10561F6F2DE52
:1017300090914F038C2D813099F487E1911519F028
:10174000892F815091E080934F03F8019483CDB7A6
:10175000DEB7E8E00C94433387FFC7CF885EC5CF80
:10176000892F90E00196BE010E947333982FEBCF32
:101770000F931F93CF93DF938C01FC018481811120
:1017800009C081E0848310924E0392E090930E0191
:1017900080930D01C0E0D0E020E040E060E0CE01A9
:1017A0005FD12196C831D105B9F7C0E0D0E0809172
:1017B0004E03082E001C0008C817D005A4F1809124
:1017C0000E01082E001C00088C170D0664F14091D4
:1017D0005206493708F048E79E0160915106809112
:1017E000500676DE2196C831D10509F793DE809147
:1017F0000D0190914E03980F90934E0320910E018E
:10180000280F20930E01121614F497313CF08195A5
:1018100080930D01813011F4F8011482DF91CF9192
:101820001F910F91089520E040E060E0CE0118D1B3
:10183000D9CFA0E0B0E0EFE1FCE00C942533EC015F
:10184000FC812F2F30E0D9010E9495349B01AC011F
:101850000E9485347B018C0180E290E08F1B91090E
:10186000FC01A5E59701A8010E9485345B016C018C
:101870009F01DF010E9454339B010E9493339B011F
:10188000AC012E0D3F1D401F511FB501C6010E9426
:10189000A434022F30E00A3298F5C901880F991F4D
:1018A000820F931F95958795182F1095E12CF12C99
:1018B00085E5801BD82E8D2DE1FC802F412F193717
:1018C00008F048E797016091510602DE8FEFE81AB1
:1018D000F80A88E1E816F10471F71CDE9C8181E0CA
:1018E000911519F0903219F48FEF80930C018091CB
:1018F0000C01890F8C83CDB7DEB7EAE00C9441333D
:1019000085E590E0821B930B9C01880F991F820F45
:10191000931F42F60196C6CF0F931F93CF93DF9389
:10192000EC0120E030E060915106809150069C81EE
:1019300089010F5F1F4F2C30310554F49115F1F0E0
:1019400040915206493708F048E7C2DD9801EBCFD5
:10195000911114C040915206493708F048E7B8DDAC
:10196000980108311105F9F6D5DD8C810196817059
:101970008C83DF91CF911F910F91089540E0EFCFBD
:1019800020915B05382F3203C0011124923014F0EE
:1019900080E090E08C5A9C4F8093520390935303C5
:1019A00008959091C705292F30E07091C805A901CD
:1019B0004395437050E07417150689F02B533A4F46
:1019C00060FB87F9F90184839F5F93709093C7054B
:1019D0008091C5058F5F8093C50581E0089580E003
:1019E000089590E06115D1F0825E9E4FFC018081E8
:1019F0008F3F99F0E82FE295EF70F0E041A18F70F2
:101A000021E001C0220F8A95EAF7922F9095942346
:101A100091A392A1822F892B82A30895815E9E4F6C
:101A2000E5CF90E06115A9F0825E9E4FFC01208118
:101A30002F3F91F0E22FE295EF70E05EF0E08081C1
:101A400090E02F7002C0959587952A95E2F78170F6
:101A50000895815E9E4FEACF80E00895539A0895DD
:101A6000FC01EE0FFF1FE80FF91FEF59FD4F6183D7
:101A7000408322830895FC01680F791F8FEF41E3B3
:101A80009191892728E030E0982F990F87FF09C0AE
:101A9000892F842721503040B9F7E617F70781F7DF
:101AA0000895892FF7CF8091EE05811571F0E091AF
:101AB000F205F091F305309739F00190F081E02DB7
:101AC000309711F00995089580E00895A3E0B0E003
:101AD000ECE6FDE00C942D3320915D0230915E0226
:101AE00028173907B1F080935D0290935E02E09170
:101AF000F205F091F305309761F00084F185E02D57
:101B0000309739F023E029838A839B83CE010196A5
:101B100009952396E2E00C944933A3E0B0E0E3E9B1
:101B2000FDE00C942D3320915B0230915C0228176C
:101B30003907B1F080935B0290935C02E091F2056B
:101B4000F091F305309761F00084F185E02D309736
:101B500039F024E029838A839B83CE01019609957D
:101B60002396E2E00C9449339C01FC01329680E01C
:101B70009FEF4081461759F031969F3F19F441116C
:101B800001C0982F8F5F8630A1F79F3F09F4089519
:101B9000290F311D97FD3A95F90162830895FC01E3
:101BA000329608962191261302C0DF011E92E81793
:101BB000F907C1F7089580911B0108952FB7F89494
:101BC00060915702709158028091590290915A0287
:101BD0002FBF08958091EE05811539F0EFDF462F74
:101BE000572FBC01CB01BA010895E8DFDC01CB011E
:101BF0004091EA055091EB056091EC057091ED057F
:101C0000480F591F6A1F7B1FEDCF87E797E7809327
:101C100000089093010888E19AE00FB6F894A8951F
:101C2000809360000FBE90936000FFCF08950895E9
:101C3000FC0180914D0290914E028617970748F063
:101C40006115710529F48091E8008E778093E80092
:101C5000CB0140E0009741F4411106C08091E800BB
:101C600082FF30C080E0089520917F052115B1F1F9
:101C70002530B1F12091E80023FD2EC02091E8002D
:101C800022FDECCF2091E80020FFE4CF4091F3004B
:101C90002091F200342F009719F02830310558F0C8
:101CA00041E02830310509F040E02091E8002E772E
:101CB0002093E800CFCF41914093F10001972F5F2F
:101CC0003F4FE9CF80917F05811541F0853041F08C
:101CD0008091E80083FFC2CF81E0089582E00895FB
:101CE00083E00895982F9093E900891771F070911F
:101CF000EC002091ED005091F00021FD09C09F5FA4
:101D0000973089F78093E9000895762F242F50E0CB
:101D10003091EB003E7F3093EB003091ED003D7F42
:101D20003093ED003091EB0031603093EB00709315
:101D3000EC002093ED005093F0002091EE0027FD81
:101D4000DECF08958091470287FF13C08091E8009D
:101D500082FF06C08091E8008B778093E8000895A9
:101D600080917F058111F2CF089580917F058115C3
:101D7000D9F38091E80080FFF8CF8091E8008E775A
:101D8000ECCF2091E4003091E50095E6A901209187
:101D9000EC00822F817020FF06C08091E80080FF58
:101DA00006C080E008952091E80022FD1AC08091CD
:101DB0007F05811589F0853089F08091EB0085FDE4
:101DC0000FC02091E4003091E50042175307F9F26B
:101DD0009150E1F684E0089582E0089583E008954B
:101DE00081E00895CF93DF93C8EDD0E088818F7EA6
:101DF0008883E7EDF0E080818160808384E082BFAA
:101E000081E08093460288818E7F8883E2EE108293
:101E10001092DA00A1EEB0E01C9288818F7788835F
:101E200088818068888388818F7D888319BC10921F
:101E30007F051092450210925F0510924402A0EEB9
:101E40008C918B7F8C9388818160888342E060E0F5
:101E500080E048DFA1EEB0E08C918E7F8C93E2EEC3
:101E6000F0E0808181608083808188608083E0EE03
:101E700080818E7F8083888180618883DF91CF918C
:101E80000895E8EDF0E080818E7F80831092E2007B
:101E90001092DA001092E100A0EEB0E08C91816027
:101EA0008C9380818F77808319BCA7ED8C918E7F76
:101EB0008C9380818F7E8083109246020895A0E0EB
:101EC000B0E0E5E6FFE00C9425337C016B015A019C
:101ED0008091CD050AE010E08A3010F001E010E0BA
:101EE000C1E0D0E0B601C701F5010995811115C027
:101EF00021960C171D078CF0CC9F9001CD9F300DC3
:101F0000300D112480E090E045E34A95F1F70000A0
:101F1000019682179307C1F7E5CFCDB7DEB7EAE0A8
:101F20000C9441333BB1377F2BB128604FB7F89405
:101F300081E692E0FC010196508168E02BB9000037
:101F400000C057FF3BB9550F000000C000C000C0E3
:101F50003BB900C06A9591F752E0893A950751F76D
:101F60004FBF8FE594E00197F1F700C0000008959E
:101F70000F931F93CF93DF93EB018A0190917F051D
:101F8000943059F58093E9008FEF9091E80095FD2A
:101F900006C095ED9A95F1F700008150B1F7809158
:101FA000E80085FF1AC0EDDE811112C08091E800C3
:101FB00085FD06C08091E8008E778093E800F3CF1E
:101FC00088818093F1000150104011F02196EECFEE
:101FD0008091E8008E778093E800DF91CF911F9188
:101FE0000F910895603229F440E250E0BC0182E094
:101FF000BFCF0895CF93DF93EC0148E050E0BC01E0
:1020000081E0B6DF88E0FE01AFE4B2E001900D921E
:102010008A95E1F7DF91CF91089543E050E0BC014C
:1020200084E0A6CF90915E0692FB222720F9281724
:1020300079F080FB92F990935E0660915D06709155
:102040005E0684E090E00E94553482E00C94CD0757
:1020500008951F93CF93DF93122F8430E0F46A30FA
:10206000D0F44630C0F4C42FD0E0CC0FDD1F2CE0FC
:10207000629FC00DD11D112498E7899FC00DD11D0D
:102080001124632FCE0189960E943B34612FCE012B
:102090008A960E943B34DF91CF911F9108950F9350
:1020A0001F93CF93DF93142F022F843020F56230DB
:1020B00010F598E0899FE001112424E0629FB001AF
:1020C0001124C60FD71FC75FDD4F81E08427632F20
:1020D0009E01280F311D280F311DC9010E943B347C
:1020E00081E090E0111102C083E090E0602F8C0F3E
:1020F0009D1F0E943B34DF91CF911F910F91089556
:10210000A0E0B0E0E6E8F0E10C94223395EFC92EB0
:1021100093E0D92E7D0187014701B12C702E13C0A9
:10212000FE01259134914A2D6B2D872D92DF229649
:10213000A3948A2D8630A1F786E0880E911CB39473
:102140008B2D8A3039F0E401CC0FDD1FCB5EDD4FE3
:10215000A12CE6CFE601B12CFE012591349141E09E
:102160006B2D872D9CDFFE0132962591349140E046
:102170006B2D872D94DF24968B2DBB24B394813057
:1021800059F70F5F1F4F88E0C80ED11C8CE3E80E93
:10219000F11C0430110509F0BFCFCDB7DEB7EDE07B
:1021A0000C943E338091570690915F06892B909155
:1021B0005806911589F0892B90E02EE332E0F90161
:1021C00040812F5F3F4F41119F5F42E0243434072D
:1021D000B1F791111092580680933C0248E050E00C
:1021E00064EF75E08CE392E00E940434892BB9F02F
:1021F00088E0ECE3F2E0A4EFB5E001900D928A955F
:10220000E1F7E091F205F091F305309741F002809B
:10221000F381E02D309719F08CE392E00995089551
:1022200010925706EEE3F2E086E011928A95E9F704
:1022300080E090E04BDC80E090E06FDC10925F0685
:10224000B1CFEEDF8FEF94E32CE08150904020403F
:10225000E1F700C0000088E19AE00FB6F894A89575
:10226000809360000FBE90936000FFCFAAE2B0E0C1
:10227000ECE3F1E10C942C3387E492E0FC0101964D
:102280002091F100208322E08F349207B9F78091EA
:102290004802893009F457C0C8F4823009F4B3C049
:1022A000833009F483C0813081F18091E80083FF9D
:1022B000E7C080914702909148029A3008F0E0C050
:1022C000E92FF0E0E853FB4C0C9486338A3009F494
:1022D0008AC08B3051F780914702813231F780916B
:1022E0004B0290914C02892B01F78091E800877F87
:1022F0008093E80027DD81E090914902911101C0AF
:1023000080E080931C018CDFD0CF80914702813A1E
:1023100061F68091E800877F8093E80080914B020E
:1023200090914C02892B59F060E080E090E070E0E1
:102330007FDC8091E8008B778093E800B6CF68E07F
:102340008FE492E0F4CF80914702813209F0ADCF63
:1023500080914B0290914C028D7F892B09F0A5CF83
:102360008091E800877F8093E8008091E80082FFF9
:1023700018C02091F3008091F200922F029731F45F
:102380008091F100813011F0863021F48091F100CC
:1023900080931B018091E8008B778093E800D2DC6A
:1023A00084CF80917F058111E0CF7FCF809147025C
:1023B000813A09F07ACF80914B0290914C02892B9F
:1023C00009F073CF8091E800877F8093E8008091C7
:1023D000E80080FFFCCF80911C018093F100809188
:1023E000E8008E77DACF80914702813209F05DCF25
:1023F0008091E800877F8093E800A4DC80914A0206
:1024000080931A0152CF80914702813A09F04DCF53
:102410008091E800877F8093E8008091E80080FF4A
:10242000FCCF80911A01D9CF803889F0823841F5EC
:1024300080914B028F70873018F58093E90080916E
:10244000EB0085FB882780F91092E90006C0809197
:102450005F05880F90914402892B9091E800977F47
:102460009093E8008093F1001092F1008091E800D1
:102470008E7723C0811116C080914902813009F105
:102480008091E80083FF0AC08091E800877F8093F5
:10249000E8008091EB0080628093EB00AA96E3E075
:1024A0000C944833823061F780914902811579F0AC
:1024B0001092E9008091E800877F8093E80042DC79
:1024C000DFCF933009F080E080935F05F1CF8091FA
:1024D0004B028F70282F2150263090F68093E90010
:1024E0002091EB0020FFE4CF933031F48091EB009A
:1024F00080628093EB00DCCF9091EB009061909331
:10250000EB0021E001C0220F8A95EAF72093EA0050
:102510001092EA008091EB008860EBCF8111B0CF80
:10252000809149028F77182F8091E3008078812B6A
:102530008093E3008091E800877F8093E80002DCCD
:102540008091E80080FFFCCF8091E3008068809359
:10255000E30083E0111101C082E080937F0590CFFA
:102560008058823008F08CCF8091490290914A02C5
:102570008C3D23E0920789F583E08A838AE2898390
:102580004FB7F894DE01139620E03EE051E2E32FCE
:10259000F0E050935700849120FF03C082958F7024
:1025A0003F5F8F708A30B8F0895C8D931D922F5FEA
:1025B000243169F74FBF8091E800877F8093E8005E
:1025C0006AE270E0CE01019633DB8091E8008B7700
:1025D0008093E80055CF805DE8CF292F30E023308D
:1025E000310509F44EC078F52130310509F47DC07C
:1025F0008BE590E0E4E4F1E02230310509F040CFD2
:102600002091E800277F2093E80020914D0230912F
:102610004E028217930708F49C0140E02115310512
:1026200009F068C0411166C08091E80082FDCDCFFD
:1026300080917F05811549F2853039F28091E8005B
:1026400083FFF2CFC2CF80914B0290914C02213296
:10265000310509F43BC02232310509F011CF833036
:10266000910508F00DCFFC01EE0FFF1FEF58FE4F54
:102670000190F081E02D82599E4FDC018C9190E019
:1026800011C0282F30E0813089F022303105B1F0BF
:10269000232B09F0F5CEE1E1F2E0E4918E2F90E0FA
:1026A000E1E1F2E0009709F4EBCEAACFE7EEF1E02A
:1026B000E4918E2F90E0E7EEF1E0F4CFE1EBF1E072
:1026C000E4918E2F90E0E1EBF1E0ECCF83309105C7
:1026D00008F0D6CE880F991FFC01E958FE4F0190F3
:1026E000F081E02D89E090E08BCF82E190E0EFE98E
:1026F000F1E086CF80917F05811509F466CF8530A2
:1027000009F463CF8091E80083FD5FCF8091E800FA
:1027100082FD8ACF8091E80080FF80CF4091F30056
:102720008091F200942F2115310519F08830910520
:1027300050F041E0089709F040E08091E8008E7782
:102740008093E8006BCF44914093F1003196215083
:1027500031090196E8CF803809F092CE8091E800E7
:10276000877F8093E800809145028093F1007ECEC0
:10277000811186CE80914902182F823008F080CED8
:102780008091E800877F8093E80010934502DADAB1
:102790001115D9F084E080937F0542E061EC81E07F
:1027A000A1DA42E261EC84E09DDA42E261EC82E08F
:1027B00099DA42E260EC83E095DA80917F0584301B
:1027C00051F482E080931D015BCE8091E30087FD90
:1027D000E1CF81E0E0CF81E0F5CFCF93C82F811525
:1027E00099F08450813A90F4EEE3F2E084E492E0D0
:1027F0002081C21789F131968E179F07C9F76C2F78
:102800008CE392E0B1D9CEDCCF9108958C2F805E1D
:10281000883060F4C77021E001C0220FCA95EAF742
:1028200080915706822B80935706EDCF8C2F855AC7
:10283000833028F48C2F8452990B48D9E5CFC85A9D
:10284000CB3110F7EC2FF0E0EE0FFF1FED5FFD4FE7
:102850008081918162D9D8CF6C2F8CE392E09FD98F
:10286000A1DCCDCF811529F1982F9450913A28F40D
:10287000682F8CE392E093D995CC982F905E983096
:1028800058F4982F81E091FD84E090FD880F92FD2F
:1028900082950E94E307F0CF982F955A933018F451
:1028A00080E090E013C9885A8B3118F480E090E002
:1028B00034C908951F93CF93DF93182FEB018DDF59
:1028C0008FE99FE00197F1F700C000002197C1F761
:1028D000812FC8DFDF91CF911F910895811531F0CD
:1028E00090915706982B909357065CCC08958115CC
:1028F00019F00E94E30756CC08958F929F92AF92F1
:10290000BF92CF92DF92EF92FF920F9388E090E018
:102910000E9422344B015C0160934F069092500656
:1029200080935106B09252061092530610925406AC
:10293000109255061092560683E290E00E941A34D7
:102940009401A50180924F0630935006A092510643
:1029500050935206809353061092540610925506D7
:10296000109256060F91FF90EF90DF90CF90BF909E
:10297000AF909F908F9008950F931F93CF93DF9305
:10298000843008F56A30F8F44630E8F4C42FD0E01B
:10299000CC0FDD1F9CE0699FC00DD11D112498E76D
:1029A000899FC00DD11D1124CE0189960E941A3431
:1029B000082FCE018A960E941A34902FDF91CF9172
:1029C0001F910F91089580E090E0F8CFFF920F9350
:1029D0001F93CF93DF93F42E843048F5623038F59F
:1029E00098E0899FE001112484E0689FB0011124E0
:1029F000C60FD71FC75FDD4F81E084279E01280FD8
:102A0000311D280F311DC9010E941A34082F81E0A1
:102A100090E0F11002C083E090E08C0F9D1F0E94B7
:102A20001A34902FCDB7DEB7E5E00C94463380E042
:102A300090E0F8CF7A3038F4663060F4843050F4A7
:102A4000462F672F99CF7D3F41F4623018F441E063
:102A5000843050F080E090E008957C3FD9F76230F8
:102A6000C8F78430B8F740E0B1CFCF92DF92FF9241
:102A70000F931F93CF93DF936C0100915B068091BE
:102A80005A06082BC3E0D0E010E0C8010C2E02C0AB
:102A9000959587950A94E2F780FD0CC02197A8F7D9
:102AA000F12C8F2DDF91CF911F910F91FF90DF902F
:102AB000CF900895FC2EB6018C2FBCDF0E94DD085C
:102AC000019761F3EECF0F931F93CF93FC01258104
:102AD00000811181C801211579F0611569F0C5DF08
:102AE000C82F682FC8010E945607B8018C2FA2DF9B
:102AF000CF911F910F9108950E946F07C82FF5CFB6
:102B0000CF93DF93EC01B1DFBE0194DF0E94DD08BB
:102B1000DF91CF910895FC012481211599F08081E6
:102B20009181EEDF282F92959F70963099F060F496
:102B3000925F9F70923030F4203FB1F038F481E022
:102B4000283E38F080E008959A5FF3CF81E0243F7B
:102B5000C9F7089591E0213F09F090E081E0283E17
:102B600008F080E0892B089581E00895673D21E019
:102B700072078105910528F4CB01875D9D4F0C9468
:102B80001A3480E00895CF92DF92EF92FF92CF93B4
:102B9000DF93EC01C880D980EA80FB80B601C701D1
:102BA000E5DF9FEFC91AD90AE90AF90AC882D98272
:102BB000EA82FB82DF91CF91FF90EF90DF90CF9080
:102BC000089585E290E00E941A34853269F486E225
:102BD00090E00E941A34883039F487E290E00E9435
:102BE0001A3491E0873209F090E0892F81700895BE
:102BF0000F93CF93DF93CFE4D6E0488159816A8168
:102C00007B8188E090E00E944D346C81262F60E04B
:102C100070E0CB01622F83E20E943B34DF91CF91C1
:102C20000F91089585E080934F06109250068FEF24
:102C30008093510688E78093520610925306809144
:102C40004E06836080934E068FE496E0D1CF80914C
:102C50005306833018F48F5F809353068FE496E019
:102C6000C7CF80915306811519F081508093530688
:102C70008FE496E0BDCFA0E0B0E0E1E4F6E10C9493
:102C80002533D82FB62EC42FA22E20914F0620FF19
:102C900038C0809150068D1308C09091510696134C
:102CA00004C090915206941729F090914E069260BC
:102CB00090934E06022F06950695E02FF0E0EB5715
:102CC000FE4F908190934C062C7F2430F9F48C2F8A
:102CD000C93708F088E76D2F7B2D0E94E609962FF3
:102CE000672F482F892F0E949F0A8D2F80935006AF
:102CF000B0925106C0935206A11419F08FE496E0E9
:102D000077DFCDB7DEB7EAE00C944133923019F4A7
:102D1000C0915206EACF963049F3993039F3993190
:102D200021F70951E02FE695F0E0EE57F44F1491AA
:102D30006D017D01C60168E170E00E940933862FB4
:102D40008D0F00FF02C08D2F861B4C2FC93708F056
:102D500048E797016B2D0E94680A8FEFE81AF80A7E
:102D6000C10ED11C88E1E816F10421F70E948A0AFD
:102D7000BCCFEFE4F6E0818121E043816281885F8E
:102D80007ACFEFE4F6E0818121E0438162818850CF
:102D900072CFEFE4F6E0628121E1620F08F46FEF99
:102DA00021E04381818167CFEFE4F6E0628121E198
:102DB000621B08F460E021E0438181815CCFEFE495
:102DC000F6E0438121E1420F08F44FEF21E06281F8
:102DD000818151CFEFE4F6E0438121E1421B08F409
:102DE00040E021E06281818146CFCF92DF92FF9265
:102DF0000F931F93CF93DF936901E801082F880F8A
:102E0000110B41155105B1F0F80133E0EE0FFF1F32
:102E10003A95E1F7E25DFE4F8181928185569A4FA6
:102E2000E0812E2F30E04E17510508F49A01A901D8
:102E30000E941134C8010E949B32F82E8115E1F0E6
:102E40002097D1F0C80123E0880F991F2A95E1F758
:102E5000FC01E25DFE4F2381422F50E0C217D105F5
:102E600008F4AE01825D9E4FFC0164817581655658
:102E70007A4FC6010E9411348F2DDF91CF911F919F
:102E80000F91FF90DF90CF900895A4E0B0E0EBE4C5
:102E9000F7E10C942933E0908805F09089050091C2
:102EA0008A0510918B050E94DE0DDC01CB018E1985
:102EB0009F09A00BB10B11E084369105A105B10566
:102EC00010F10E94EA0DDC01CB010296A11DB11D9B
:102ED00089839A83AB83BC8300E010E0980144E0CF
:102EE00050E0CE010196BC0185E07FDF182F8115EF
:102EF00051F00E94DE0D60938805709389058093E0
:102F00008A0590938B05812F2496E6E00C94453337
:102F1000A1E0B0E0EEE8F7E10C941D33662E2A0143
:102F2000190168018D019E012F5F3F4F40E050E085
:102F3000BA015BDF182F8115B1F1F2018080918019
:102F4000A280B3800E94DE0D7980681979098A0910
:102F50009B09643671058105910530F4B701C601FE
:102F60000E943B0D8715F9F08701910140E050E088
:102F7000BA01862D3ADF082FB701C6010E943B0D2A
:102F800010E087110BC0102F117000FF07C00E94C6
:102F9000DE0DF2016083718382839383812F2196FA
:102FA000E2E10C943933A701B601C1010E9411344A
:102FB000F5CFA5E0B0E0EFEDF7E10C9427336B011E
:102FC0007D010CE915E0CE0101969C0147E955E031
:102FD00061E080E09DDF811559F095E09E012F5F53
:102FE0003F4FF901A2E9B5E001900D929A95E1F702
:102FF00095E0E2E9F5E0D60101900D929A95E1F7AE
:103000002596E8E00C944333A8E0B0E0EAE0F8E16C
:103010000C9429337D0102EA15E0CE0101969C0152
:103020004EE855E063E082E073DF182F811599F1D7
:103030009091A10580918D05981769F19091A50552
:103040008091A405891709F1E92FF0E0E156FA4FC4
:10305000878187FB662760F99F5F93709093A50532
:103060009091A3059F5F9093A3058F770E94D10C49
:10307000F82E8111E3CF00E010E09801A801B8011B
:1030800084E0B3DEF8221F2D02C0F110F4CF80914E
:10309000A10580938D05812F2896E6E00C94453399
:1030A000A0E0B0E0E6E5F8E10C942333D82EEB0184
:1030B000C42E59014801E880F9800A811B810E94D1
:1030C000DE0DDC01CB018E199F09A00BB10B8436FC
:1030D0009105A105B10510F4C11479F000E010E0EC
:1030E0009801A401B5018D2D80DE811539F00E9473
:1030F000DE0D688379838A839B8381E0CDB7DEB759
:10310000ECE00C943F33ABE0B0E0E9E8F8E10C947C
:103110002B3328E0EFE4F6E0CE010196DC010190CC
:103120000D922A95E1F730914C0620914D06509171
:103130004E0639872A875B8741E09C01511101C007
:1031400040E00BE010E064E875E086E0A9DF811163
:1031500010924E062B96E4E00C944733A1E0B0E0C9
:10316000E4EBF8E10C942B338091BA05898341E0BC
:103170009091B905981301C040E08D01CE010196F0
:103180009C0160E875E087E08BDF2196E4E00C9419
:103190004733A0E0B0E0EFECF8E10C942333FC01FE
:1031A0008281A82EB48081E08483E2E8FAE0049171
:1031B000E1E0FBE0E491E0905206E6948FE7E80E50
:1031C000F12CEE0CFF1CEF2CF12CC6EDD2E06D01C2
:1031D0001FEFE01B8E2F90E04C018A2D833030F4DE
:1031E000809150068883809151068983B1101AC05E
:1031F0001B821A824A81493708F048E796016981A3
:1032000088810E94680A8FEFC81AD80A259688E13B
:10321000C816D10411F70E948A0ACDB7DEB7ECE0D8
:103220000C943F338B818115E1F081508B83189F83
:10323000C00111246C8170E00E94093370E0FB0131
:10324000EE57F54F8491801B189FC0011124B401E3
:103250000E94093380915206689FB00111247A833D
:10326000C9CF0E94E0336FEF70E00E9473338E1578
:103270009F050CF0BFCF8A2D833090F00E94E03381
:103280006FEF70E00E94733388830E94E0332091D7
:1032900051062695622F70E00E947333280F298310
:1032A0001A8280915206893C20F088EC8C838B83B3
:1032B000A1CF8431D8F784E1F9CFAB0124E630E027
:1032C000BC0188E70E94BB309C0181E0232B09F000
:1032D00080E00895809156058115F1F00E94DE0D81
:1032E000DC01CB0180549B42AE4FBF4F809357050A
:1032F00090935805A0935905B0935A0580915505B0
:1033000081110AC062E070E080E495E0D6DF8115AB
:1033100019F081E080935505089580915605811537
:1033200061F080915505811541F062E070E08EE317
:1033300095E0C3DF81111092550508951F93CF9337
:10334000DF93162F8A3031F481E085D0DF91CF9161
:103350001F9108958D3011F480E0F7CFC091520392
:10336000D091530396E0FE01A0EDB2E001900D92E2
:103370009A95E1F7803E78F186E019928A95E9F70F
:10338000C0915203D0915303111131C046E050E077
:10339000BE0180ED92E00E9404349E01245533402A
:1033A000892B81F52A5F3F4F40915B05642F70E0C8
:1033B000C9010E940933481B463010F4240F311D07
:1033C000323010F020E030E02C5A3C4F2093520372
:1033D00030935303BBCF96E0899FB00111246E5BFD
:1033E0007A4F46E050E0CE010E94EE33C9CF9E01F5
:1033F0002A5F3F4FFE012E173F0741F280818095E3
:103400008193F9CFC90145E0969587954A95E1F7F3
:1034100041E050E0BA0102C0660F771F8A95E2F7DB
:10342000CB016091500370915103862B972BB9010A
:103430006B5F7F4FE5E076956795EA95E1F702C00F
:10344000440F551F6A95E2F7842B952B8093500308
:1034500090935103A7CFCF93382FE0915203F0916F
:103460005303E455F34020915B05622F70E0CF01D8
:103470000E940933281B822F311569F066E00E94F3
:103480005A33C82FC11102C0CF910895C15060E0D6
:1034900080E254DFF7CF8E0F9F2F911D923010F0F6
:1034A00080E090E08C5A9C4F80935203909353039A
:1034B000EBCF1F93CF93DF93EC01162FFE01849186
:1034C000811104C0DF91CF911F910895612F36DFE4
:1034D0002196F4CFEEDF81E0BECFA0E1B0E0E3E7DC
:1034E000FAE10C941F33FE013196DF0180E11D9259
:1034F0008A95E9F70EE110E099E2A92E92E0B92E43
:10350000612C712C230153944A189E2E8F2E620138
:10351000730181E148165104610471041CF080E1DB
:10352000C82ED12CA601B501892D982D0E942C34CE
:10353000AC0CBD1C0D2C000C00084C185D0860087C
:1035400070080150104019F76096E0E10C943B338D
:103550006FEF85E290E00E943B346FEF86E290E0EF
:103560000E943B346FEF87E290E00E943B3460E0C2
:1035700088E290E00E943B340E948010AEDF65E25A
:1035800085E290E00E943B3468E086E290E00E9491
:103590003B3467E287E290E00C943B341F921FB605
:1035A0001F9211248F939F93AF93BF9380915E05D9
:1035B000811113C08091570290915802A091590235
:1035C000B0915A024196A11DB11D8093570290936C
:1035D0005802A0935902B0935A02BF91AF919F91A4
:1035E0008F911F901FBE1F9018952FB7F894809150
:1035F000570290915802A0915902B0915A022FBFE0
:1036000008958091EE05811509F0EFCF0E94EA0D33
:10361000CB01089560914F066695669570E04BE08A
:1036200050E08FE091E00E94F733892B19F481E09C
:1036300080934D06E6DF8093BB059093BC05809197
:103640004E06846080934E06089590914F0690FF39
:1036500031C0811581F18B3280F58F73880F880F0F
:1036600090914F069370892B80934F0680914E0660
:10367000816080934E06611519F08FE496E0B8DA08
:1036800060914F066695669570E04BE050E08FE0E4
:1036900091E00E94F733892B91F00E94F60A81E0B5
:1036A0008093BE0520E040915206609151068091C2
:1036B0005006E1CA089581E0D1CF8AE2CFCFAADFD8
:1036C000EECF80914F06869586958F5F8B3208F0FE
:1036D00081E061E0BACF80914F0686958695815052
:1036E00009F48AE261E0B1CFCF93DF93EC017DDF93
:1036F0008C1B9D0BDF91CF910895A5E1B0E0E3E82D
:10370000FBE10C942433FE013C96DF018AE01D921C
:103710008A95E9F782ECC82E81E0D82E7F019E2E93
:10372000AF2C0DEC11E0F60181916F018F3F09F490
:103730003DC0F894E82FE295EF70F0E021A18F7082
:1037400041E001C0440F8A95EAF7922F942B91A390
:1037500092A1842F8095892382A3789400C0E7ECFE
:10376000F1E031E0B12C21912F3F79F0A22FA29509
:10377000AF70A05EB0E08C9190E02F7002C0959584
:1037800087952A95E2F780FF93C080E0B82A330F2F
:103790000E171F0741F7F60182918F3F11F00E942B
:1037A000CB0980EA8A95F1F7F701B0828FEFE81A2A
:1037B000F80A87ECC81681E0D80609F0B4CF4AE0D1
:1037C00050E0692D7A2D80EE95E00E940434009738
:1037D00049F02AE0E92DFA2DA0EEB5E001900D9216
:1037E0002A95E1F70091DF0510E00B521A4F892B63
:1037F00009F460C081E08093D405F7DE8093D205A0
:103800009093D3058091EE057E019FEFE91AF90AA6
:10381000811509F4A5C0F70185E011928A95E9F7B1
:103820008091CD058A3008F068C049ED57E1B701B5
:10383000C8010E945F0F811509F481C044E058E17E
:10384000B701C8010E945F0F811509F478C045E4F3
:1038500057E1B701C8010E945F0F811509F46FC0DD
:1038600043E858E1B701C8010E945F0F811509F4D0
:1038700066C04EEA58E1B701C8010E945F0F81158A
:1038800009F45DC01092CD058091D10590E045E02E
:1038900050E0B7018B529A4F0E94043421E02093EC
:1038A000D005892B09F03FC06596EBE00C944033BE
:1038B000832F6CCF8091D405811509F4A3CFE090BC
:1038C000D205F090D30591DE8E199F09059708F473
:1038D00099CF45E050E060EE75E0C8010E940434E5
:1038E000892B41F085E0E0EEF5E0D80101900D92E2
:1038F0008A95E1F71092D40585CFC090CE05D0907F
:10390000CF0573DE8C199D09843F914008F08DCF5F
:103910008091D005811541F2F70185E011928A95D9
:10392000E9F71092D005A091D105B0E0AB52BA4FA3
:1039300085E0F70101900D928A95E1F7B5CF80916E
:10394000CD058F3F31F451DE8093CE059093CF05A6
:10395000DFCF8F5F8093CD058A3008F495CFF3CF0A
:1039600085E0F801ACE9B5E001900D928A95E1F7A8
:1039700065E070E08CE995E00E943B0D80939B052B
:1039800088E0E5ECF5E0A2EAB5E001900D928A95B9
:10399000E1F768E070E082EA95E00E943B0D8093D9
:1039A000A105A090AA05B090AB05C090AC05D09041
:1039B000AD058091C1059091C205A091C305B0915C
:1039C000C405A816B906CA06DB06C1F0A092C10557
:1039D000B092C205C092C305D092C4050E94DE0D0C
:1039E000A61AB70AC80AD90AC501D6018093EA0502
:1039F0009093EB05A093EC05B093ED058BE0EEEA18
:103A0000F5E0D70101900D928A95E1F7F090AF05AE
:103A1000E090B005D090B1050091B7051091B805C0
:103A20001092B8051115F9F010FF0CC0898180FFC4
:103A30001FC090914F06916090934F0660E086956D
:103A4000869503DE11FF05C020E04D2D6E2D8F2DD4
:103A500012D912FF03C0011571F0DCDD13FF03C0A2
:103A600081E08093BE058091B9058093BA051CCF93
:103A70000E94FE0AE7CF0E94F60AF0CF4F925F92B3
:103A80006F927F928F929F92BF92CF92DF92EF922E
:103A9000FF920F931F93CF93DF938091560581156B
:103AA00009F432C1C091CE02D091CF029EDD8C1BB1
:103AB0009D0BC29708F44DC098DD8093CE02909381
:103AC000CF0280E00E94C00C8091EE05811509F4C0
:103AD00033C160E08FE295E0ECDC80915A060E94F1
:103AE000D506813030F009F160E08FE195E0E1DC4E
:103AF00004C060E089E295E0EDDC60E08CE195E0F7
:103B0000D8DC60E086E195E0E5DC80915B060E9410
:103B1000D506823009F408C160F0833009F408C189
:103B200060E08EEF94E0D6DC08C060E083E295E0D0
:103B3000E3CF60E080E195E0BCDC60E08BEF94E0F7
:103B4000B8DC0E94530D81FB662760F985EF94E095
:103B5000C1DC8091500390915103892B09F4BAC0C4
:103B600080915605811509F4B5C0809154058111E5
:103B7000B1C0B0DB8091500390915103009709F4DC
:103B8000A9C0C82FC170D0E010E080FD0FC041E097
:103B900050E01F5FEA01012E02C0CC0FDD1F0A9426
:103BA000E2F79E0128233923232B99F380915C05AA
:103BB00080FF54C1912F990F990F990F392F395FB9
:103BC00080E023E09093070180930A01309308017D
:103BD00020930B0124E630E047E050E065E071E01F
:103BE00088E70E946030892B09F074C080E2189F3A
:103BF000A001112480915C0580FF42C1EEEAF2E051
:103C000080E211928A95E9F731E8632E31E0732E54
:103C10008DE791E04C0165E871E0D301ED913D0144
:103C2000D4010D914D01040F152F111DF0E0E25547
:103C3000FD4F80E090E027E0B22EB81ACC24C39468
:103C4000082E01C0CC0C0A94EAF798012C5A3C4F7C
:103C50002901E12CD201FD902D01FC202B2D2E19E4
:103C6000277030E0AF2D022E01C0AA0F0A94EAF7A8
:103C7000DA2E3195219531092770332701C0F6944A
:103C80002A95EAF7DF282081D22AD082E3942E2DCC
:103C9000283001F7019631968830910561F6661556
:103CA000770509F0BACF04E610E020E24EEA52E0D0
:103CB00060E488E70E941831892B61F4C095D095A3
:103CC0008091500390915103C823D923C09350038E
:103CD000D0935103809155058115B1F00E94DE0DFE
:103CE000C0915705D0915805E0915905F0915A05BA
:103CF000DC01CB018C1B9D0BAE0BBF0B8F3F9F4F8D
:103D0000AF4FBF4708F409DBDF91CF911F910F91AF
:103D1000FF90EF90DF90CF90BF909F908F907F901B
:103D20006F905F904F90089560E08AE095E004CF37
:103D300060E084E095E000CF82E00E94C00C60E08B
:103D400088E395E0B6DB85E00E94C00CA0915203A9
:103D5000B09153039D0124553340BD016457724017
:103D6000613082E0780710F060E072E0409150032B
:103D700050915103E5E1F4E0D1E0ED2EF12C26174E
:103D8000370738F140935003509351038DE00E9460
:103D9000C00C60E082E395E08CDBC090BA058091B6
:103DA00004018C1132C08091AD02803271F5C9EAF4
:103DB000D2E009900020E9F7219709EA12E00C17F8
:103DC0001D0708F0C6CE60E0F80181918F01B6DAD8
:103DD000F6CF84919D918917A1F08D0101501109B1
:103DE000E8018883C901C5E096958795CA95E1F7F2
:103DF000E70102C0CC0FDD1F8A95E2F7CE014C2B04
:103E0000592B2F5F3F4F3196BACFC092040180E209
:103E10008093AD02D12CE12CF12C1092AC020CEA73
:103E200012E0E701B601C7012AE030E040E050E0CF
:103E30000E94A434605D603339F4209729F0CD28C6
:103E4000CE28CF2809F460E2F80162938F0169015E
:103E50007A012196C330D10529F7A9CF20E2129F1C
:103E6000C0011124880F492F441F550B5195242F51
:103E7000912F9295990F9076392F315E842FA2CE93
:103E80004C5A5C4F04E610E020E230E011CFFF9284
:103E90000F931F93CF93DF93C62FD42FF22E81154C
:103EA000A9F060934A06A1DB80935F0290936002C1
:103EB00081E0C1FD84E0C0FD880FC2FD82950E94B3
:103EC0006E14CDB7DEB7E5E00C94463380914A0618
:103ED000681333C000915F021091600286DB801B83
:103EE000910B8436910548F51D2F105ECD17A1F07A
:103EF000C77001E0802F01C0880FCA95EAF70E94C1
:103F00007714183048F48D2F877001C0000F8A9500
:103F1000EAF7802F0E946E146AE070E08F2D0E94F5
:103F20005A1481E0D1FD84E0D0FD880FD2FD829546
:103F3000183038F60E947714C4CF81E0C1FD84E0C8
:103F4000C0FD880FC2FD8295F5CFA4E0B0E0EBEA9A
:103F5000FFE10C9422337C01FC018481811509F47A
:103F6000D2C061E0C7010E9463158C01F701858111
:103F7000811509F45DC5980131503F34C8F5202FF3
:103F800030E0A901445051094432510528F02B5228
:103F900031092E30310588F4E0914906F0E0EE0F4A
:103FA000FF1FE95EF94F208131812F3F9FE73907DD
:103FB00021F02F5F3F4F2083318310924A069801F2
:103FC00030572332310508F03EC584E090E00E946E
:103FD000273480935D0690935E06F801E150F04728
:103FE000E232F10508F040C1EE52FB4C0C948633EE
:103FF0009801111531F237572038310508F03CC5CA
:10400000003108F071C066ED71E080E090E00E9440
:10401000B615811169C0A12CB12C4501011122C036
:1040200089829A82AB82BC828E010F5F1F4FC801CA
:104030000E94C315B02EA12E813008F455C009F09E
:104040007EC0C8010E94C315813001F5C8010E94DD
:10405000C31560E570E0893311F06AE070E00E94FA
:104060005A141BC087ED881681E09806A104B1049C
:10407000D9F1B401C5010E94B6159FEF891A990ABA
:10408000A90AB90A8111EECF0150C8CF823061F47C
:10409000C8010E94C3150E94ED138FE39CE90197AC
:1040A000F1F700C00000C3CF833031F4C8010E9493
:1040B000C3150E943214F1CF843071F4C8010E94FC
:1040C000C315C12CD12C282F2053330B2A30310596
:1040D000F0F0C114D10449F5EFE3FCE93197F1F7B1
:1040E00000C000008111A3CF80915C06877059F059
:1040F000F7018581811539F080915E0682FF03C04A
:1041000082E00E94CD072496EDE00C943E334AE015
:104110004C9DC0014D9D900D1124280F391F690140
:104120008B2D9A2D0E94C315CECFEFE9FFE031977A
:10413000F1F700C0000091E0C91AD108CACFE82FFA
:10414000F0E0E251F34F9491792E282F2695269591
:10415000269530E0F901E252F34FC4908770D12CDC
:10416000082E02C0D594C7940A94E2F7F901E253ED
:10417000F34FA490B12C082E02C0B594A7940A94D2
:10418000E2F72254334FF9018490912C02C09594A8
:1041900087948A95E2F7C0FE09C081EE0E94ED1374
:1041A0008FE39CE90197F1F700C00000A0FE09C071
:1041B00086EE0E94ED138FE39CE90197F1F700C0B2
:1041C00000006AE070E0872D0E945A148FE39CE99A
:1041D0000197F1F700C00000A0FE09C086EE0E9422
:1041E00032148FE39CE90197F1F700C00000C0FE94
:1041F00009C081EE0E9432148FE39CE90197F1F728
:1042000000C0000080FE13CF6AE070E08CE227CF90
:1042100026E241EE61EE3BDE67CF27E245EE65EE3A
:10422000FACF26E241EE60EEF6CF27E245EE64EEED
:10423000F2CF26E241EE62EEEECF27E245EE66EEE9
:10424000EACF28E241E0EBCF06319CE7190709F0FD
:10425000D1C080914B0665E3811101C069E28CE316
:1042600092E00E94CF0D05C480915D06816080932D
:104270005D0660915D0670915E0684E090E00E94AC
:1042800055340E94101130CF80915E068860809373
:104290005E06EFCF80915D068260E9CF80915D067A
:1042A0008460E5CF80915D068860E1CF80915E06F5
:1042B0008160EDCF80915E068260E9CF80915D06DE
:1042C0008061D5CF80915D068062D1CF80915D06FF
:1042D0008064CDCF0E94101180915D068068C7CFA9
:1042E00080915D068C60C3CF80915E068360CFCFE6
:1042F00080915D068E7FBBCF80915E06877FC7CFA2
:1043000080915D068D7FB3CF80915D068B7FAFCFAF
:1043100080915D06877FABCF80915E068E7FB7CFA1
:1043200080915E068D7FB3CF80915D068F7E9FCF9B
:1043300080915D068F7D9BCF80915D068F7B97CFAF
:104340000E94101180915D068F7791CF80915D065C
:10435000837F8DCF80915E068C7F99CF90915D0693
:10436000892F8B7F92FF8460877F92FF88607FCF49
:1043700080915E06982F909590FB80F990FB81F9D3
:1043800086CF90915D06892F8F7B96FF80646FCFDB
:104390000E94101190915D06892F97FB87F9805834
:1043A00066CF61E08EE090E00E943B3462CF60E037
:1043B000F9CF90915D06892F8F7E94FF806157CF52
:1043C00090915D06892F8E7F90FF816050CF9091F4
:1043D0005E06892F877F93FF886059CF9272F8011C
:1043E000E052F847EB30F10508F05AC0EC50FB4CB6
:1043F0000C94863307379CE7190709F055C081E014
:104400000E94F60672C080914F0680FF11C08E7F19
:1044100080934F068FE496E00E94F8150E94F60AFA
:1044200080914E06816080934E060E948A0A5CCE7F
:10443000816080934F0661E08695869506D954CEBB
:10444000911521F048D950CE9115E1F33AD94CCECF
:10445000911529F00E94C11647CE9115D9F30E94FB
:10446000B91642CE911529F00E94D4163DCE911571
:10447000D9F30E94C91638CE911529F00E94EA1688
:1044800033CE9115D9F30E94DF162ECE911529F067
:104490000E94311629CE9115D9F30E94271624CEF9
:1044A00007379CE71907F1F008379CE7190719F15E
:1044B0009801205E32452032310518F5811138C04F
:1044C0000F7181E090E002C0880F991F0A95E2F712
:1044D0008C01682F83E090E00E943B34802F0E9483
:1044E000E70602CE81E00E94ED0643E062E081E053
:1044F0000E948607F9CD811511F082E0F4CF82E0A9
:104500007FCF8115A9F00A358CE7180709F49AC006
:1045100008F072C001308CE7180709F491C003302D
:104520008CE7180709F486C001151C4709F475C00B
:10453000F701858100811181811509F487C0C801C7
:104540000E943515D82E682FC8010E945607B80161
:104550008D2D0E941A150E94DD08182FA92EF70133
:10456000B580D680D2948FE0D82280915C06877087
:1045700001F1CB2CB114F1F0892F807F803461F0F0
:10458000812F805E8830A8F0892F807E803221F4D0
:10459000123078F0D11469F080915E0682FF09C074
:1045A00082E00E94CD0780915C068770CC24C39482
:1045B0008111C12C8A2D82958F70883009F43AC1FF
:1045C00008F063C0843008F046C0823008F46EC042
:1045D0000A2D0F708A2D807F803211F00295007FA6
:1045E000113008F49CC009F4E5C0B11409F4F0C01E
:1045F000D11409F4B2C072C00B358CE7180721F151
:104600000C351C4709F094CF80915E06002482FF90
:104610000394802D0E9412108BCF0E9410118FEFF7
:1046200094E32CE0815090402040E1F700C000006E
:104630000E94050E6FEF7FEF80E090E00E945534FE
:104640000E94211181E0E6CF80E0E4CFC8010E9402
:104650006F07D82E7CCF09F4D1C0C11409F419C159
:1046600080915C0680FD15C1F701158286958695BF
:1046700086950E94ED06C70168DC80915C068695F0
:10468000869586950E94F60604C1893009F44CC1CE
:104690008A5F8F70823008F7123F09F057C18A2D68
:1046A0008F71B11050C10E94ED06F1C00A2D0F703C
:1046B0008A2D803110F00295007FB114B9F00115F8
:1046C00069F0812F805E883010F0111109C080914F
:1046D0005706802B809357060E94D210812F2FC03F
:1046E00080915F06802B80935F06F6CF812F0E941A
:1046F0003214011509F4B1CF812F805E883010F09B
:10470000111104C0802F0E94E30706C0009580911C
:104710005F06802380935F060E94D2109ECF809117
:104720005E0682FD16C0B11469F0011539F0809162
:104730005706802B809357060E94D21080E00E947B
:10474000ED138BCF80E00E943214011509F485CF60
:10475000D9CFB114A9F0D11004C0802F0E946E14DB
:104760007CCF8D2D813009F078CF80915806902F25
:104770009823091709F471CF802B809358066DCFC9
:10478000D1106BCF802F0E94771490915806802F04
:10479000892329F0802F8095892380935806809162
:1047A0005906902F982309F458CF009508230093B9
:1047B000590653CF8D2DB11421F0863008F04DCF1E
:1047C000CCCF853008F049CF802F0E94771445CF99
:1047D000D114D1F3193369F48FEF97EE23E08150B0
:1047E00090402040E1F700C00000812F0E94321469
:1047F00034CF8FE39CE90197F1F7F5CF8A2D8695A9
:1048000086958370813060F009F027CF812F9A2D33
:104810009370B11002C080E090E00E948D0D1DCF1A
:10482000812F9A2D9370B11002C080E090E00E9419
:10483000660D13CF8A2D8370E1F5B11028C0812F4A
:10484000829586958770880F880F412F4F70082EAC
:1048500001C0440F0A94EAF7212F207114FF06C00B
:104860002FE001C0220F8A95EAF720958A2D8695C0
:1048700086958370982F8230A1F08330B9F08091B3
:104880005A06913059F0242B82230E94E7060E9499
:10489000530D60E0C7010E94631535CC842B822B39
:1048A000F4CF242B80915A068227EFCF822F842BBE
:1048B000ECCFB11459F1A0FEEACF812F82958695F5
:1048C0008770880F880F412F4F70082E01C0440F4A
:1048D0000A94EAF7212F207114FF06C02FE001C0CF
:1048E000220F8A95EAF720958A2D86958695837002
:1048F000982F823089F08330A1F080915B0691304F
:1049000041F0242B82230E94EA06C1CF8230A8F610
:10491000BECF842B822BF7CF242B80915B0682277E
:10492000F2CF822F842BEFCF8A2D8F70082FB114F6
:1049300031F00E94ED06812F0E946E14A8CF812FC6
:104940000E947714802F0E94F606A1CF70F4103FCA
:10495000C9F0113F91F0B11409F451C0D11409F418
:104960004BC0812F0E94ED1392CF133FF9F0143FFB
:1049700091F790915E0692FD26C08A2D8F71B11439
:1049800011F391CE8D2DB11479F0853008F07FCFE1
:104990008A2D8F71282F81E001C0880F2A95EAF7B0
:1049A00090915B068927AFCF8630F0CF80E0B114BD
:1049B00009F4A9CF8A2D8F71982F81E001C0880F4B
:1049C0009A95EAF7A0CFB11461F08A2D8F7192FF0A
:1049D0006ACE982F990F990F990F936090935C0668
:1049E00062CE81E00E94CD078D2D823008F44FCF3A
:1049F00082E00E94CD074BCF8A2D8F7154CED11407
:104A0000A1F0193369F48FEF97EE23E081509040C5
:104A10002040E1F700C00000812F0E94321437CF00
:104A20008FE39CE90197F1F7F5CF8A2D8F718BCF3A
:104A3000F801E851FC47E730F10508F005CCE150FA
:104A4000FB4C0C9486339091570606312CE71207E5
:104A500009F0C4CC9A7A81E0911101C080E0809382
:104A60004B0665E3911101C069E28CE392E00E947C
:104A7000B40D0E94D21038CBF801E851FC47E73062
:104A8000F10508F09ACADBCF8091A006803170F45E
:104A900080919F06811551F0E0916106209160069A
:104AA00030919B0640919A062E1301C00895BF01D4
:104AB00087E0E89FF0011124DF01AE59B94F149649
:104AC0008C911497811551F111968C911197831344
:104AD00025C08C91841322C015968C911597811155
:104AE0001DC012968D919D91A0919C06B0919D063E
:104AF0008A1B9B0B8436910588F48091A0068F70E9
:104B000080618093A006E859F94F80818F708061A1
:104B100080838AE996E019DA0C94C3076F5F7F4FB0
:104B2000FB01E770C1CFADE0B0E0E9E9F5E20C943C
:104B300022338C0186E0F801DE01189601900D9277
:104B40008A95E1F7F801F58084819AE9892E96E04B
:104B5000992E70909E06711017C0811591F0F11476
:104B600009F40EC1C8010E948B15811509F408C112
:104B700087E0F801AAE9B6E001900D928A95E1F785
:104B800083DFFF24F39455C0D080A280B380C0900F
:104B90009F0620919C0630919D06A501421B530B58
:104BA000C11409F4BDC04436510508F076C0811522
:104BB00041F380919B069180E090A0069E2D90315C
:104BC00008F057C0981214C080919A068D1110C039
:104BD000F11049C08E2D8F7080618093A0068AE904
:104BE00096E0B3D98091A006F8018683F12C21C00C
:104BF000F11039C040E0692D8D2D0E94A40740E0DE
:104C0000692D8D2D0E94A407F82E8111EFCF888584
:104C100099850E948015292F22952F70903470F469
:104C20009F70223098F09115A9F0F801968190318B
:104C300088F48F2D2D96EDE00C943E332A5F2F7073
:104C4000223060F0C80181D9FC2CF3CF911511F00E
:104C5000811579F3805E883060F3F4CF803F48F3AC
:104C6000815F8330F9CF8091A00681608093A00698
:104C7000BDCF981237C080919A068D1133C0F110C4
:104C800031C0E682C80161D987E0F801AAE9B6E03F
:104C900001900D928A95E1F774CFE090A0069E2DC9
:104CA000903148F48AE996E050D9F40187E01192F6
:104CB0008A95E9F79BCF811509F463CF90919B0604
:104CC000818198130FC080919A068D110BC0F1104D
:104CD00009C0E682C80139D9F40187E011928A95AA
:104CE000E9F74FCFC8010E948B15811509F448C020
:104CF000F11409F445C08E2D803208F439CF80912B
:104D00009A0690919B0689839A83AB82BC827D82AE
:104D10001E828091A0068F83CE01019616D928CFDE
:104D20004436510508F0C1CF811509F42ACFF1149A
:104D300039F190919B068181981318C080919A0651
:104D40008D1114C08091A00680FD9ECF803108F4A3
:104D50009BCF8683807F803F09F494CF8681982FF4
:104D6000907F905F8F70892B86838CCFC8010E94C3
:104D70008B158111FDCE8091A00681608093A006E5
:104D8000C801E3D8FECEABE1B0E0E9ECF6E20C946A
:104D90002B334E8B5F8B688F798F8A8F192F9B8F68
:104DA000911110925F061D8A86E0FE017696DE0163
:104DB0001F9601900D928A95E1F70A8D011561F019
:104DC0000B8B1C8B61E0CE010F960E94631561E096
:104DD000CE010F960E9463150B8B1C8B87E0FE01A2
:104DE0003F96DE01189601900D928A95E1F7CE016B
:104DF000089699DE81112EC02091600630916106DF
:104E000087E0AE01485F5F4FFA0147505109DA0170
:104E100001900D928A95E1F78C858115D9F0822F4A
:104E200090E08395877090E0AC0134171506E1F0AF
:104E300097E0929FD0011124AE59B94F9E012F5F88
:104E40003F4FF90101900D929A95E1F7409360066A
:104E50000E94C3078091610690916006891311C07A
:104E60006B96E4E00C9447330E9410111092600698
:104E700010926106EAE9F6E087E011928A95E9F777
:104E8000E9CF27E0829FC00111248E59994F4BDE54
:104E9000811531F3809161069091620601968770C9
:104EA00080936106D7CFA6E0B0E0E9E5F7E20C9485
:104EB0002B330E94F51A8C018091F0059091F10539
:104EC0008017910771F019821A820E94F51ABC01AD
:104ED00049815A8180E090E056DF0093F0051093FD
:104EE000F1052696E4E00C944733ACE0B0E0EBE744
:104EF000F7E20C94283380E00DEF1CEF9091C80589
:104F00002091C705291709F44BC0E92FF0E0E753BA
:104F1000FA4FD080ED2CE894E7F89F5F9370909360
:104F2000C8058091C6058F5F8093C605D7FC07C072
:104F3000EF8218870E94F51A23E0F22E06C0EF8256
:104F400008870E94F51A32E0F32EBC0189879A8700
:104F5000FB8681E08C874F8158858F2D91E013DF90
:104F60008FE39CE90197F1F700C00000E982D7FECA
:104F700015C00A830E94F51ABC018B839C83FD82B5
:104F80001E8249815A818F2D90E0FDDE8FE39CE9DE
:104F90000197F1F700C0000081E0B0CF1A83EACF9B
:104FA0002C96E7E00C944433CDB7DEB7A0970FB64C
:104FB000F894DEBF0FBECDBF85B7806885BF85B7CB
:104FC000806885BF84B7877F84BF0FB6F894A895A3
:104FD00080916000886180936000109260000FBE35
:104FE00080E890E00FB6F8948093610090936100A0
:104FF0000FBE81E080931D0189EC99E080933A0215
:1050000090933B020E94410F0E94F20E8091E200B9
:1050100084608093E200789480917F05811599F0F7
:105020008091E9001091EC008F7010FB112717F9A7
:10503000182B1092E9008091E80083FD0E94361140
:105040001F701093E90082E084BD93E095BD9AEF54
:1050500097BD80936E001092EA051092EB051092B6
:10506000EC051092ED050E94E115811102C00E942D
:10507000A81A88EC90E02091E30027FD0EC0EFE332
:10508000FCE93197F1F700C000000197A1F70E94F9
:10509000410F10927F0580E001C081E08093EE0512
:1050A0008093EF058093200181110E94BA31E5ECD5
:1050B000F5E088E011928A95E9F78091200191E06E
:1050C000892780937A058091200190937D058091B6
:1050D000200180912001811106C084EF80931F017F
:1050E00085EF80931E0160E080E00E94F10C61E09A
:1050F00080E00E94F10C8FE891E00197F1F700C089
:10510000000010E080917D05181708F494C080918C
:1051100020018091200190E0811101C095E09093E1
:10512000DF0585E0891B8093D10502EC11E0F801D1
:1051300081918F018F3F11F00E94CB0981E0073CE4
:105140001807A9F797ECE92E91E0F92E0DEC11E084
:10515000F70181917F018F3F11F00E94CB090E155D
:105160001F05B1F7E5EDF5E08AE011928A95E9F7C0
:10517000E0EEF5E08AE011928A95E9F780E090E0B0
:105180000E942734833E9E4F21F40E94E115811135
:105190002BC063EE7EEF80E090E00E94553460E02B
:1051A00082E090E00E943B3481E080935A0661E007
:1051B00083E090E00E943B3460E074E184E090E0A2
:1051C0000E9455340E9412160E94A81A60E070E0F6
:1051D000AB018FE090E00E944D3460E070E0AB01E5
:1051E00083E190E00E944D3482E090E00E941A3406
:1051F0008093600584E090E00E94273480935D06F0
:1052000090935E060E947D1B8FEF96E721E0815010
:1052100090402040E1F700C000000E947D1B80917B
:10522000D50580FF1AC06FEF7FEF80E090E00E940D
:1052300055340E94050E60E0812F0E94110D082F49
:1052400061E0812F0E94110DE12FF0E0E558FA4F47
:10525000880F802B80831F5F55CF83E090E00E94F2
:105260001A340E94E70683E080935C0580E2809315
:105270005B05F3D66BE070E08EE99CE00E945D195F
:105280008115E9F180915C0565E070E081FDC1C0A8
:1052900089E99CE00E945D19811589F16DE070E05B
:1052A00087E89CE00E945D19811549F10E94DE0D9E
:1052B000DC01CB0180549B42AE4FBF4F809357051A
:1052C00090935805A0935905B0935A05E4E5F3E08F
:1052D000DF0180E092E01D920197E9F7E09352032D
:1052E000F09353038FEF9FEF8093500390935103FC
:1052F00081E0809356058093550510925405809166
:105300005D05811125C08FE496E00E947D14809197
:105310004E06836080934E0680914F06843030F4B1
:105320000E9412168FE496E00E947D140E94750A76
:105330000E94F60A0E942E0D80914F0680FF05C044
:1053400060E0869586950E94251B81E080935D052F
:105350008091EE05811102C00E94BD3181E291E091
:105360008093F2059093F30580917F0502E110E4AC
:10537000853009F487C00E947D1B01E615E085EDAC
:10538000E82E85E0F82EF701D8019D9180812BE66B
:1053900035E02A173B0709F47FC031969817A9F327
:1053A0007090EE05D12C88248394F701C1907F0181
:1053B000F80191908F019C1419F19C24AA24A394C4
:1053C000B12C892D8A21A9F0711499F0B982DA8261
:1053D0000E94F51A8B839C838D8291E08C2D8A210B
:1053E00009F490E09E8349815A816B817C818D8193
:1053F000CADCB394AA0C8B2D863019F7F801C2923F
:10540000D3948D2D8A3089F60E94EA0D332433948B
:1054100047C084E99CE03ECF80917F05843029F12C
:105420000E948D1910925E0588E190E00FB6F89405
:10543000A895809360000FBE1093600083B7817FB2
:10544000846083BF83B7816083BF7894889583B776
:105450008E7F83BF0FB6F894A89580916000886115
:1054600080936000109260000FBE0E947D1BE5EDEE
:10547000F5E08081811136C431968FED95E08E176D
:105480009F07B9F780917F05853009F4C5CF0E9449
:1054900010110E94530D6FCF981382CF04DD312C71
:1054A0008091EE05811509F4B7C0C0901706D09021
:1054B0001806ED2CEE0CEE08FE2C10912D01E7E104
:1054C000F6E081E090E0181719060CF02EC140902C
:1054D00071055090720560907305709074050E947C
:1054E000DE0D64197509860997094B015C01960167
:1054F000A701F7FE03C020E030E0A901A0E6BAEE64
:105500000E9485342B013C0128EC129FC00111241C
:105510009401A501092E000C0008280F391F401D19
:10552000501DA5E0B0E00E9485349B01AC01B201A2
:10553000C3010E94A43429013A0181EF48165104A5
:105540006104710410F000EF402E89EC881691047C
:10555000A104B1040CF18091490690E0019669E143
:1055600070E00E94733380934906880F991F895E0B
:10557000994FFC0110821182183108F017E11F5F6A
:1055800010932D010E94DE0D6093710570937205DA
:10559000809373059093740582E0C816D104E104EA
:1055A000F1040CF4412CC0906D05D0906E05E09094
:1055B0006F05F09070050E94DE0D6C197D098E0953
:1055C0009F096B017C0185E6C816D104E104F10452
:1055D00084F00E94DE0D60936D0570936E058093DC
:1055E0006F05909370058091BA0580936C05409289
:1055F0006B0510916C05A0916B05A11BBB0B96016F
:10560000A7010E948F3424E630E040E050E00E9481
:105610006934120F1093BA0580914D06811509F473
:105620006EC080914C06E0914F06E695E695E81B2A
:10563000E093BD05853109F4E6C008F091C08930DA
:1056400009F4D5C008F07DC0823009F4BAC08630B4
:1056500009F4C2C000ED17E0A5EEEA2EA9E0FA2E8B
:105660008091BE05811561F01092BE050E94011B5C
:105670008093BB059093BC051092BF051092C005A6
:105680000E94011B2091BB053091BC05AC01421B5F
:10569000530B4F3F5F4798F5409177054115B1F0A7
:1056A000109277054091750550917605841B950BF6
:1056B0008F3F9F4758F4405D5A484093750550937B
:1056C000760580914E06886080934E06C090BF0597
:1056D000D090C005200F311F2093BB053093BC052F
:1056E0008BEB95E0F70109958091BF059091C0057E
:1056F000892B29F4CD2819F081E080937705F0906B
:10570000EE05F11411F0F1DBF82E80918C05811576
:1057100051F010928C058091C7058093C805809147
:10572000C5058093C605E12CB1C032962081318138
:10573000032E000C0008C20ED31EE01CF01C0196C4
:10574000C2CE8F3009F086CFE695F0E0EF54F34FEC
:10575000E4910E2F10E066E4E62E6BE0F62E80CF8B
:1057600004EF11E02CE8E22E2CE0F22E843209F452
:1057700077CFA8F408E210E099E1E92E9CE0F92E39
:10578000883109F46DCF833209F064CFECEAFCE094
:10579000059114914CEBE42E4AE0F42E61CF853252
:1057A00009F058CF8E2F63E085D7E92FF0E0E75559
:1057B000F34FE4910E2F10E039ECE32E38E1F32E95
:1057C0004FCFF0E0E654F34FE4910E2F10E0FAE0F3
:1057D000EF2EFBE0FF2E44CFF0E0E954F34FE491CD
:1057E0000E2F10E0E7EEEE2EEAE0FE2E39CFE69522
:1057F000F0E0EC54F34FE4910E2F10E07DE1E72E42
:105800007BE0F72E2DCFF0E0E255F34FE4910E2F21
:1058100010E058EBE52E5BE0F52E22CF61E08E2DF7
:105820000E94110D182F60E08E2D0E94110D110F96
:10583000812B0E2D10E0D801A558BA4FEC919E2F68
:105840009370891711F1EE0FEE0FE82BEC93809116
:105850007A058E0DEF70F0E0E055FE4F08581A4FB4
:10586000D080F8019081D90E9D2D60E092301CF41B
:105870009F3F1CF461E00E94D10C8D2DDD0C990B33
:1058800062E070E030D7F8018083E39480917D0579
:10589000E81620F28091EE05811511F026DBF82A3A
:1058A000F11439F00E94EA0D0E943E1D0E946A190F
:1058B00004C00E943E1D3110F9CF0E94530D9091FB
:1058C0007E05891721F080937E050E94DE0D809170
:1058D0007F05843009F048CD83E08093E900809112
:1058E000E80082FF41CD8091E80090E085FF05C08F
:1058F0000E94C10E811591F091E08091E8008B77B4
:105900008093E800911509F42FCD8981E82FE150AB
:10591000E53168F5F0E0EA5FFA4CF8C680E2E82E7F
:10592000F12C8E010F5F1F4F8091E80085FD0AC0AA
:105930008091E8008B778093E8000E94C10E81156A
:1059400099F3DACF8091F100F801808381E0E81AC1
:10595000F10891F2E7CF1A828CE08B8319C08A811B
:10596000833081F138F4813029F1823051F08FEFAA
:1059700089830EC08430D9F71B821C821D821E824F
:1059800007C088E290E056D71B821C821D828E835E
:10599000E091F205F091F305309709F4E5CC02842B
:1059A000F385E02D309709F4DFCC60E2CE0101965B
:1059B0000995DACC0E94DE0DAFD66B837C838D8394
:1059C0009E83E6CF8B8190E0FE0134968A3091056C
:1059D000FCF6DC01AB52BA4F2C9121930196F6CF25
:1059E0008A81823051F0853009F0C1CF80914F0615
:1059F00080FF0CC00E94FE0ACBCF6B817C818D8121
:105A00009E818AD688E290E036D7C2CF81608093AB
:105A10004F0660E0869586950E94251BB9CF4C8184
:105A20006B818A810E94BC149C013827232732276E
:105A30002D833E83ADCF2D813E8132272327322710
:105A40004C816B818A810E942910A2CF0E94801014
:105A50009FCF9A81923009F08ACF8830D9F189306E
:105A600009F463C08B81833089F1B0F48130E9F0AF
:105A7000823009F08DCF8C81811509F4BBCF8091E4
:105A80004F06816080934F0660E0869586950E9460
:105A9000251B60E08C81C0CF843009F079CF20E0F5
:105AA000409152066D818C810EC08C8128E7829FC7
:105AB000C00111246FEF70E0ACD5462F20E060915B
:105AC0005106809150060E943B1662CF8C818093D4
:105AD00053065ECF8B81833029F168F48130A9F0C1
