:100000000C94DD070C94FA070C94FA070C94553401
:100010000C94FA070C94FA070C94FA070C94FA075C
:100020000C94FA070C94FA070C9495310C946D32E9
:100030000C949F1A0C94FA070C94FA070C94FA0784
:100040000C94FA070C94FA070C94FA070C94FA072C
:100050000C94FA070C9471310C94FA070C94FA077B
:100060000C94FA070C94FA070C94FA070C94FA070C
:100070000C94FA070C94FA070C94FA070C94FA07FC
:100080000C94FA070C94FA070C94FA070C94FA07EC
:100090000C94FA070C94FA070C94FA070C94FA07DC
:1000A0000C94FA070C94FA070C94FA0705010980DE
:1000B000A101850319012AB700150126B700950192
:1000C00075108100C0050C0901A101850419012AE0
:1000D000A002150126A002950175108100C00660DE
:1000E000FF0961A1010962150026FF00952075082E
:1000F00081020963150026FF00952075089102C052
:1001000005010906A101050719E029E715002501E8
:10011000950875018102950175088101050719008F
:1001200029FF150026FF00950675088100050819AE
:1001300001290515002501950575019102950175A7
:10014000039101C000AF00AE09025B00030100A0F3
:10015000FA09040000010301010009211101000155
:10016000224400070581030800010904010002037D
:10017000000000092111010001222200070582036D
:100180002000010705030320000109040200010308
:10019000000000092111010001223200070584033B
:1001A000200001120100020000000832FC87020159
:1001B00000010200010C0353006F0066006C006533
:1001C0000000001A034A006F0073006500660041DA
:1001D00000640061006D00630069006B00000004B2
:1001E00003090435001E001F002000210022002901
:1001F0000014001A000800150017002B0004001658
:1002000000070009000A00E1001D001B000600199C
:10021000000500E300E200E00022522800A80035BB
:1002200000270026002500240023002A00130012C6
:10023000000C0018001C00340033000F000E000DED
:10024000000B00E50038003700360010001100E711
:1002500000E600E40023522C00000035001E001FC1
:1002600000200021002200290014001A00090013B8
:10027000000A002B0004001500160017000700E11B
:10028000001D001B00060019000500E300E200E06D
:100290000001002800A800350027002600250024C2
:1002A0000023002A0033001C0018000F000D00344A
:1002B0000012000C00080011000B00E500380037A8
:1002C00000360010000E00E700E600E40001002CFC
:1002D00000000001003A003B003C003D003E0035BC
:1002E000001E001F0020002100220001001E021F2E
:1002F0000220022102220201002E002D002E022FD8
:10030000023002010001000100010001000100446F
:100310000043004200410040003F00450027002606
:100320000025002400230031022702260225022492
:10033000022302010031003302330030002F00019C
:1003400000010001000100010001000100010001A5
:1003500000010001000100010049004600650000A5
:100360000000000100E200E000E1000000390001AF
:10037000007A007B007C007D00000001000100018C
:100380000001000100010001000100010001000165
:100390000001002A0001000100520001004B002A68
:1003A000004C004F00510050004E000100000001C1
:1003B0000000000100000001000100010001000137
:1003C000000100A900AA004B004E0001000100013D
:1003D000000100237824782578267827782878214A
:1003E00078227800000000E0100808C8B080808003
:1003F0008080808040403C14040890180408B0407D
:10040000800000000000000102C4A4FC0000000005
:100410008000000000000000000080C858282A105A
:100420000F000000000000000E0904040404020391
:100430000201010202040810262B32040506000006
:10044000000000000000E01010F0000000000000BC
:10045000000080808078280810203008102040801C
:100460000000000000000304081011F9010101015F
:10047000010100000000000000000110B0505520F4
:100480001F000000000000000000000001020C102E
:10049000202837021E2020180C141E010000000026
:1004A000000000000000000080402010909090A00C
:1004B000C08080807008140890101008A478800014
:1004C00000000000000000000708FC010000000020
:1004D000800000010000000000000818EA100F0072
:1004E00000000000000000000000031C20203C0F62
:1004F000111F03061820203C0C121E0100000000F2
:10050000000000000000000000804020202040800B
:1005100000000000E01028102020201048F000000B
:1005200000000000000000001F20F802010101018E
:10053000010101030000000001001030D5201F0060
:10054000000000000000000000003F20300C020509
:1005500009121E021C140810202C32010000000099
:10056000000000000000000000000000000000008B
:1005700000E01C02050224040402A91EE0000000A1
:10058000000000000000000000E0100868100804EF
:1005900003000000000000000206827C030000004F
:1005A0000000000000000000000102040C101020F8
:1005B0002020283E1C20203E0F111F0000000000BC
:1005C000000000000000000000000000000000002B
:1005D00000E01C02050224040402A91EE000000041
:1005E0000000000000000000E090081860100804FF
:1005F0000300000000000000020E827C03000000E7
:100600000000000000000000000102040C10102097
:100610002020283E1C20203E0F111F00000000005B
:1006200000000000C02010D03000000000000000DA
:100630008080403C14040890180408B040800000FA
:10064000000000000304081011F90101010101017B
:100650000000000000000080C848282A100F000099
:100660000000000000000000000001020C10202823
:10067000370202040810262B320405060000000091
:1006800000000000E01010F000000000000000007A
:10069000808040402C14040890180408B04080006A
:1006A000000000000304081011F90101010101011B
:1006B000000000000000000080C048282A100F2021
:1006C0004A09100000000000000001020C10202860
:1006D000370202040810262B320405060000000031
:1006E0000000004350534C4B000A0A00556E6465ED
:1006F00066005261697365004C6F776572004261F4
:1007000073650A004C41594552000A0A004D6F6456
:1007100000436C6D6B0A00517772740A000A0A007C
:10072000534F464C450007087F0807003E5B4F5B70
:100730003E003E6B4F6B3E001C3E7C3E1C00183C56
:100740007E3C18001C577D571C001C5E7F5E1C0001
:1007500000183C180000FFE7C3E7FF00001824184A
:100760000000FFE7DBE7FF0030483A060E002629CD
:1007700079292600407F05050700407F05253F00B9
:100780005A3CE73C5A007F3E1C1C0800081C1C3EDB
:100790007F0014227F2214005F5F005F5F00060964
:1007A0007F017F00006689956A006060606060007C
:1007B00094A2FFA2940008047E04080010207E206A
:1007C000100008082A1C0800081C2A0808001E102F
:1007D000101010000C1E0C1E0C0030383E3830007B
:1007E000060E3E0E060000000000000000005F0044
:1007F0000000000700070000147F147F1400242A63
:100800007F2A1200231308646200364956205000E4
:10081000000807030000001C224100000041221CC8
:1008200000002A1C7F1C2A0008083E0808000080DF
:100830007030000008080808080000006060000030
:100840002010080402003E5149453E0000427F400E
:1008500000007249494946002141494D33001814AE
:10086000127F10002745454539003C4A494931006F
:1008700041211109070036494949360046494929AD
:100880001E000000140000000040340000000008BA
:1008900014224100141414141400004122140800FE
:1008A0000201590906003E415D594E007C121112A9
:1008B0007C007F49494936003E41414122007F4149
:1008C00041413E007F49494941007F090909010032
:1008D0003E41415173007F0808087F0000417F417D
:1008E00000002040413F01007F08142241007F406A
:1008F000404040007F021C027F007F0408107F0000
:100900003E4141413E007F09090906003E41512117
:100910005E007F0919294600264949493200030132
:100920007F0103003F4040403F001F2040201F0048
:100930003F4038403F006314081463000304780408
:1009400003006159494D4300007F414141000204C9
:1009500008102000004141417F0004020102040010
:1009600040404040400000030708000020545478F5
:1009700040007F2844443800384444442800384428
:1009800044287F0038545454180000087E0902009F
:1009900018A4A49C78007F080404780000447D40DB
:1009A00000002040403D00007F102844000000412E
:1009B0007F4000007C04780478007C080404780000
:1009C000384444443800FC182424180018242418FF
:1009D000FC007C0804040800485454542400040417
:1009E0003F4424003C4040207C001C2040201C0050
:1009F0003C4030403C004428102844004C909090EB
:100A00007C004464544C440000083641000000005F
:100A100077000000004136080000020102040200D5
:100A20003C2623263C00000000000000404040F02F
:100A3000F8F8FF38FFF8F83FF8F8FF38FFF8F8F05B
:100A400040404000000000000080C0C0C0800000A6
:100A5000C0C08000000080C0C000C0C0000080C0D6
:100A6000C00000000000C0C0C0C0C000C0C0000086
:100A70000000000000000000000000000000000076
:100A80000000000000000000000000000000000066
:100A90000000000000000000000000000000000056
:100AA0000000000000C0F0F8FC3E1E06010000003F
:100AB0007F4141417F007F4141417F000080C0E094
:100AC0007E5B4F5BFEC00000C000DCD7DEDEDED701
:100AD000DC00C0000000000000000000000000007A
:100AE000000000000000000000000000494949FF2C
:100AF000FFFFFFE0DFBFBF00BFBFDFE0FFFFFFFF83
:100B000049494900000000001F3F6060E0BF1F002E
:100B10007F7F071E381E077F7F007F7F0E1F3B7180
:100B20006000000000007F7F0C0C0C007E7E007FC8
:100B30007E0303007F7E03037E7E03037F7E000F20
:100B40003E703C063C703E0F00327B49493F7E00C0
:100B50007F7E0303001E3F69696F260000000000CE
:100B60000000000000030F1F3F3C78706000000091
:100B70007F4141417F007F4141417F00307B7F7851
:100B800030202030787F3B0003000F7F0F0F0F7F56
:100B90000F00030000000000000000000000000043
:100BA000000000000000000000000000010101073B
:100BB0000F0F7F0F7F0F0F7E0F0F7F0F7F0F0F071E
:100BC0000101010000000000000000000001010020
:100BD0000000000000000000000000000000000015
:100BE0000000000000000000000000000000000005
:100BF00000000000000000000000000000000000F5
:100C000000000000000000000000000000000000E4
:100C100000000000000000000000000000000000D4
:100C200000000000000000000000000000000000C4
:100C300000000000000000000000000000000000B4
:100C400000000000000000000000000000000000A4
:100C50000000000000000000000000000000000094
:100C60000000000000002223252628292A2C2D2FF1
:100C70003032333536383A3B3D3E404243454749B2
:100C80004A4C4E5051535557595A5C5E60626466E7
:100C900068696B6D6F71737577797B7D7F818385F3
:100CA00087898A8C8E90929496989A9C9E9FA1A3F5
:100CB000A5A7A8AAACAEAFB1B3B4B6B8B9BBBCBE19
:100CC000BFC1C2C3C5C6C7C9CACBCCCDCED0D1D295
:100CD000D2D3D4D5D6D7D7D8D9D9DADADBDBDBDC97
:100CE000DCDCDCDCDDDDDDDDDCDCDCDCDCDBDBDB43
:100CF000DADAD9D9D8D7D7D6D5D4D3D2D2D1D0CEA3
:100D0000CDCCCBCAC9C7C6C5C3C2C1BFBEBCBBB9A7
:100D1000B8B6B4B3B1AFAEACAAA8A7A5A3A19F9E25
:100D20009C9A98969492908E8C8A89878583817FED
:100D30007D7B79777573716F6D6B696866646260CE
:100D40005E5C5A5957555351504E4C4A494745439A
:100D500042403E3D3B3A3836353332302F2D2C2A37
:100D60002928262523220001010101010101010199
:100D7000020202020202020202030303030303034C
:100D80000304040404040404050505050506060619
:100D90000606070707070708080808090909090AD6
:100DA0000A0A0B0B0B0C0C0C0D0D0D0E0E0E0F0F7B
:100DB0000F10101111111212131314141515161609
:100DC0001717181819191A1A1B1B1C1D1D1E1E1F78
:100DD0002020212222232424252626272829292AC7
:100DE0002B2C2D2D2E2F30313232333435363738EF
:100DF000393A3B3C3D3E3F404142434445464748EB
:100E0000494A4C4D4E4F50515354555658595A5BC0
:100E10005D5E5F616264656668696B6C6D6F707260
:100E2000737577787A7B7D7E8082838587888A8CCC
:100E30008E8F91939596989A9C9EA0A2A3A5A7A900
:100E4000ABADAFB1B3B5B7BABCBEC0C2C4C6C9CBF7
:100E5000CDCFD1D4D6D8DBDDDFE2E4E7E9EBEEF0AD
:100E6000F3F5F8FAFDFF00DA02815AD9F1DB20A48C
:100E7000A62EAF00A0C0D30000A1C8D30000AED5FD
:100E800080A81F408D142000783C1E1E140A050007
:100E90000000000000000000000000000000000052
:100EA0000000000000000000000000000000000042
:100EB0000000007E0F00D4FFFFFFC7000000780095
:100EC000000000000000002A2B28000000000000A5
:100ED0000000000000000000000029000000002CBD
:100EE0001E3420212224342627252E362D3738275C
:100EF0001E1F202122232425263333362E37381F68
:100F00000405060708090A0B0C0D0E0F1011121329
:100F10001415161718191A1B1C1D2F3130232D35C7
:100F20000405060708090A0B0C0D0E0F1011121309
:100F30001415161718191A1B1C1D2F3130354C01AA
:100F4000000005010502050305040505050006016D
:100F5000060206030604060506000701070207034A
:100F6000070407050700080108020803080408052C
:100F70000800090109020903090409050900000123
:100F8000000200030004000500000101010201034A
:100F9000010401050100020102020203020402052C
:100FA0000200030103020303030403050300040119
:100FB0000402040304040405040011241FBECFEF3F
:100FC000DAE0DEBFCDBF11E0A0E0B1E0EEEEFEE67C
:100FD00002C005900D92AE3CB107D9F725E0AEEC0A
:100FE000B1E001C01D92A73CB207E1F70E94572A69
:100FF0000C9405370C940000982F82958F708823ED
:1010000011F0982F84E0292F26952695222311F0A0
:101010008E5F922F969591118F5F0895809374053E
:10102000089580937505089521E030E001C0220FF6
:101030008A95EAF780917505822B0E941108089520
:1010400021E030E0A90102C0440F551F8A95E2F764
:10105000CA0180959091750589230E941108089511
:101060009B01677091E001C0990F6A95EAF763E010
:10107000369527956A95E1F7B901660F771F260F18
:10108000371FFA01E20FF31F40E050E0682F70E0D5
:101090008191DF0111979B01042E02C0369527959F
:1010A0000A94E2F7217021952827292328272C93D9
:1010B0004F5F5F4F4330510559F708959C01A82FAA
:1010C000A77083E0369527958A95E1F7C901880FC7
:1010D000991F820F931FFB01E80FF91F40E050E0BA
:1010E00080E0219130E00A2E02C0369527950A94BF
:1010F000E2F721703327042E01C0220F0A94EAF789
:10110000822B4F5F5F4F4330510559F70895282FC9
:10111000862F9A3070F4263058F4622F70E026E063
:10112000929F600D711D112449E155E00E94300825
:1011300008959C5F9230E0F7622F70E046E155E041
:10114000F5CF292F9A3068F4863090F490E069E169
:1011500075E036E0239F800D911D11240E945E08EA
:1011600008952C5F223020F466E175E090E0F6CF20
:1011700080E008959091750521E030E0F90101C00B
:10118000EE0F8A95EAF7D90102C0AA0FBB1F6A9534
:10119000E2F7EA2B01C0220F4A95EAF7892F8E2346
:1011A000E81305C0892F822B0E941108089520950D
:1011B000822F8923F9CF8091870590918605981316
:1011C00001C008958F5F8770FACF90917705809561
:1011D000892380937705282F277021110DC0891747
:1011E00059F090917A0592FF07C08695869586956D
:1011F0000E942008109277050895982F909580916D
:1012000071058923809371050895803E9105D1F180
:10121000C8F48133910509F47FC048F489329105FF
:1012200009F46FC08A32910509F47DC008958933AD
:101230009105E1F082389105C9F08533910509F4F3
:101240005BC00895843E9105D1F148F4823E91053A
:1012500031F1833E910541F181EE90E00895863EA3
:101260009105C1F1873E9105E1F10895209179053D
:101270002370211165C020917A0523FF14C089E2F3
:1012800090E008952091790520FD43C030917A05C2
:1012900030FF09C024FF4EC080E090E00895209107
:1012A000790522FDF7CF08952091790522FD45C0EB
:1012B00030917A0530FD44C024FFF5CFEDCF209169
:1012C0007A0521FFF0CF8091790584FDE5CF87EE87
:1012D00090E008952091790523FFE5CF24FDDCCF30
:1012E000F6CF2091790523FD2EC030917A0531FF8C
:1012F000E3CF84EE90E008952091790525FFD3CFC8
:10130000BECF2091790525FD21C020917A0523FFCC
:10131000CACF89E390E008952091790526FFC3CFD5
:101320008AE290E008952091790526FFBCCF81E301
:1013300090E0089583EE90E0089582EE90E00895A5
:1013400080EE90E0089586EE90E0089585E390E0C9
:10135000AACF9091790592FF10C041E0282F247107
:10136000243009F040E031E0282F2871283009F0BE
:1013700030E0431711F02CE0822793FF10C041E0CA
:10138000282F2471243109F040E031E0282F287102
:10139000283109F030E0431711F02CE0822730911A
:1013A0007A0530FF10C051E0282F2171213009F05B
:1013B00050E041E0282F2871283009F040E0541710
:1013C00011F029E0822731FF10C041E0282F217160
:1013D000213109F040E031E0282F2871283109F04F
:1013E00030E0431711F029E0822794FD877E0895AD
:1013F0001F93CF93DF930E940509EC01811522E52D
:10140000920708F053C0811540E5940708F0EAC040
:10141000803E9105F8F48D3C910508F0A8C0883A0B
:10142000910580F4853A910508F093C081309105CB
:1014300021F00497813A910550F4CE01DF91CF91CC
:101440001F910895885A91094B9708F485C0C0E010
:10145000D0E0F3CF811550E49507F8F4C11580E290
:10146000D80708F0D8C0C83ED10538F3CE019A9508
:1014700081159F4160F78D2F0E94A909182FCE0179
:1014800099270E940509212F30E0322F2227E901F8
:10149000CC27DF71C82BD92BD0CF99270E94050903
:1014A000CC27DF70C82BD92BD06AC7CF803A42E552
:1014B000940770F58038924508F086C0C03682E502
:1014C000D807B0F08C2F86958695877020E2829F92
:1014D000C0011124C37021E030E0A90102C0440F13
:1014E000551FCA95E2F7EA01C82BD92BDA68A5CFB8
:1014F000C03452E5D50708F051C0C03282E5D807A4
:10150000C0F1CF71D0E0DC2FCC27C16FD06A95CF6E
:10151000803E22E5920780F4803C42E5940708F083
:101520005AC08F710E94A909C82FD0E0DC2FCC27A8
:10153000CC27DF71D06281CF96558F3F910511F096
:1015400008F085CFCE0199270E940509EC01D066ED
:1015500074CFA497D06471CFC85AD0E0CC0FDD1FF0
:10156000C856DE4F0990D881C02DD46466CFD065AF
:1015700064CF8C2F8695869550E2859FC0011124FB
:10158000C37021E030E0A90102C0440F551FCA9585
:10159000E2F7EA01C82BD92BDD684FCF8C2F869557
:1015A0008695877050E2859FC0011124C37021E0A9
:1015B00030E0A90102C0440F551FCA95E2F7EA01C5
:1015C000C82BD92BDC6839CFCF71D0E0DC2FCC27EA
:1015D000C46FD06A32CFD82FCC27CC27DF71C06F31
:1015E000D06A2BCF8F710E94A90965E0D695C79567
:1015F0006A95E1F7CF70D0E0DC2FCC27282F30E0C0
:1016000084FF05C054E0220F331F5A95E1F7C22B27
:10161000D32BD06912CF8D2F8F710E94A909182F5B
:10162000CE0199270E940509212F30E0322F222771
:1016300022273F71282B392BE9017CCF80E00895C8
:10164000F894E82FE295EF70F0E041A18F7021E06F
:1016500030E0B90102C0660F771F8A95E2F7CB012F
:10166000962F9095942391A392A1892B82A378948D
:1016700008950895A0E0B0E0E0E4FBE00C948C3520
:10168000E901E42FF0E0EA59F24F61110BC0E49157
:101690009E2F8E2F8983E8839A83CDB7DEB7EAE049
:1016A0000C94A835282F30E0062F10E0F491EF2F8E
:1016B00086E0829F6001839FD00C1124EE24EA947F
:1016C000F12CC601B7010E947035220F331F45E58A
:1016D000469FC001479F900D1124281B390B822F74
:1016E000880F280FC701801B910BF89FA001F99F5D
:1016F000500D1124952F209F5001219FB00C1124D3
:10170000AB2CBB24D701AA19BB095D01FA9DD001FE
:10171000FB9DB00D11248B2F5701A21AB108950122
:10172000209F5001219FB00C309FB00C1124AB2C96
:10173000BB24EA18FB08FE9D9001FF9D300D11248B
:1017400063307105C9F01CEFC11613E0D10650F4E7
:101750006130710509F49ECF6230710589F08E2FDA
:10176000E32F98CF6430710571F066307105B9F3DD
:10177000E52F9B2F8F2F8ECFEB2F852F9F2F8ACF7B
:10178000852F932F87CF832FE52FF8CF8091690581
:10179000843028F4837084608093690508958432CE
:1017A000E8F383708062F8CFE6E6F5E0118282818B
:1017B000846082830895FA01882311F009950895C1
:1017C000FB01FCCF2091910436E0839FC0011124DE
:1017D000269F800D911D1124811522E0920714F09F
:1017E00080E090E086579D4F909389028093880215
:1017F0000895FC01680F791F8FEF91E3E617F70753
:1018000009F408952191822728E030E087FF08C07D
:10181000880F89272150310921153105B9F7EECFFD
:10182000880FF8CF80910405882359F0E0910C05CA
:10183000F0910D05309729F00190F081E02D099588
:10184000089580E00895A3E0B0E0E9E2FCE00C94A4
:1018500094359C01809100029091010282179307B8
:10186000A1F03093010220930002E0910C05F09169
:101870000D05309751F083E089833B832A830084F0
:10188000F185E02DCE01019609952396E2E00C94B6
:10189000B035A3E0B0E0EFE4FCE00C9494359C019B
:1018A0008091FE019091FF0182179307A1F0309380
:1018B000FF012093FE01E0910C05F0910D0530979A
:1018C00051F084E089833B832A830084F185E02DF5
:1018D000CE01019609952396E2E00C94B0359C0167
:1018E000FC0132968FEF90E04191461751F08F3F07
:1018F00019F4411101C0892F9F5F9630A9F78F3FDE
:1019000009F40895280F311D87FD3A95F901628386
:1019100008959C01FC013296285F3F4F8191861308
:1019200003C0DF0111971C92E217F307B9F708957E
:10193000A4E0B0E0EEE9FCE00C9494358FB7F894A5
:101940002091FA013091FB014091FC015091FD0181
:1019500029833A834B835C838FBF69817A818B8132
:101960009C812496E2E00C94B035A4E0B0E0EBEB6F
:10197000FCE00C94943580910405882371F00E945A
:10198000980C69837A838B839C8369817A818B81AC
:101990009C812496E2E00C94B0350E94980C6983F7
:1019A0007A838B839C838091000590910105A0919F
:1019B0000205B091030529813A814B815C81280F92
:1019C000391F4A1F5B1F29833A834B835C83DDCF1A
:1019D0000E94B50C609308057093090580930A0571
:1019E00090930B050895A4E0B0E0E9EFFCE00C94BF
:1019F0009235462F572FBC012FB7F8948091FA01EA
:101A00009091FB01A091FC01B091FD012FBF8C01D1
:101A10009D01041B150B260B370BC901B801249639
:101A2000E4E00C94AE3587E797E790930108809344
:101A3000000888E19AE00FB6F894A89580936000BA
:101A40000FBE90936000FFCF8091F9010895089533
:101A50000895FC019B018091EF019091F0018617A0
:101A6000970740F0672B29F48091E8008E778093E8
:101A7000E800C90140E0009741F4411106C080919F
:101A8000E80082FF2FC080E008952091C90422233E
:101A9000A9F12530A9F12091E80023FD2DC0209166
:101AA000E80022FDECCF2091E80020FFE4CF309148
:101AB000F3002091F200009719F02830310558F01A
:101AC00041E02830310509F040E02091E8002E7710
:101AD0002093E800D0CF41914093F10001972F5F10
:101AE0003F4FE9CF8091C904882341F0853041F010
:101AF0008091E80083FFC3CF81E0089582E00895DC
:101B000083E008958091E90187FF13C08091E80088
:101B100082FF06C08091E8008B778093E80004C0C4
:101B20008091C9048111F2CF08958091C90488235E
:101B3000D9F38091E80080FFF8CF8091E8008E779C
:101B4000ECCF2091E4003091E50095E6A901809169
:101B5000EC008170882331F08091E80080FF06C09E
:101B600080E008952091E80022FD1BC08091C90407
:101B7000882391F0853091F08091EB0085FD10C0B5
:101B80002091E4003091E5004217530701F3915092
:101B90009111DCCF84E0089582E0089583E00895F8
:101BA00081E00895E8EDF0E080818E7F80831092DF
:101BB000E2001092DA001092E100A0EEB0E08C9109
:101BC00081608C9380818F77808319BCA7EDB0E012
:101BD0008C918E7F8C9380818F7E80831092E80120
:101BE0000895CF93DF93682F209188023091890266
:101BF000D901AA58B2402A52324021303240C8F0AE
:101C000020E032E02A1B3B0B409186025091870274
:101C1000E62FF92FCD012A0F3B1FC1E0D0E082173C
:101C2000930750F05093870240938602DF91CF9143
:101C3000089520E630E0E8CF6491DC01A657BD4F5F
:101C40007C91671779F06C93BC01A5E07695679558
:101C5000AA95E1F7DE0102C0AA0FBB1F6A95E2F761
:101C60004A2B5B2B01963196DACF982FE42FE27046
:101C70009093E900891308C0762F242F50E0E111DA
:101C800011C091E0980FF4CF7091EC002091ED001D
:101C90005091F00021FD06C09F5F973049F7809377
:101CA000E90008953091EB003E7F3093EB003091D6
:101CB000ED003D7F3093ED003091EB0031603093CB
:101CC000EB007093EC002093ED005093F000209116
:101CD000EE0027FDE1CF0895A0E0B0E0E2E7FEE0EE
:101CE0000C948E35C8EDD0E088818F7E8883E7ED37
:101CF000F0E080818160808384E082BF81E0809316
:101D0000E80188818E7F888302EE10E0F80110825E
:101D10001092DA0081EEC82ED12CF6011082888153
:101D20008F77888388818068888388818F7D888386
:101D300019BC1092C9041092E701109295041092F8
:101D4000E60190EEE92EF12CF70180818B7F8083F4
:101D500088818160888342E060E080E00E94350EE7
:101D6000F60180818E7F8083F8018081816080838D
:101D7000808188608083F70180818E7F8083888165
:101D800080618883CDB7DEB7E8E00C94AA35E09196
:101D900087059091860527E0E91302C080E0089549
:101DA000AE2FB0E02E9FF0011124E857FA4F318199
:101DB000361306C03081381303C03581341304C094
:101DC000FD013196E770E8CF81E0089540910B0165
:101DD0008091690580FF24C020910A0130E0C9018B
:101DE000880F991F820F931F8E5C9D4F539A6BB182
:101DF000677F7BB17860EFB7F89450E09A01220FCB
:101E0000331F240F351F280F391F28173907E9F40E
:101E1000EFBF8FE594E00197F1F700C0000008954F
:101E200080910C0190910D01282F30E0F901EE0F07
:101E3000FF1FE20FF31FEE5CFD4F891768F611825A
:101E4000108212828F5F3396F8CFDC014D91CD0165
:101E500058E07BB9000000C047FF6BB9440F000099
:101E600000C000C000C06BB900C05A9591F7CDCF3B
:101E7000E9E6F5E080818E7F80830E94D40BE6E660
:101E8000F5E08281816082830E94E60E0895909140
:101E9000690590FF11C090910C0150910D01292FFF
:101EA00030E0F901EE0FFF1FE20FF31FEE5CFD4F74
:101EB000951718F00E94E60E08958183608342838F
:101EC0009F5F3396F5CFA3E0B0E0E9E6FFE00C9426
:101ED00094359091690590FF0AC09E012F5F3F4F96
:101EE0000E943A0B4B8169818A810E94470F239699
:101EF000E2E00C94B035CF93DF93EC01E9E6F5E036
:101F0000438162818C810E94630F8C818F5F8C83FF
:101F1000DF91CF910895CF93DF93EC01EC81F0E056
:101F2000EA59F34F4491E9E6F5E0628181810E942C
:101F3000630F8C818F5F8C83DF91CF9108950F9316
:101F40001F93CF93DF93EB018A019091C9049430E2
:101F500079F58093E9008FEF9091E80095FD07C037
:101F600095ED9A95F1F7000081508111F5CF8091A0
:101F7000E80085FF1DC00E94A10D811114C0809151
:101F8000E80085FD06C08091E8008E778093E80028
:101F9000F2CF88818093F1000150110901151105DC
:101FA00011F02196ECCF8091E8008E778093E800C5
:101FB000DF91CF911F910F910895CF93DF93D82F89
:101FC000C92F48E050E0682F792F81E00E949F0FD1
:101FD00088E0ED2FFC2FA1EFB1E001900D928A95E2
:101FE000E1F7DF91CF910895BC0143E050E084E038
:101FF0000E949F0F0895A0E0B0E0E1E0F0E10C94B2
:102000008C35F82EE92EB62EA72E8A018091E40198
:10201000CC24C394D12C8A3018F48AE0C82ED12C59
:10202000C1E0D0E06B2D7A2D8F2D9E2DF801099502
:10203000811116C02196CC16DD0694F0CC9FC0010C
:10204000CD9F900D900D112420E030E045E34A959E
:10205000F1F700002F5F3F4F28173907B9F7E2CF9C
:10206000CDB7DEB7EAE00C94A83590917A0592FBE3
:10207000222720F9281779F080FB92F990937A05AE
:102080006091790570917A0584E090E00E94EF36C6
:1020900082E00E94E50808951F93CF93DF93962F67
:1020A000122F632F8430D8F49A30C8F44630B8F435
:1020B000C42FD0E0CC0FDD1F2CE0929FC00DD11DAE
:1020C000112498E7899FC00DD11D1124CE01899656
:1020D0000E94D136612FCE018A960E94D136DF91BF
:1020E000CF911F9108951F93CF93DF93962F122FB7
:1020F000632F8430D0F49230C0F428E0829FE00156
:10210000112424E0929FC0011124C80FD91FC75F7A
:10211000DD4FCE01442369F00E94D13681E090E08A
:10212000612F8C0F9D1F0E94D136DF91CF911F919F
:10213000089502960E94D13683E090E0F1CF8F920D
:102140009F92BF92CF92DF92EF92FF920F931F93D5
:10215000CF93DF9303EC13E0E12CF12CC0E04701B7
:10216000D0E015C0F601259134914B2D6D2F8C2FA9
:102170000E944C1022E0C20ED11CB39436E0B31280
:10218000F1CF86E0880E911CDF5FDA3049F0C401A0
:10219000880F991F9C012D513E4F6901B12CE2CF50
:1021A000F8012591349141E060E08C2F0E9473107A
:1021B000F80132962591349140E060E08C2F0E9426
:1021C0007310F80134962591349141E061E08C2F31
:1021D0000E947310F80136962591349140E061E039
:1021E0008C2F0E947310085F1F4FCF5F3CE3E30EFC
:1021F000F11CC43009F0B3CFDF91CF911F910F9143
:10220000FF90EF90DF90CF90BF909F908F900895B8
:10221000CF93DF93C9E2D2E060E0CE010E94D136D5
:102220002196C11584E0D807B9F7DF91CF910895C1
:10223000882381F064E285E290E00E94D13669E073
:1022400086E290E00E94D13667E087E290E00E944B
:10225000D13608956FEF85E290E00E94D1366FEF9E
:1022600086E290E00E94D1366FEFEFCF80E00E94CF
:10227000181160E088E290E00E94D1360E949F1021
:102280000E94081181E00E94181108950F931F9376
:10229000CF93DF93843030F56A3020F5463010F567
:1022A000C42FD0E0CC0FDD1F2CE0629FC00DD11DEC
:1022B000112438E7839FC00DD11D1124CE018996CA
:1022C0000E94AD36082F10E0102F0027CE018A960D
:1022D0000E94AD369801282BC901DF91CF911F9143
:1022E0000F91089580E090E0F8CF0F931F93CF9364
:1022F000DF93843078F5623068F528E0829F8001B2
:10230000112434E0639FB0011124060F171F075FEB
:102310001D4FC8014423A1F00E94AD36C82FD0E064
:10232000DC2FCC2781E090E0800F911F0E94AD361A
:102330009E01282BC901DF91CF911F910F91089524
:1023400002960E94AD36C82FD0E0DC2FCC2783E068
:1023500090E0EACF80E090E0EECF7A3048F466304B
:1023600070F4843060F4462F672F0E944611089560
:102370007D3F41F4623018F441E0843050F080E059
:1023800090E008957C3FD9F76230C8F78430B8F701
:1023900040E00E9475110895A0E0B0E0E2EDF1E1A7
:1023A0000C948F357C010091750580917405082B84
:1023B000C3E0D0E010E0C8010C2E02C095958795CF
:1023C0000A94E2F780FD09C02197A8F7D12C8D2D42
:1023D000CDB7DEB7E7E00C94AB35DC2EB7018C2F20
:1023E0000E94AD110E94F809019771F3F0CF0F938D
:1023F0001F93CF93FC01858100811181882391F087
:10240000662381F0C8010E94CC11C82F682FC80133
:102410000E948708B8018C2F0E94AD11CF911F91A7
:102420000F910895C8010E94A108C82FF3CFCF9340
:10243000DF93D82FC92F0E94CC116D2F7C2F0E94C3
:10244000AD110E94F809DF91CF910895FC018481BC
:102450008823A1F0808191810E941712282F9295E4
:102460009F70963091F060F4925F9F70923030F4DC
:1024700081E0203F79F030F4283E30F080E004C065
:102480009A5FF3CF243FD1F7089581E0283E18F0FA
:10249000213FF9CF0895089585E290E00E94AD367E
:1024A000843289F486E290E00E94AD36893059F496
:1024B00087E290E00E94AD3691E0873009F090E02D
:1024C000892F8170089580E0FCCF809171059091F3
:1024D0007B05892B40917205442389F090E022ED21
:1024E00031E0F90150812F5F3F4F51119F5F51E063
:1024F000283D3507B1F7911110927205842B809316
:10250000D00148E050E06EE075E080ED91E00E947F
:102510009736892BA9F088E0E0EDF1E0AEE0B5E078
:1025200001900D928A95E1F7E0910C05F0910D056F
:10253000309731F00280F381E02D80ED91E0099534
:10254000089510927105E2EDF1E086E0DF011D9241
:102550008A95E9F780E090E00E94230C80E090E00B
:102560000E94490C10927B050E94651208950E94FA
:10257000A1122FEF84E39CE0215080409040E1F7CE
:1025800000C0000088E19AE00FB6F894A895809307
:1025900060000FBE90936000FFCFAAE2B0E0E3EDD1
:1025A000F2E10C94933589EE91E0FC0101962091C3
:1025B000F100208321E0813F9207B9F78091EA0181
:1025C000893009F456C0C8F4823009F4B3C08330AE
:1025D00009F482C0813071F18091E80083FFE7C087
:1025E0008091E9019091EA019A3008F0E0C0E92F6A
:1025F000F0E0E95FF84C0C941C368A3009F489C08D
:102600008B3051F78091E901813231F78091ED01F2
:102610009091EE01892B01F78091E800877F8093EC
:10262000E8000E94820D8091EB01809300010E94DE
:10263000A112D2CF8091E901813A71F68091E80030
:10264000877F8093E8008091ED019091EE01892BC6
:1026500061F060E080E090E070E00E94290D8091E0
:10266000E8008B778093E800B7CF68E081EF91E0D6
:10267000F3CF8091E901813209F0AECF8091ED0175
:102680009091EE018D7F892B09F0A6CF8091E80013
:10269000877F8093E8008091E80082FF18C09091C6
:1026A000F3008091F200029731F48091F1008130C3
:1026B00011F0863021F48091F1008093F90180912E
:1026C000E8008B778093E8000E94820D85CF80918F
:1026D000C9048111E0CF80CF8091E901813A09F0EE
:1026E0007BCF8091ED019091EE01892B09F074CFA1
:1026F0008091E800877F8093E8008091E80080FF68
:10270000FCCF809100018093F1008091E8008E77EA
:10271000D9CF8091E901813209F05ECF8091E80044
:10272000877F8093E8000E94820D8091EC01809366
:10273000E50152CF8091E901813A09F04DCF8091B6
:10274000E800877F8093E8008091E80080FFFCCF5D
:102750008091E501D8CF803889F0823841F58091A9
:10276000ED018F70873018F58093E9008091EB00C0
:1027700085FB882780F91092E90006C08091E60168
:1027800090919504911182609091E800977F9093C9
:10279000E8008093F1001092F1008091E8008E77BC
:1027A00023C0811116C08091EB01813011F180911D
:1027B000E80083FF0AC08091E800877F8093E800EB
:1027C0008091EB0080628093EB00AA96E3E00C948A
:1027D000AF35823061F78091EB01882389F0109248
:1027E000E9008091E800877F8093E8000E94820DD5
:1027F000DECF81E0933009F080E080939504EFCF45
:102800008091ED018F702FEF280F263080F6809396
:10281000E9002091EB0020FFE2CF933031F480916A
:10282000EB0080628093EB00DACF9091EB00906137
:102830009093EB0021E030E0A90102C0440F551F46
:102840008A95E2F74093EA001092EA008091EB004B
:102850008860E8CF8111ABCF1091EB011F77809199
:10286000E3008078812B8093E3008091E800877FEC
:102870008093E8000E94820D8091E80080FFFCCFE9
:102880008091E30080688093E30083E0111101C030
:1028900082E08093C9048BCF8058823008F087CFC4
:1028A0004091EB015091EC014C3D83E0580799F5C4
:1028B00083E08A838AE289834FB7F894DE01139616
:1028C00020E03EE051E2E32FF0E050935700849186
:1028D00020FF03C082958F703F5F8F708A30C8F0F1
:1028E000895C90E08D939D932F5F243161F74FBFFA
:1028F0008091E800877F8093E8006AE270E0CE0173
:1029000001960E94290D8091E8008B778093E80062
:102910004ECF805DE6CF8091ED019091EE01252FA5
:1029200033272330310509F44AC078F521303105C9
:1029300009F479C08BE590E0E8E4F1E0223031055C
:1029400009F035CF2091E800277F2093E8002091FF
:10295000EF013091F0018217930708F49C0140E0E9
:102960002115310509F064C0411162C08091E80071
:1029700082FDC9CF8091C904882329F2853019F2DC
:102980008091E80083FFF2CFBECF2132310509F4F8
:102990003BC02232310509F00ACF8330910508F09F
:1029A00006CFFC01EE0FFF1FE25AFE4F0190F081AF
:1029B000E02D855A9E4FDC018C9190E011C0CA0138
:1029C0009927413089F082309105B1F0892B09F0C7
:1029D000EECEEFEDF1E0E4918E2F90E0EFEDF1E03F
:1029E000009709F4E4CEAECFE3ECF1E0E4918E2F52
:1029F00090E0E3ECF1E0F4CFE5EBF1E0E4918E2F31
:102A000090E0E5EBF1E0ECCF8330910508F0CFCE1C
:102A1000FC01EE0FFF1FEC59FE4F0190F081E02DFD
:102A200089E090E08FCF82E190E0E3EAF1E08ACFA5
:102A30008091C904882309F466CF853009F463CFF7
:102A40008091E80083FD5FCF8091E80082FD8ECF0A
:102A50008091E80080FF84CF9091F3008091F20094
:102A60002115310519F08830910550F041E00897A3
:102A700009F040E08091E8008E778093E80070CF05
:102A800044914093F1003196215031090196E8CFED
:102A9000803809F08CCE8091E800877F8093E80031
:102AA0008091E7018093F10078CE811180CE109162
:102AB000EB01123008F07BCE8091E800877F809395
:102AC000E8001093E7010E94820D1123D1F084E009
:102AD0008093C90442E061EC81E00E94350E42E23D
:102AE00061EC84E00E94350E42E261EC82E00E94DB
:102AF000350E42E260EC83E00E94350E8091C904FD
:102B000056CE8091E30087FDE2CF81E0E1CFCF9305
:102B1000C82F8823A9F08CEF8C0F813A98F4E2ED4E
:102B2000F1E088ED91E02191C217B1F18E179F0776
:102B3000D1F76C2F80ED91E00E946F0C0E9465121E
:102B4000CF91089580E28C0F883068F4C77021E03F
:102B500030E001C0220FCA95EAF780917105822BFF
:102B600080937105EBCF8BE58C0F833038F42C2FDD
:102B70002452330BC9010E94230CE2CFC85ACB3137
:102B8000F8F6EC2FF0E0EE0FFF1FE856FE4F8081C5
:102B900091810E94490CD4CF6C2F80ED91E00E946E
:102BA000890C0E946512C5CF682F882341F18CEFF4
:102BB000860F813A38F480ED91E00E94890C0E94E2
:102BC0006512089580E2860F883048F4677081E0CE
:102BD00001C0880F6A95EAF70E94FD08F0CF8BE5E7
:102BE000860F833028F480E090E00E94230C089543
:102BF000685A6B3120F480E090E00E94490C0895FF
:102C0000CF93C82F893399F489E30E94871580E513
:102C100090E0EFE9FFE03197F1F700C00000019785
:102C20000097B9F78C2F0E94D415CF9108950E9478
:102C300087158AE090E0EDCF882339F090917105F7
:102C4000892B809371050E9465120895882321F0D5
:102C50000E94FD080E9465120895A0E0B0E0E3E341
:102C6000F6E10C948E358901D42FC52F6B017C01C0
:102C70000E94C60BA8016D2F7C2F88E090E00E9477
:102C8000E33698014D2F5C2FB601C70100E20E9488
:102C90005736622F84E290E00E94D136CDB7DEB77E
:102CA000E8E00C94AA35E9E6F5E085E0808311823E
:102CB0008FEF828383831482A6E6B5E012968C910F
:102CC0001297836012968C93758125E030E04FEF68
:102CD0005FEF60E0868197810E942D1608958091B4
:102CE0006D05833018F48F5F80936D052091690521
:102CF00030916A0540916B0550916C0560916D05AE
:102D000070916E0580916F05909170050E942D164F
:102D1000089580916D05882319F0815080936D0589
:102D20002091690530916A0540916B0550916C05C1
:102D300060916D0570916E0580916F0590917005A1
:102D40000E942D160895A3E0B0E0E9EAF6E10C94A4
:102D50009035082FF62E142FE22E8091690580FF02
:102D600041C020916A05201308C090916B0596130D
:102D700004C090916C05941729F0909168059260B9
:102D800090936805E82FE695E695F0E0EE58FE4F43
:102D90009081909366058C7F843041F59E012F5F72
:102DA0003F4F412F6F2D802F0E943A0B4B8169813D
:102DB0008A810E94470F00936A05F0926B05109379
:102DC0006C05EE2079F02091690560916D05709198
:102DD0006E05302F4F2D512F80916F05909170050A
:102DE0000E942D162396E6E00C94AC35923019F42F
:102DF00010916C05E0CF9630F1F6022FDCCFE9E6BA
:102E0000F5E0818121E043816281885F0E94A31601
:102E10000895E9E6F5E0818121E0438162818850EF
:102E20000E94A3160895E9E6F5E0628121E1620FB0
:102E300008F46FEF21E0438181810E94A316089579
:102E4000E9E6F5E0628121E1621B08F460E021E03F
:102E5000438181810E94A3160895E9E6F5E043814C
:102E600021E1420F08F44FEF21E0628181810E944D
:102E7000A3160895E9E6F5E0438121E1421B08F439
:102E800040E021E0628181810E94A3160895A8E0BC
:102E9000B0E0EDE4F7E10C94943566EE7EEF80E06F
:102EA00090E00E94EF3660E082E090E00E94D13630
:102EB00081E08093740561E083E090E00E94D13668
:102EC00060E074E184E090E00E94EF3660E086E02C
:102ED00090E00E94D1366FEF87E090E00E94D136FB
:102EE00040E050E0BA0188E090E00E94E33660E004
:102EF00084E290E00E94D13660E087E190E00E9499
:102F0000D13660E08CE090E00E94D13660E08DE048
:102F100090E00E94D13619821A821B821C821D8287
:102F20001E821F82188648E050E068E170E0CE0102
:102F300001960E94C13640E050E0BA0180E290E084
:102F40000E94E33680E00E9418110E94361140E092
:102F500050E0BA018FE090E00E94E33640E050E09C
:102F6000BA0183E190E00E94E3362896E2E00C94F7
:102F7000B035A0E0B0E0EFEBF7E10C948E35FA014C
:102F800069017801C82F880FDD0B3097B1F0DE01A1
:102F900093E0AA0FBB1F9A95E1F7A35EBE4F11966F
:102FA0008D919C91129788519B4F4C9150E0E41762
:102FB000F50708F4AF010E94A436CE010E94FB344D
:102FC000182F8823D1F0E114F104B9F083E0CC0F7D
:102FD000DD1F8A95E1F7FE01E35EFE4F438150E07D
:102FE000E416F50608F4A701C35EDE4F6C817D810F
:102FF00068517B4FC6010E94A436812FCDB7DEB742
:10300000E8E00C94AA35A5E0B0E0E9E0F8E10C9422
:103010008835762E6A014901580101E010E09E01D1
:103020002F5F3F4F40E050E060E070E00E94B91732
:10303000182F8823B9F1D6018D919D910D90BC91E7
:10304000A02DBC01CD010E94F30C6980643671058E
:103050008105910530F4B701C5010E94F90B861571
:1030600009F18701940140E050E060E070E0872DB5
:103070000E94B917182FB701C5010E94F90B8615D8
:1030800031F010E0812F2596EEE00C94A4351170FC
:103090001123C1F30E94980CF6016083718382832F
:1030A0009383F0CFA701B501C4010E94A436EACFF3
:1030B000A5E0B0E0EEE5F8E10C948E356B0185E01B
:1030C000E82EF12C09EE14E09E012F5F3F4F44EEF5
:1030D00054E061E080E00E940318882349F095E005
:1030E000FE013196AFEDB4E001900D929A95E1F7B3
:1030F00095E0EFEDF4E0D60101900D929A95E1F79D
:103100002596E8E00C94AA35AAE0B0E0EAE8F8E1F8
:103110000C948C35F82E6D837E83A42ED22EE32E54
:10312000B02EC12EAD81BE818D919D910D90BC912F
:10313000A02DBC01CD010E94F30C64367105810500
:10314000910510F4AA20A9F000E010E020E030E0A2
:103150004B2D5C2D6D2D7E2D8F2D0E94B917882350
:1031600049F00E94980CED81FE8160837183828317
:10317000938381E02A96EAE00C94A835ABE0B0E0B6
:10318000E4ECF8E10C94923528E0E9E6F5E0CE01B4
:103190000196DC0101900D922A95E1F730916605C8
:1031A000209167055091680539872A875B8741E040
:1031B0009C01511101C040E00BE010E06FEC74E0A5
:1031C00085E00E9484188111109268052B96E4E036
:1031D0000C94AE35A1E0B0E0E0EFF8E10C9492354C
:1031E0008091CA04898341E09091FF04981301C043
:1031F00040E001E010E09E012F5F3F4F6BEC74E078
:1032000086E00E9484182196E4E00C94AE35A8E094
:10321000B0E0EDE0F9E10C9492358091D304909107
:10322000D404A091D504B091D604BC01CD010E9474
:10323000F30C11E0643671058105910520F10E94BF
:10324000B50CDC01CB010296A11DB11D89839A83C7
:10325000AB83BC8300E010E020E030E044E050E0CD
:10326000BE016F5F7F4F84E00E94B917182F88233B
:1032700051F00E94980C6093D3047093D40480930F
:10328000D5049093D604812F2896E4E00C94AE35B3
:10329000A0E0B0E0EEE4F9E10C948E357C016B0126
:1032A00064E670E088E70E94BC32EC0197FD12C032
:1032B00000E010E0F701E00FF11F849164E670E098
:1032C0000E942B33EC010F5F1F4FC016D10611F087
:1032D00097FFF0CF0E94AD3381E0CD2B09F080E065
:1032E000CDB7DEB7E8E00C94AA3580918C04882332
:1032F00069F080918B04882349F062E070E086E4F5
:1033000091E00E944819811110928B040895A4E065
:10331000B0E0EDE8F9E10C94943580918C048823B9
:10332000F9F00E94980CDC01CB0180529C46AB4F17
:10333000BF4F80938D0490938E04A0938F04B0931D
:10334000900480918B0481110BC062E070E084E4F2
:1033500091E00E944819882319F081E080938B0442
:103360002496E2E00C94B0351F93CF93DF93982F0F
:10337000162F81E09A3019F09D3039F480E00E94D8
:10338000451ADF91CF911F910895C0918802D09185
:10339000890286E0FE01ACE2B2E001900D928A95CE
:1033A000E1F7903E90F186E0FE0111928A95E9F7EF
:1033B000C0918802D0918902111133C046E050E0DB
:1033C000BE018CE292E00E9497369E012A5832405C
:1033D000892B91F52A5F3F4F40919104642F70E053
:1033E000C9010E947035481B463010F4240F311D6E
:1033F000211572E0370710F020E030E026573D4FEE
:103400003093890220938802BCCFF6E09F9FB001E1
:1034100011246A5D784F46E050E0CE010E9481366B
:10342000C7CF9E012A5F3F4FFE012E173F0731F2A3
:10343000808180958193F9CFC90145E09695879564
:103440004A95E1F741E050E0BA0102C0660F771FEC
:103450008A95E2F7CB016091860270918702862BF4
:10346000972BB9016B5F7F4FE5E076956795EA95FD
:10347000E1F702C0440F551F6A95E2F7842B952BA4
:103480009093870280938602A5CFCF93382FE09147
:103490008802F0918902EA58F24020919104622F4B
:1034A00070E0CF010E947035281B822F332369F012
:1034B00066E00E94BB35C82FC15010F4CF9108952B
:1034C00060E080E20E94B419F7CF9F01280F311D00
:1034D0002115324018F080E0E0E0F0E08E0F9F2FE1
:1034E000911D86579D4F9093890280938802E6CF65
:1034F0001F93CF93DF93EC01162FFE01849181116E
:1035000004C0DF91CF911F910895612F0E94B419DB
:103510002196F3CF0E94781A81E00E94451A0895FF
:10352000CF93DF93C5E5D1E060E089910E94B419A3
:1035300081E0CA35D807C1F7DF91CF9108951F9276
:103540001FB61F9211248F939F93AF93BF938091C7
:103550009404811113C08091FA019091FB01A09114
:10356000FC01B091FD014196A11DB11D8093FA01AE
:103570009093FB01A093FC01B093FD01BF91AF912B
:103580009F918F911F901FBE1F9018952FB7F89491
:103590008091FA019091FB01A091FC01B091FD0195
:1035A0002FBF089580910405882319F00E94C61A40
:1035B00008950E94B50CCB01089560916905669548
:1035C000669570E041E050E089E091E00E948A3623
:1035D000892B19F481E0809367050E94D21A909399
:1035E000AF048093AE048091680584608093680581
:1035F00008959091690590FF42C0882309F440C066
:10360000893008F03FC08F73282F220F220F80913E
:1036100069058370282B2093690580916805816076
:1036200080936805662381F030916A0540916B05AF
:1036300050916C0560916D0570916E0580916F05DC
:10364000909170050E942D166091690566956695AA
:1036500070E041E050E089E091E00E948A36892BD9
:1036600099F00E94D40B81E08093B10420E0409156
:103670006C0560916B0580916A050E94A316089500
:1036800081E0C2CF88E0C0CF0E94DD1AECCF8091EC
:103690006905869586958F5F893008F081E061E045
:1036A0000E94F91A089590916905969596958FEF65
:1036B000890F913009F488E061E00E94F91A0895B9
:1036C0009091690590FF09C096959695981728F0F6
:1036D000961718F40E94471B089561E00E94F91A9A
:1036E00008959C014FB7F8948091FA019091FB01E5
:1036F000A091FC01B091FD014FBF821B930B089577
:103700002F923F925F926F927F928F929F92AF9291
:10371000BF92CF92DF92EF92FF920F931F93CF93BE
:10372000DF93CDB7DEB728970FB6F894DEBF0FBE94
:10373000CDBF80918C04882309F4ABC080912A020C
:1037400090912B020E94711BC29708F464C00E94E2
:10375000C61A90932B0280932A0260E080E00E94B8
:10376000E20B8091CA0490E09093090280930802D2
:103770000E94120C8093070280910405882309F4AB
:10378000A8C060E08DE197E00E94781A80917405EE
:103790000E94FC07882341F0813031F160E08DE028
:1037A00097E00E94781A05C060E087E197E00E94E8
:1037B0008A1A60E08AE097E00E94781A60E084E06C
:1037C00097E00E948A1A809175050E94FC0782305A
:1037D00009F477C068F0833009F477C060E08CEEBC
:1037E00096E00E948A1A09C060E081E197E0DFCF8D
:1037F00060E08EEF96E00E94781A60E089EE96E035
:103800000E94781A0E94120C81FB662760F983EEF1
:1038100096E00E948A1A8091860290918702892BF5
:10382000A9F080918C04882389F080918A04811109
:103830000DC00E948719209186023091870280E096
:1038400061E070E02115310509F0FEC080918B0424
:103850008823F9F00E94980C69837A838B839C8378
:1038600080918D0490918E04A0918F04B09190046A
:1038700029813A814B815C81281B390B4A0B5B0BF8
:10388000DA01C9018F3F9F4FAF4FBF4710F40E942D
:10389000751928960FB6F894DEBF0FBECDBFDF9125
:1038A000CF911F910F91FF90EF90DF90CF90BF903D
:1038B000AF909F908F907F906F905F903F902F90F0
:1038C000089560E088EF96E096CF60E082EF96E0A2
:1038D00092CF63E080E00E94E20B60E080E297E03C
:1038E0000E948A1A67E080E00E94E20B209108059E
:1038F0003091090540910A0550910B0529833A83BF
:103900004B835C8380910405882321F1CA01B901AE
:103910000E94F30C462F572FBC01413E534964408F
:10392000710548F12091BA043091BB044091BC0468
:103930005091BD04CA01B9010E94F30C69837A83D6
:103940008B839C83613E734984409105A0F00E9463
:10395000751961CF0E94B50C6D837E838F83988724
:10396000AB01BC0189819A81AB81BC81481B590B99
:103970006A0B7B0BD2CF0E94871980910302909132
:103980000402A0910502B0910602BC01CD010E9483
:10399000F30C69837A838B839C83693C7105810571
:1039A000910508F438CF0E94980C6093030270933D
:1039B0000402809305029093060280910101811117
:1039C00024C06FE00E94E20B0E94901A6CE080E03D
:1039D0000E94E20B81E0809301012091020230E01D
:1039E0002F5F3F4F217033272093020240E6429F12
:1039F000C001439F900D11242091070221FF10C0A8
:103A00008D5D994F0E94F10D06CF6CE080E00E9421
:103A1000E20B0E94901A6DE080E00E94E20BDDCF85
:103A200020910802309109022B3031051CF48D5988
:103A30009A4FE8CF293231051CF48D559B4FE2CFC8
:103A40008D519C4FDFCF8F5F082F10E01B01082E98
:103A500002C0220C331C0A94E2F7A1014223532333
:103A6000452B89F39091920490FD44C098013695BE
:103A7000279536952795922F8295880F80763FE17E
:103A8000380F809304012093070130930501909330
:103A9000080124E630E047E050E062E071E088E7AA
:103AA0000E945B33892B09F0D1CEA80125E0440F99
:103AB000551F2A95E1F78091920480FD23C0465757
:103AC0005D4F04E610E020E230E060E488E70E9409
:103AD0008233892B09F0BACED101A095B09580919F
:103AE000860290918702A823B923B0938702A093FE
:103AF0008602ACCE880F880F880F37E0380F20E0A1
:103B000093E0BFCFEAE0F2E080E2DF011D928A9508
:103B1000E9F7EEE6F1E0FE83ED830AE611E082E7E5
:103B2000C82E81E0D82E97E0592E77247394AD816A
:103B3000BE818D91BE83AD83F80121918F01240F49
:103B4000352F311D26573D4FE82FF0E0E65FFD4F42
:103B500080E090E0652C681A872C082E01C0880C44
:103B60000A94EAF77901A12CD701BD907D01B82014
:103B7000662D6A19677070E0BB2D062E01C0BB0F61
:103B80000A94EAF79B2E7195619571096770772702
:103B900001C0B6946A95EAF79B286081962A9082C4
:103BA000A39468E0A612E0CF019631968830910583
:103BB00089F68D819E81C816D90609F0B8CF04E632
:103BC00010E020E230E04AE052E07FCF0F931F93F5
:103BD000CF93DF93C62FD42F122F8823A9F06093A1
:103BE00064050E94C61A9093E3018093E201C770B6
:103BF00081E001C0880FCA95EAF70E941C16DF9188
:103C0000CF911F910F91089580916405681332C080
:103C10008091E2019091E3010E94711B843691052D
:103C200048F5CD130CC0812F0E940016D77081E09B
:103C300001C0880FDA95EAF70E942616E0CFC77018
:103C400001E0802F01C0880FCA95EAF70E9426166E
:103C500080E28D0F883050F48D2F877001C0000FE7
:103C60008A95EAF7802F0E941C16DDCF812F0E94D3
:103C70000016C5CFC77081E001C0880FCA95EAF76A
:103C8000DBCFA8E0B0E0E7E4FEE10C9488356C01FE
:103C9000DC0114968C91882309F4E5C061E0C6012B
:103CA0000E94F7118C01F6018581882309F470C602
:103CB00098013A9521153F4408F08DC098013327AB
:103CC000A901445051094432510528F02B523109C1
:103CD0002E30310588F4E0916305F0E0EE0FFF1F10
:103CE000EF5CFA4F208131812F3F4FE7340721F0FD
:103CF0002F5F3F4F3183208398013757203831059C
:103D000008F051C6003108F09DC08FEF93E00E948B
:103D1000AD36811197C059E2E52E52E0F52E011122
:103D200061C01A821982FE01339686E0DF011D927E
:103D30008A95E9F74AE0642E5701BFEFAB1ABB0A38
:103D4000C7010E94AD3689831A82882309F47AC09C
:103D5000813009F08CC087010E5F1F4FC5010E94A2
:103D6000AD368A83882309F46DC09FEF980F933096
:103D700008F046C0E3E0EE0EF11CC8010E94AD362B
:103D80008B83882309F45EC01C828E010F5F1F4F56
:103D9000D8018C91882381F2813009F0AAC0119654
:103DA0008C911197813009F064C05801B2E0AB0EDC
:103DB000B11CF80182810E94001685010F5F1F4F20
:103DC0008AE0AFE9BFE01197F1F700C00000815031
:103DD0008111F7CFDDCF0F3F110511F008F08CCF27
:103DE00098016ECFE11484E0F80661F1C7010E94EA
:103DF000AD36D70111967D018111F4CF01508FCFDF
:103E00008430B9F432E0E32EF12CC8010F5F1F4F6C
:103E10000E94AD36E1E0F0E0EC0FFD1FEE0DFF1D5E
:103E20008083882379F08C3731F4FE01EE0DFF1D7D
:103E300012827801AACFFFEFEF1AFF0A27E0E216FD
:103E4000F10419F7809177058770882361F0D60116
:103E500015968C91882339F080917A0582FF03C0F2
:103E600082E00E94E5082896EEE00C94A4357501E6
:103E70008CCF823049F45801F2E0AF0EB11C12969B
:103E80008C910E94871599CF833049F45801B2E094
:103E9000AB0EB11CF80182810E94D4158ECF843004
:103EA00019F00F5F1F4F8ACF12962C910E5F1F4F94
:103EB00080E090E0A8014F5F5F4F2053330B2A3022
:103EC000310558F0009709F479CFAFE9BFE01197B9
:103ED000F1F700C000000197F5CF689EB001699E20
:103EE000700D1124C901860F971FF80121818A01E5
:103EF000E1CFE82FF0E0E154F14F7490282F2695A0
:103F00002695269530E0F901E155F14F949187709F
:103F1000F901E156F14FA490B12C082E02C0B594DE
:103F2000A7940A94E2F7B1E0AB22BB24F901E15770
:103F3000F14F8490912C082E02C0959487940A9496
:103F4000E2F7E1E08E229924292F30E002C0359576
:103F500027958A95E2F720FF0AC081EE0E94871517
:103F6000AB28E1F4872D0E94001681EE14C0AB2827
:103F700059F4872D0E9400168114910409F41ECF74
:103F80008CE20E9400161ACF86EE0E948715872DBC
:103F90000E94001686EE0E94D415EECF86EE0E9497
:103FA0008715872D0E94001686EE0E94D415DDCF5E
:103FB00026E241EE61EE0E94E61D44CF27E245EE87
:103FC00065EEF9CF26E241EE60EEF5CF27E245EE51
:103FD00064EEF1CF26E241EE62EEEDCF27E245EE50
:103FE00066EEE9CF28E241E0EBCF0631BCE71B07E4
:103FF00009F0E0C08091650569E2811165E380ED1B
:1040000091E00E94890CD3C08091790581608093F2
:1040100079056091790570917A0584E090E00E94BD
:10402000EF360E94A1120ECF80917A0588608093AE
:104030007A05EFCF809179058260E9CF809179058B
:104040008460E5CF809179058860E1CF80917A0521
:104050008160EDCF80917A058260E9CF809179050A
:104060008061D5CF809179058062D1CF809179052B
:104070008064CDCF0E94A112809179058068C7CF5E
:10408000809179058C60C3CF80917A058360CFCF12
:10409000809179058E7FBBCF80917A05877FC7CFCE
:1040A000809179058D7FB3CF809179058B7FAFCFDC
:1040B00080917905877FABCF80917A058E7FB7CFCE
:1040C00080917A058D7FB3CF809179058F7E9FCFC8
:1040D000809179058F7D9BCF809179058F7B97CFDC
:1040E0000E94A112809179058F7791CF80917905F7
:1040F000837F8DCF80917A058C7F99CF80917905D0
:1041000082FB992790F921E0922790FB82F990FB9E
:1041100083F97DCF80917A05982F909591708E7F4D
:10412000892B90FB81F983CF90917905892F8F7B23
:1041300096FF80646CCF0E94A11290917905892F1F
:1041400097FB87F9805863CF61E08EE090E00E9492
:10415000D1365FCF60E0F9CF90917905892F8F7EBE
:1041600094FF806154CF90917905892F8E7F90FFC5
:1041700081604DCF90917A05892F877F93FF88606A
:1041800056CF0631ECE71E0709F08CC0809171050F
:104190008A7A91E0811101C090E09093650565E312
:1041A000811101C069E280ED91E00E946F0C0E94D4
:1041B000651248CE809171058272F801E052F8478D
:1041C000E531F10508F09AC0EF5EF84C0C941C360E
:1041D0008091690580FF1EC0282F2E7F20936905DE
:1041E00030916A0540916B0550916C0560916D05A9
:1041F00070916E0580916F05909170050E942D164B
:104200000E94D40B809168058160809368050E94AC
:10421000E60E18CE81608093690561E086958695EB
:104220000E94F91A0FCE43E55BE167E47BE10E944F
:10423000DB0B08CE47E45BE163E57BE1F8CF49E0C7
:1042400057E16FEF76E1F3CF4FEF56E169E077E1A9
:10425000EECF40E257E163E177E1E9CF43E157E197
:1042600060E277E1E4CF4AE357E16DE277E1DFCF47
:104270004DE257E16AE377E1DACF49E856E16FE6CC
:1042800076E1D5CF4FE656E169E876E1D0CF61E03F
:1042900081E0C6CF65E082E00E94601BD3CD68E07C
:1042A00086E0FACF0737FCE71F0709F483C082E0F6
:1042B00008372CE7120709F47EC00A358CE7180787
:1042C00009F49FC008F083C00130ACE71A0709F475
:1042D00096C00330BCE71B0709F48BC001151C47CF
:1042E000C1F40E94A1123FEF44E38CE03150404002
:1042F0008040E1F700C000000E94130D07373CE743
:10430000130709F460C082E008374CE7140709F48A
:104310005BC0F6018581E080F180882309F475C0D7
:10432000C7010E94CC11182F682FC7010E9487086F
:10433000B701812F0E94AD110E94F809182F092F93
:10434000D6011696BC901697B2942FE0B22215961D
:10435000FC90809177058770882301F1FF20F1F0B0
:10436000892F807F803469F090E2910F9830B0F00F
:10437000803219F0803309F04DC0123078F0BB2044
:1043800069F080917A0582FF09C082E00E94E50809
:10439000809177058770AA24A3948111A12CE02F26
:1043A000E295EF70003C08F02EC1F0E0EA5DF84CB9
:1043B0000C941C3681E00E94140843E062E081E026
:1043C0000E94BA083FCD81E00E942008F6CF0B354D
:1043D000FCE71F07C1F00C351C4709F09ACF80910C
:1043E0007A0582FB882780F991E089270E943510A1
:1043F00090CF6FEF7FEF80E090E00E94EF360E9459
:10440000B71281E0F3CF80E0F1CFC7010E94A1088D
:10441000182F8ECF803609F0B4CF163FB1CFB02F12
:10442000BF70EB2E003118F0E29490EFE922FF20EC
:1044300031F1E11010C0812F0E948715007F0036F6
:1044400019F4163F09F460C080917605823009F0B6
:104450009DC283E053C280E2810F883010F01111B9
:1044600008C0809171058E29809371050E946512A4
:10447000E2CF80917B058E2980937B05F7CF812F3A
:104480000E94D415EE2009F43FC080E2810F8830ED
:1044900010F0111104C08E2D0E94FD0806C0E0949A
:1044A00080917B058E2180937B050E9465122CC034
:1044B000E02FEF70EE2E802F807F803219F0E29493
:1044C00080EFE822112349F0113009F46CC0FF207D
:1044D00009F478C0BB20C9F1AECF80917A0582FD86
:1044E00030C0FF2061F0E11002C080E0A5CF8091D4
:1044F00071058E29809371050E946512F6CF80E0C8
:104500000E94D415E110C7CFAA20B1F080917705A1
:1045100080FD12C0D60115961C92869586958695CB
:104520000E941408C6010E94411E8091770586955D
:10453000869586950E94200860E0C6010E94F711CA
:1045400092CCFF20A1F0B11004C08E2D0E941C1649
:1045500075CFF1E0BF1272CF809172059E2D982326
:10456000E91609F46BCF8E298093720567CFB110DD
:10457000CBCF8E2D0E942616909172058E2D892309
:10458000882329F08E2D8095892380937205809150
:1045900073059E2D9823992309F4B6CFE094E82261
:1045A000E0927305B1CFFF2029F025E02B1508F428
:1045B00045CFCBCF34E03B1508F4A6CF8E2D0E941B
:1045C0002616A2CFBB20D1F3193369F44FEF87EE43
:1045D00093E0415080409040E1F700C0000089E343
:1045E0000E94D41591CFAFE3BCE91197F1F700C059
:1045F0000000812FF5CF802F8695869583708823C4
:1046000031F0813089F0FF2009F47ECF17CFF1100F
:1046100005C080E090E00E94230C76CF812F902F80
:1046200093700E94230C0ACFF11005C080E090E047
:104630000E94490C69CF812F902F93700E94490CE2
:10464000FDCE802F8370811134C0F11036C0412F10
:10465000429546954770440F440F812F8F70042E6A
:1046600001C0880F0A94EAF71071112341F02FE07E
:1046700030E001C0220F4A95EAF7122F10950695F7
:1046800006950370023081F0033061F020917405CB
:10469000013039F0812B82230E940E080E94120CF7
:1046A00033CF822B812BF8CF812B909174058927F2
:1046B000F3CFFF2029F000FD05C00E94120CBECEF2
:1046C000823060F3412F429546954770440F440F66
:1046D000812F8F70042E01C0880F0A94EAF7212FD2
:1046E0002071222339F02FE030E001C0220F4A95DB
:1046F000EAF72095302F369536953370323081F0B9
:10470000333061F040917505313039F0822B8423CC
:104710000E9411080E94120C76CF842B822BF8CFB6
:10472000822B909175058927F3CFB02FBF70EB2EA8
:10473000FF2039F08B2F0E941408812F0E941C1635
:10474000BCCF812F0E9426168E2D0E942008A6CF56
:10475000123F09F444C078F4103FC9F0113F09F446
:1047600058C0FF2009F480C0BB2009F47AC0812F13
:104770000E948715A2CF133FE1F1143F09F445C011
:10478000F110F2CFB11082C0802F8F71DECFFF20E9
:1047900091F0E4E0EB1508F490CF202F2F7181E029
:1047A00090E001C0880F2A95EAF790917505892756
:1047B0000E94110882CF35E03B1508F46FCF0F71CE
:1047C00081E090E09C0102C0220F331F0A95E2F7BE
:1047D00089018091750582270E9411085FCF802F83
:1047E0008F71FF2019F00E94200867CF0E941408E3
:1047F00055CFFF2041F081E0902F9F7101C0880FBD
:104800009A95EAF7D5CF80E0E7CF80917A0582FDCF
:1048100008C0802F8F71FF2009F497CF0E941408E1
:104820004CCFFF2099F0402F4F71F42E842F0E941F
:10483000140880917A0582FF07C0A8E0FA9EC001A3
:1048400011248360809377058F2DE8CF81E00E944B
:10485000E508B1E0BB1508F021CF82E00E94E50831
:104860001DCF802F8F71DACFBB2009F48DCF193384
:1048700069F4EFEFF7EE23E0E150F0402040E1F77C
:1048800000C00000812F0E94D41508CF8FE39CE95F
:104890000197F1F7F5CFE0E1E10FE73008F049C00B
:1048A000F0E0EE5CF84C0C941C36FF2009F42CCEA2
:1048B00080917C0591E0892719C0F0927C05A3CEF8
:1048C00081E08F2580937C059ECE81E0F110B6CDEE
:1048D00080937C0519CEF110B1CD10927C0514CED9
:1048E000FF2039F082E08093760581E080937C059B
:1048F000A5CD80917605823021F481E08093760504
:1049000003CE833009F000CE10927605E6CFFF206B
:1049100039F080917805882359F2109278058ECD70
:1049200094E09B1508F4F0CD80917C0591E08927F7
:10493000CFCF80917805BB20D9F0882341F08091BA
:104940007C0591E0892780937C0510927805F11011
:1049500072CDAFE3BCE91197F1F700C00000812FE1
:104960000E94D41587E0F60111928A95E9F7CCCD23
:10497000882309F448CEF11061CD80917C0591E047
:10498000892780937C0510927805BECD8130BACFFF
:10499000F801E851FC47E730F10508F026CBE75C69
:1049A000F84C0C941C36F801E851FC47E730F1054F
:1049B000B0F310926405C8019057839708F0E1CBDB
:1049C00084E090E00E94BB3690937A05809379054D
:1049D000F801E150F047E232F10508F015CBE05C58
:1049E000F84C0C941C368091C605803178F4809187
:1049F000C505882359F0E0918705209186053091FF
:104A0000C1054091C00557E02E1301C008956E2FD7
:104A100070E05E9FF0011124DF01A857BA4F149691
:104A20008C911497882361F111968C9111978313BF
:104A300027C08C91841324C015968C9115978111F1
:104A40001FC012968D919C91A091C205B091C30593
:104A50008A1B9B0B8436910598F48091C6058F7054
:104A600080618093C605E257FA4F80818F70806124
:104A7000808380EC95E00E94411E0E94DB0808952F
:104A8000FB013196E770C0CFADE0B0E0EAE4F5E2BB
:104A90000C9488358C0186E0F801DE0118960190AF
:104AA0000D928A95E1F7F8017080F580A280B380BD
:104AB000E48080EC882E85E0982E6090C40561101B
:104AC0002DC0EE2041F1FF2009F447C1C8010E942A
:104AD0002612882309F441C187E0F801D40101902E
:104AE0000D928A95E1F7F1E0EF1213C08091C005B5
:104AF0009091C1050E94171292959F70963049F4CB
:104B0000863F39F080917C058E2580937C05E0926C
:104B100078050E94F324FF24F39453C0D090C50578
:104B20008091C2059091C3059501281B390BDD20AA
:104B300009F4E4C02436310508F09FC0EE2059F393
:104B40008091C105C180E090C605FFE0FE1508F424
:104B500059C0C81215C08091C005871111C0F1104D
:104B60004BC08E2D8F7080618093C60580EC95E0E0
:104B70000E94411E8091C605F8018683F12C21C058
:104B8000F1103AC040E06C2D872D0E94C70E40E026
:104B90006C2D872D0E94C70EF82E8111EFCF8885CE
:104BA00099850E941712292F22952F70903470F446
:104BB0009F702230A0F09923B1F0F80196819031D6
:104BC00090F48F2D2D96EEE00C94A4352A5F2F7073
:104BD000223068F0C8010E94411EFD2CF2CF9923BB
:104BE00011F0882371F3805E883058F3F3CF803F53
:104BF00040F3815F8230F9CF8091C6058160809358
:104C0000C605BCCFC81214C08091C005871110C062
:104C1000F1100EC0F801E682C8010E94411E87E033
:104C2000F801A0ECB5E001900D928A95E1F773CF01
:104C3000C8010E942612882309F48FC0FF2009F4BE
:104C40008CC08091C605803278F08091C00590912B
:104C5000C1059A838983BC82AB826D821E82EF82FA
:104C6000CE0101960E94411E87E0F801A0ECB5E05C
:104C700001900D928A95E1F74CCFD090C605FFE0E8
:104C8000FD1550F080EC95E00E94411E87E0F40194
:104C900011928A95E9F772CFEE2009F43CCF9091FA
:104CA000C105F8018181981310C08091C00587115A
:104CB0000CC0F1100AC0D682C8010E94411E87E0D4
:104CC000F40111928A95E9F726CFC8010E942612B5
:104CD000882309F442C0FF2009F43FC08091C60533
:104CE000803210F28091C0059091C1059A8389832A
:104CF000BC82AB826D821E82DF82B2CF2436310548
:104D000028F6EE2009F407CFFF2039F19091C10574
:104D10008181981318C08091C005871114C08091BB
:104D2000C60580FD7CCF803108F479CF8683807FF3
:104D3000803F09F471CF8681982F907F905F8F70AC
:104D4000892B868369CFC8010E94261281118CCFDE
:104D50008091C60581608093C605C8010E94411EEE
:104D6000DACEABE1B0E0E7EBF6E20C949335688F76
:104D7000798F282F8A8F692F9B8F911110927B0535
:104D80008823B9F1813009F076C05A3090F5463069
:104D900080F5E42FF0E086E0589FE00DF11D11242E
:104DA000CF018770992721E030E001C0220F8A955A
:104DB000EAF7DF0173E0B695A7957A95E1F7A25877
:104DC000BA4F7C9180917C05611102C0872F8223AC
:104DD000882309F44CC0CF01880F991FFC01EE5BBA
:104DE000F04F5491FC01EF5BF04FE4914E2F722B8A
:104DF0007C931D8A4E8B5F8B86E0FE017696DE01EA
:104E00001F9601900D928A95E1F78B89882329F0EE
:104E100061E0CE010F960E94F71187E0FE013F96F8
:104E2000DE01189601900D928A95E1F7CE01089661
:104E30000E944425811110C087E0FE013896DE01F2
:104E4000119601900D928A95E1F720918605409187
:104E500087058C8581113DC017E080918705909171
:104E60008605891360C06B96E3E00C94AF352095FE
:104E700027232C93BECF2250223008F0BACF84E0F3
:104E8000850F823008F0B5CFE42FF0E0242F277093
:104E900081E090E001C0880F2A95EAF7DF0193E0F6
:104EA000B695A7959A95E1F7A358BA4F2C913091F2
:104EB0007C05611102C0322F3823332331F0E15CCD
:104EC000F04FE4914E2F282BD4CF809582238C93E2
:104ED00090CF30E0C90101968770992750E0841780
:104EE000950771F40E94A112109286051092870511
:104EF00087E0E0ECF5E0DF011D928A95E9F7ACCFA1
:104F000097E0929FD001939FB00D1124A857BA4FFC
:104F1000FE01319601900D929A95E1F780938605F6
:104F20000E94DB0899CF189FC001112488579A4F1F
:104F30000E944425882309F496CF8091870590E04C
:104F40000196877099278093870587CFA6E0B0E008
:104F5000ECEAF7E20C9492350E94C61A8C0180911B
:104F60000605909107058017910779F019821A823A
:104F70000E94C61ABC0149815A8180E090E00E94DB
:104F8000B12610930705009306052696E4E00C94DD
:104F9000AE35ACE0B0E0EFECF7E20C949235182FB0
:104FA0008F83662391F10DEF08870E94C61ABC011A
:104FB00089879A8782E08B8781E08C874F8158852B
:104FC00082E091E00E94B1268FE39CE90197F1F71E
:104FD00000C0000019830A830E94C61A282F82E0AD
:104FE000622F792F2B839C838D831E8249815A8166
:104FF00090E00E94B1268FE39CE90197F1F700C091
:1050000000002C96E4E00C94AE350CEF08870E946B
:10501000C61ABC0189879A8783E08B8781E08C87D9
:105020004F81588583E091E00E94B1268FE39CE98F
:105030000197F1F700C0000019830A830E94C61A85
:10504000282F83E0CDCFA1E0B0E0E9E2F8E20C94B4
:105050008D35EE24E394F12C0FEE14E09E012F5FCA
:105060003F4F4BED54E063E082E00E940318082FAD
:10507000882339F1D12C80E01DC0C090DA04CD0C1A
:105080002C2D30E0A90148525B4F7A01E1E0F0E0BD
:10509000EC0FFD1FED0DF11D1081FA019081191B20
:1050A000B12E1B149CF0912F17FD90E0191B1111CC
:1050B00018C0D3949091D704D916F8F281110E94A8
:1050C000E80C802F2196E9E00C94A935BA94F701F9
:1050D00080818F5F808360E08C2D0E94C927802FA4
:1050E000E0CF1F5FF70180818150808361E08C2DCC
:1050F0000E94C927802FDBCFA9E1B0E0E2E8F8E207
:105100000C9487351D861C86FE013E9688E0DF01E3
:105110001D928A95E9F78BE7E82E81E0F82E8E0143
:10512000045F1F4F90E8C92E91E0D92E3801AA24C0
:10513000A394B12C36E8832E31E0932EF7018191B0
:105140007F018F3F09F441C0F894E82FE295EF709A
:10515000F0E021A18F70A50102C0440F551F8A9570
:10516000E2F7CA01922F982B91A392A180958923EF
:1051700082A3789400C0E0E8F1E031E0512C219165
:105180002F3F09F4A2C0A22FA295AF70A05EB0E09D
:105190008C9190E02F7002C0959587952A95E2F743
:1051A0008170811192C0832F582A330F8E169F066B
:1051B00031F7F701319780818F3F11F00E94200B6A
:1051C00050EA5A95F1F7D8015C920F5F1F4FCE1449
:1051D000DF0409F0B3CF4AE050E0B3018AE792E080
:1051E0000E9497360091850210E001541B4F892BD5
:1051F00009F46DC08AE0F301AAE7B2E001900D92D4
:105200008A95E1F781E08093E1010E94C61A9093AC
:10521000E0018093DF0180910405882309F4AFC089
:105220001A821982FE01339683E0DF011D928A956E
:10523000E9F78091E4018A3008F06BC048E558E155
:10524000FE0131967F01BF01C8010E94FB0F67017B
:10525000882309F482C043E258E2B701C8010E94E2
:10526000FB0F882309F479C047E059E1B701C80171
:105270000E94FB0F882309F470C04EEB58E1B70180
:10528000C8010E94FB0F882309F467C04AEE58E169
:10529000B701C8010E94FB0F882309F45EC0109279
:1052A000E4018091840290E045E050E0B601815431
:1052B0009B4F0E94973621E02093DE01892B09F055
:1052C0003FC06996EFE00C94A33580E06DCF8091EC
:1052D000E101882309F49FCF8091DF019091E001E3
:1052E0000E94711B059708F496CF45E050E06AE7ED
:1052F00072E0C8010E949736892B41F085E0EAE709
:10530000F2E0D80101900D928A95E1F71092E10147
:1053100082CF8091DC019091DD010E94711B843F5E
:10532000914008F08BCF8091DE01882351F285E017
:10533000FE013196DF011D928A95E9F71092DE0198
:10534000A0918402B0E0A154BB4F85E0FE013196EC
:1053500001900D928A95E1F7B4CF8091E4018F3FDF
:1053600039F40E94C61A9093DD018093DC01DBCFF3
:105370008F5F8093E4018A3008F493CFF2CF85E009
:10538000F801A9EEB4E001900D928A95E1F765E08D
:1053900070E089EE94E00E94F90B8093E80440915C
:1053A000B70450E06091B60470E068527B4F8E0104
:1053B0000F5F1F4FC8010E94A43689818093EF04BC
:1053C00061E070E0C8010E94F90B8093EE04C09088
:1053D000F004D090F104E090F204F090F304809196
:1053E000D8019091D901A091DA01B091DB01C816E2
:1053F000D906EA06FB06B1F0C092D801D092D901D5
:10540000E092DA01F092DB010E94980CC61AD70AEA
:10541000E80AF90AC0920005D0920105E09202055F
:10542000F09203058BE0E4EFF4E0D80101900D92D7
:105430008A95E1F78091F40486958695F090F504BD
:10544000E090F604D090F7040091FD041091FE0462
:105450001092FE04112301F110FF0BC0998190FFFF
:1054600020C09091690591609093690560E00E9469
:10547000F91A11FF06C020E04D2D6E2D8F2D0E94D0
:10548000A31612FF04C0002379F00E94DD1A13FF57
:1054900003C081E08093B1048091FF048093CA042B
:1054A00010CF0E94380FE5CF0E94D40BF0CFCDB7BC
:1054B000DEB7A8970FB6F894DEBF0FBECDBF85B795
:1054C000806885BF85B7806885BF84B7877F84BFC4
:1054D0000FB6F894A8958091600088618093600071
:1054E000109260000FBE80E890E00FB6F8948093B1
:1054F0006100909361000FBE8EE19BE09093CF011D
:105500008093CE010E94D20D0E946C0E8091E20029
:1055100084608093E20078948091C904882399F094
:105520008091E9001091EC001795112717958F7065
:10553000182B1092E9008091E80083FD0E94CD12A3
:105540001F701093E90082E084BD93E095BD9AEF4F
:1055500097BD80936E001092000510920105109285
:105560000205109203050E944C12811102C00E9494
:10557000361188EC90E02091E30027FDA3C6AFE34D
:10558000BCE91197F1F700C000000197009799F767
:105590000E94D20D1092C9041092040510920505C4
:1055A00010920F018CE080930A0180930B0180918F
:1055B0000F0191E089278093B604B92FB81BB093EF
:1055C000DA0480910F019093B70480910F019093BA
:1055D000D70480910F01811106C085EF80931C01D3
:1055E00084EF80931B0180911C01E82FE295EF70FE
:1055F000F0E041A18F7021E030E0B90102C0660FF8
:10560000771F8A95E2F7CB01962F9095942391A36B
:1056100092A1892B82A380911B01E82FE295EF7064
:10562000F0E041A18F70D90102C0AA0FBB1F8A957B
:10563000E2F7CD019A2F9095942391A392A1892B03
:1056400082A3EFE8F1E03197F1F700C0000010917C
:10565000B7046CE171E04BE151E0A8EBEA2EA4E065
:10566000FA2EFB018E2F861B811708F470C08091E3
:105670000F0180910F0190E0811101C095E090939E
:10568000850285E0891B809384020BE711E0F0E836
:10569000EF2EF1E0FF2EF80181918F018F3F11F085
:1056A0000E94200BE016F106B1F700E811E0E6E8F1
:1056B000EE2EE1E0FE2ED8018D918D018F3F11F08D
:1056C0000E94200BE016F106B1F78AE0EFEBF4E060
:1056D000DF01282F1D922A95E9F7EAE7F2E0DF01C2
:1056E0001D928A95E9F780E090E00E94BB36863EE5
:1056F0009E4F21F40E944C12811102C00E94471754
:1057000082E090E00E94AD368093960484E090E0C1
:105710000E94BB3690937A05809379050E947C287D
:10572000EFEFF6E721E0E150F0402040E1F700C064
:1057300000000E947C288091BF0480FF30C06FEF82
:105740007FEF80E090E00E94EF360E94130D019100
:10575000802F82958F70805E90E0DC012C91DA01C1
:105760003D91AD01832F82958F70805E90E0DC01CA
:105770008C9190E03F7002C0959587953A95E2F73D
:105780008170880F30E00F7002C0359527950A951B
:10579000E2F72170822BD7018D937D0163CF83E0E7
:1057A00090E00E94AD360E940E0883E08093920440
:1057B00080E2809391040E94B6326BE070E08DE746
:1057C0009EE00E944819882309F443C08091920406
:1057D00065E070E081FD4CC188E79EE00E944819B9
:1057E0008823B9F16DE070E086E69EE00E944819DA
:1057F000882379F10E94980C69A37AA38BA39CA3B8
:10580000DC01CB0180529C46AB4FBF4F80938D048F
:1058100090938E04A0938F04B0939004EAE8F2E092
:1058200080E092E0DF019C011D9221503040E1F7C1
:10583000F0938902E09388028FEF9FEF90938702A5
:105840008093860281E080938C0480938B04109275
:105850008A0480919304811197C080E090E00E94B7
:10586000BB36863E9E4F21F40E944C12811104C02B
:105870000E9447170E94531688E090E00E94B536B8
:105880006B017C0184E290E00E94AD36282F30E06D
:1058900040E050E060E070E080E090E000E20E94D4
:1058A0003C36E22FA32EB42EB52FA62FF72F97014B
:1058B000860140E050E0BA01EC29A12AB22AB32BBC
:1058C000A42BF52B862B972BE0936905A0926A05F4
:1058D000B0926B05B0936C05A0936D05F0936E05C7
:1058E00080936F0590937005809168058360809325
:1058F0006805E430C8F50E94531688E090E00E94E5
:10590000B5366B017C0184E290E00E94AD36282F11
:1059100030E040E050E060E070E080E090E000E2E5
:105920000E943C365901B42FA52FF62FE72F97017F
:10593000860140E050E0BA01AC28B12AB22BA32B7B
:10594000F42BE52B862B972BA0926905B0926A0564
:10595000B0936B05A0936C05F0936D05E0936E0515
:1059600080936F05909370050E94C60B0E94D40B24
:105970008091690580FF05C060E0869586950E944C
:10598000F91A81E08093930480910405811102C08B
:105990000E94103480E191E090930D0580930C05F6
:1059A00070E4372E8091C904853049F48091C90490
:1059B000853009F460C00E94A1120E94120C0E945E
:1059C0007C2807E914E06FEBE62E64E0F62E21EA6E
:1059D00034E0D701F80191918D912E173F0709F41A
:1059E0009DC09817C1F380900405D12C772473943F
:1059F000D701CD907D01F80191908F019C1439F170
:105A00009C24B12CAA24A394892D8A218823B9F03F
:105A10008820A9F0B982DA820E94C61A9C838B83FF
:105A20007D8291E08C2D8A21811101C090E09E83BE
:105A300049815A816B817C818D810E94B126B3940A
:105A4000AA0CF6E0BF12E0CFF8013197C082D394E0
:105A50002AE0D212CDCF0E94B50C60930805709356
:105A6000090580930A0590930B05222423945BC0BB
:105A700083E79EE0B3CE8091C904843029F10E946F
:105A800075191092940468E170E00FB6F894A89527
:105A9000609360000FBE3092600083B7817F8460A6
:105AA00083BF83B7816083BF7894889583B78E7FE7
:105AB00083BF0FB6F894A8958091600088618093A9
:105AC0006000109260000FBE80919504882309F455
:105AD0006DCF0E947C28EFEBF4E089EC94E02191FB
